{
	"test.sol": {
		"AIAgentMarketplace": {
			"abi": [
				{
					"inputs": [
						{
							"internalType": "address",
							"name": "_mktToken",
							"type": "address"
						},
						{
							"internalType": "address",
							"name": "_platformWallet",
							"type": "address"
						}
					],
					"stateMutability": "nonpayable",
					"type": "constructor"
				},
				{
					"anonymous": false,
					"inputs": [
						{
							"indexed": true,
							"internalType": "uint256",
							"name": "agentId",
							"type": "uint256"
						},
						{
							"indexed": false,
							"internalType": "address",
							"name": "seller",
							"type": "address"
						},
						{
							"indexed": false,
							"internalType": "uint256",
							"name": "price",
							"type": "uint256"
						},
						{
							"indexed": false,
							"internalType": "string",
							"name": "metadata",
							"type": "string"
						}
					],
					"name": "AgentListed",
					"type": "event"
				},
				{
					"anonymous": false,
					"inputs": [
						{
							"indexed": true,
							"internalType": "uint256",
							"name": "agentId",
							"type": "uint256"
						},
						{
							"indexed": false,
							"internalType": "address",
							"name": "buyer",
							"type": "address"
						},
						{
							"indexed": false,
							"internalType": "uint256",
							"name": "price",
							"type": "uint256"
						}
					],
					"name": "AgentPurchased",
					"type": "event"
				},
				{
					"anonymous": false,
					"inputs": [
						{
							"indexed": true,
							"internalType": "uint256",
							"name": "agentId",
							"type": "uint256"
						},
						{
							"indexed": false,
							"internalType": "uint256",
							"name": "newPrice",
							"type": "uint256"
						}
					],
					"name": "PriceUpdated",
					"type": "event"
				},
				{
					"inputs": [
						{
							"internalType": "uint256",
							"name": "",
							"type": "uint256"
						}
					],
					"name": "agents",
					"outputs": [
						{
							"internalType": "address",
							"name": "seller",
							"type": "address"
						},
						{
							"internalType": "uint256",
							"name": "price",
							"type": "uint256"
						},
						{
							"internalType": "bool",
							"name": "isListed",
							"type": "bool"
						},
						{
							"internalType": "string",
							"name": "metadata",
							"type": "string"
						}
					],
					"stateMutability": "view",
					"type": "function"
				},
				{
					"inputs": [
						{
							"internalType": "uint256",
							"name": "agentId",
							"type": "uint256"
						}
					],
					"name": "buyAgent",
					"outputs": [],
					"stateMutability": "nonpayable",
					"type": "function"
				},
				{
					"inputs": [],
					"name": "mktToken",
					"outputs": [
						{
							"internalType": "contract IERC20",
							"name": "",
							"type": "address"
						}
					],
					"stateMutability": "view",
					"type": "function"
				},
				{
					"inputs": [],
					"name": "nextAgentId",
					"outputs": [
						{
							"internalType": "uint256",
							"name": "",
							"type": "uint256"
						}
					],
					"stateMutability": "view",
					"type": "function"
				},
				{
					"inputs": [],
					"name": "owner",
					"outputs": [
						{
							"internalType": "address",
							"name": "",
							"type": "address"
						}
					],
					"stateMutability": "view",
					"type": "function"
				},
				{
					"inputs": [],
					"name": "platformFeePercent",
					"outputs": [
						{
							"internalType": "uint256",
							"name": "",
							"type": "uint256"
						}
					],
					"stateMutability": "view",
					"type": "function"
				},
				{
					"inputs": [],
					"name": "platformWallet",
					"outputs": [
						{
							"internalType": "address",
							"name": "",
							"type": "address"
						}
					],
					"stateMutability": "view",
					"type": "function"
				},
				{
					"inputs": [
						{
							"internalType": "uint256",
							"name": "price",
							"type": "uint256"
						},
						{
							"internalType": "string",
							"name": "metadata",
							"type": "string"
						}
					],
					"name": "publishAgent",
					"outputs": [
						{
							"internalType": "uint256",
							"name": "",
							"type": "uint256"
						}
					],
					"stateMutability": "nonpayable",
					"type": "function"
				},
				{
					"inputs": [
						{
							"internalType": "uint256",
							"name": "agentId",
							"type": "uint256"
						},
						{
							"internalType": "uint256",
							"name": "newPrice",
							"type": "uint256"
						}
					],
					"name": "updatePrice",
					"outputs": [],
					"stateMutability": "nonpayable",
					"type": "function"
				}
			],
			"devdoc": {
				"kind": "dev",
				"methods": {},
				"version": 1
			},
			"evm": {
				"assembly": "    /* \"test.sol\":415:2968  contract AIAgentMarketplace {... */\n  mstore(0x40, 0x80)\n    /* \"test.sol\":717:719  15 */\n  0x0f\n    /* \"test.sol\":681:719  uint256 public platformFeePercent = 15 */\n  0x02\n  sstore\n    /* \"test.sol\":1123:1294  constructor(address _mktToken, address _platformWallet) {... */\n  callvalue\n  dup1\n  iszero\n  tag_1\n  jumpi\n  0x00\n  dup1\n  revert\ntag_1:\n  pop\n  mload(0x40)\n  sub(codesize, bytecodeSize)\n  dup1\n  bytecodeSize\n  dup4\n  codecopy\n  dup2\n  dup2\n  add\n  0x40\n  mstore\n  dup2\n  add\n  swap1\n  tag_2\n  swap2\n  swap1\n  tag_3\n  jump\t// in\ntag_2:\n    /* \"test.sol\":1197:1207  msg.sender */\n  caller\n    /* \"test.sol\":1189:1194  owner */\n  0x00\n  dup1\n    /* \"test.sol\":1189:1207  owner = msg.sender */\n  0x0100\n  exp\n  dup2\n  sload\n  dup2\n  0xffffffffffffffffffffffffffffffffffffffff\n  mul\n  not\n  and\n  swap1\n  dup4\n  0xffffffffffffffffffffffffffffffffffffffff\n  and\n  mul\n  or\n  swap1\n  sstore\n  pop\n    /* \"test.sol\":1235:1244  _mktToken */\n  dup2\n    /* \"test.sol\":1217:1225  mktToken */\n  0x03\n  0x00\n    /* \"test.sol\":1217:1245  mktToken = IERC20(_mktToken) */\n  0x0100\n  exp\n  dup2\n  sload\n  dup2\n  0xffffffffffffffffffffffffffffffffffffffff\n  mul\n  not\n  and\n  swap1\n  dup4\n  0xffffffffffffffffffffffffffffffffffffffff\n  and\n  mul\n  or\n  swap1\n  sstore\n  pop\n    /* \"test.sol\":1272:1287  _platformWallet */\n  dup1\n    /* \"test.sol\":1255:1269  platformWallet */\n  0x01\n  0x00\n    /* \"test.sol\":1255:1287  platformWallet = _platformWallet */\n  0x0100\n  exp\n  dup2\n  sload\n  dup2\n  0xffffffffffffffffffffffffffffffffffffffff\n  mul\n  not\n  and\n  swap1\n  dup4\n  0xffffffffffffffffffffffffffffffffffffffff\n  and\n  mul\n  or\n  swap1\n  sstore\n  pop\n    /* \"test.sol\":1123:1294  constructor(address _mktToken, address _platformWallet) {... */\n  pop\n  pop\n    /* \"test.sol\":415:2968  contract AIAgentMarketplace {... */\n  jump(tag_6)\n    /* \"#utility.yul\":88:205   */\ntag_8:\n    /* \"#utility.yul\":197:198   */\n  0x00\n    /* \"#utility.yul\":194:195   */\n  dup1\n    /* \"#utility.yul\":187:199   */\n  revert\n    /* \"#utility.yul\":334:460   */\ntag_10:\n    /* \"#utility.yul\":371:378   */\n  0x00\n    /* \"#utility.yul\":411:453   */\n  0xffffffffffffffffffffffffffffffffffffffff\n    /* \"#utility.yul\":404:409   */\n  dup3\n    /* \"#utility.yul\":400:454   */\n  and\n    /* \"#utility.yul\":389:454   */\n  swap1\n  pop\n    /* \"#utility.yul\":334:460   */\n  swap2\n  swap1\n  pop\n  jump\t// out\n    /* \"#utility.yul\":466:562   */\ntag_11:\n    /* \"#utility.yul\":503:510   */\n  0x00\n    /* \"#utility.yul\":532:556   */\n  tag_20\n    /* \"#utility.yul\":550:555   */\n  dup3\n    /* \"#utility.yul\":532:556   */\n  tag_10\n  jump\t// in\ntag_20:\n    /* \"#utility.yul\":521:556   */\n  swap1\n  pop\n    /* \"#utility.yul\":466:562   */\n  swap2\n  swap1\n  pop\n  jump\t// out\n    /* \"#utility.yul\":568:690   */\ntag_12:\n    /* \"#utility.yul\":641:665   */\n  tag_22\n    /* \"#utility.yul\":659:664   */\n  dup2\n    /* \"#utility.yul\":641:665   */\n  tag_11\n  jump\t// in\ntag_22:\n    /* \"#utility.yul\":634:639   */\n  dup2\n    /* \"#utility.yul\":631:666   */\n  eq\n    /* \"#utility.yul\":621:684   */\n  tag_23\n  jumpi\n    /* \"#utility.yul\":680:681   */\n  0x00\n    /* \"#utility.yul\":677:678   */\n  dup1\n    /* \"#utility.yul\":670:682   */\n  revert\n    /* \"#utility.yul\":621:684   */\ntag_23:\n    /* \"#utility.yul\":568:690   */\n  pop\n  jump\t// out\n    /* \"#utility.yul\":696:839   */\ntag_13:\n    /* \"#utility.yul\":753:758   */\n  0x00\n    /* \"#utility.yul\":784:790   */\n  dup2\n    /* \"#utility.yul\":778:791   */\n  mload\n    /* \"#utility.yul\":769:791   */\n  swap1\n  pop\n    /* \"#utility.yul\":800:833   */\n  tag_25\n    /* \"#utility.yul\":827:832   */\n  dup2\n    /* \"#utility.yul\":800:833   */\n  tag_12\n  jump\t// in\ntag_25:\n    /* \"#utility.yul\":696:839   */\n  swap3\n  swap2\n  pop\n  pop\n  jump\t// out\n    /* \"#utility.yul\":845:1352   */\ntag_3:\n    /* \"#utility.yul\":924:930   */\n  0x00\n    /* \"#utility.yul\":932:938   */\n  dup1\n    /* \"#utility.yul\":981:983   */\n  0x40\n    /* \"#utility.yul\":969:978   */\n  dup4\n    /* \"#utility.yul\":960:967   */\n  dup6\n    /* \"#utility.yul\":956:979   */\n  sub\n    /* \"#utility.yul\":952:984   */\n  slt\n    /* \"#utility.yul\":949:1068   */\n  iszero\n  tag_27\n  jumpi\n    /* \"#utility.yul\":987:1066   */\n  tag_28\n  tag_8\n  jump\t// in\ntag_28:\n    /* \"#utility.yul\":949:1068   */\ntag_27:\n    /* \"#utility.yul\":1107:1108   */\n  0x00\n    /* \"#utility.yul\":1132:1196   */\n  tag_29\n    /* \"#utility.yul\":1188:1195   */\n  dup6\n    /* \"#utility.yul\":1179:1185   */\n  dup3\n    /* \"#utility.yul\":1168:1177   */\n  dup7\n    /* \"#utility.yul\":1164:1186   */\n  add\n    /* \"#utility.yul\":1132:1196   */\n  tag_13\n  jump\t// in\ntag_29:\n    /* \"#utility.yul\":1122:1196   */\n  swap3\n  pop\n    /* \"#utility.yul\":1078:1206   */\n  pop\n    /* \"#utility.yul\":1245:1247   */\n  0x20\n    /* \"#utility.yul\":1271:1335   */\n  tag_30\n    /* \"#utility.yul\":1327:1334   */\n  dup6\n    /* \"#utility.yul\":1318:1324   */\n  dup3\n    /* \"#utility.yul\":1307:1316   */\n  dup7\n    /* \"#utility.yul\":1303:1325   */\n  add\n    /* \"#utility.yul\":1271:1335   */\n  tag_13\n  jump\t// in\ntag_30:\n    /* \"#utility.yul\":1261:1335   */\n  swap2\n  pop\n    /* \"#utility.yul\":1216:1345   */\n  pop\n    /* \"#utility.yul\":845:1352   */\n  swap3\n  pop\n  swap3\n  swap1\n  pop\n  jump\t// out\n    /* \"test.sol\":415:2968  contract AIAgentMarketplace {... */\ntag_6:\n  dataSize(sub_0)\n  dup1\n  dataOffset(sub_0)\n  0x00\n  codecopy\n  0x00\n  return\nstop\n\nsub_0: assembly {\n        /* \"test.sol\":415:2968  contract AIAgentMarketplace {... */\n      mstore(0x40, 0x80)\n      callvalue\n      dup1\n      iszero\n      tag_1\n      jumpi\n      0x00\n      dup1\n      revert\n    tag_1:\n      pop\n      jumpi(tag_2, lt(calldatasize, 0x04))\n      shr(0xe0, calldataload(0x00))\n      dup1\n      0x82367b2d\n      gt\n      tag_12\n      jumpi\n      dup1\n      0x82367b2d\n      eq\n      tag_7\n      jumpi\n      dup1\n      0x8c639a85\n      eq\n      tag_8\n      jumpi\n      dup1\n      0x8da5cb5b\n      eq\n      tag_9\n      jumpi\n      dup1\n      0xfa2af9da\n      eq\n      tag_10\n      jumpi\n      dup1\n      0xfa3ded90\n      eq\n      tag_11\n      jumpi\n      jump(tag_2)\n    tag_12:\n      dup1\n      0x30efc498\n      eq\n      tag_3\n      jumpi\n      dup1\n      0x3687fc05\n      eq\n      tag_4\n      jumpi\n      dup1\n      0x513856c8\n      eq\n      tag_5\n      jumpi\n      dup1\n      0x6b4a8ae0\n      eq\n      tag_6\n      jumpi\n    tag_2:\n      0x00\n      dup1\n      revert\n        /* \"test.sol\":845:871  uint256 public nextAgentId */\n    tag_3:\n      tag_13\n      tag_14\n      jump\t// in\n    tag_13:\n      mload(0x40)\n      tag_15\n      swap2\n      swap1\n      tag_16\n      jump\t// in\n    tag_15:\n      mload(0x40)\n      dup1\n      swap2\n      sub\n      swap1\n      return\n        /* \"test.sol\":1300:1757  function publishAgent(uint256 price, string memory metadata) external returns (uint256) {... */\n    tag_4:\n      tag_17\n      0x04\n      dup1\n      calldatasize\n      sub\n      dup2\n      add\n      swap1\n      tag_18\n      swap2\n      swap1\n      tag_19\n      jump\t// in\n    tag_18:\n      tag_20\n      jump\t// in\n    tag_17:\n      mload(0x40)\n      tag_21\n      swap2\n      swap1\n      tag_16\n      jump\t// in\n    tag_21:\n      mload(0x40)\n      dup1\n      swap2\n      sub\n      swap1\n      return\n        /* \"test.sol\":800:839  mapping(uint256 => Agent) public agents */\n    tag_5:\n      tag_22\n      0x04\n      dup1\n      calldatasize\n      sub\n      dup2\n      add\n      swap1\n      tag_23\n      swap2\n      swap1\n      tag_24\n      jump\t// in\n    tag_23:\n      tag_25\n      jump\t// in\n    tag_22:\n      mload(0x40)\n      tag_26\n      swap5\n      swap4\n      swap3\n      swap2\n      swap1\n      tag_27\n      jump\t// in\n    tag_26:\n      mload(0x40)\n      dup1\n      swap2\n      sub\n      swap1\n      return\n        /* \"test.sol\":743:765  IERC20 public mktToken */\n    tag_6:\n      tag_28\n      tag_29\n      jump\t// in\n    tag_28:\n      mload(0x40)\n      tag_30\n      swap2\n      swap1\n      tag_31\n      jump\t// in\n    tag_30:\n      mload(0x40)\n      dup1\n      swap2\n      sub\n      swap1\n      return\n        /* \"test.sol\":2575:2966  function updatePrice(uint256 agentId, uint256 newPrice) external {... */\n    tag_7:\n      tag_32\n      0x04\n      dup1\n      calldatasize\n      sub\n      dup2\n      add\n      swap1\n      tag_33\n      swap2\n      swap1\n      tag_34\n      jump\t// in\n    tag_33:\n      tag_35\n      jump\t// in\n    tag_32:\n      stop\n        /* \"test.sol\":681:719  uint256 public platformFeePercent = 15 */\n    tag_8:\n      tag_36\n      tag_37\n      jump\t// in\n    tag_36:\n      mload(0x40)\n      tag_38\n      swap2\n      swap1\n      tag_16\n      jump\t// in\n    tag_38:\n      mload(0x40)\n      dup1\n      swap2\n      sub\n      swap1\n      return\n        /* \"test.sol\":620:640  address public owner */\n    tag_9:\n      tag_39\n      tag_40\n      jump\t// in\n    tag_39:\n      mload(0x40)\n      tag_41\n      swap2\n      swap1\n      tag_42\n      jump\t// in\n    tag_41:\n      mload(0x40)\n      dup1\n      swap2\n      sub\n      swap1\n      return\n        /* \"test.sol\":646:675  address public platformWallet */\n    tag_10:\n      tag_43\n      tag_44\n      jump\t// in\n    tag_43:\n      mload(0x40)\n      tag_45\n      swap2\n      swap1\n      tag_42\n      jump\t// in\n    tag_45:\n      mload(0x40)\n      dup1\n      swap2\n      sub\n      swap1\n      return\n        /* \"test.sol\":1763:2569  function buyAgent(uint256 agentId) external {... */\n    tag_11:\n      tag_46\n      0x04\n      dup1\n      calldatasize\n      sub\n      dup2\n      add\n      swap1\n      tag_47\n      swap2\n      swap1\n      tag_24\n      jump\t// in\n    tag_47:\n      tag_48\n      jump\t// in\n    tag_46:\n      stop\n        /* \"test.sol\":845:871  uint256 public nextAgentId */\n    tag_14:\n      sload(0x05)\n      dup2\n      jump\t// out\n        /* \"test.sol\":1300:1757  function publishAgent(uint256 price, string memory metadata) external returns (uint256) {... */\n    tag_20:\n        /* \"test.sol\":1379:1386  uint256 */\n      0x00\n        /* \"test.sol\":1414:1415  0 */\n      dup1\n        /* \"test.sol\":1406:1411  price */\n      dup4\n        /* \"test.sol\":1406:1415  price > 0 */\n      gt\n        /* \"test.sol\":1398:1448  require(price > 0, \"Price must be greater than 0\") */\n      tag_50\n      jumpi\n      mload(0x40)\n      0x08c379a000000000000000000000000000000000000000000000000000000000\n      dup2\n      mstore\n      0x04\n      add\n      tag_51\n      swap1\n      tag_52\n      jump\t// in\n    tag_51:\n      mload(0x40)\n      dup1\n      swap2\n      sub\n      swap1\n      revert\n    tag_50:\n        /* \"test.sol\":1467:1482  uint256 agentId */\n      0x00\n        /* \"test.sol\":1485:1496  nextAgentId */\n      0x05\n      0x00\n        /* \"test.sol\":1485:1498  nextAgentId++ */\n      dup2\n      sload\n      dup1\n      swap3\n      swap2\n      swap1\n      tag_53\n      swap1\n      tag_54\n      jump\t// in\n    tag_53:\n      swap2\n      swap1\n      pop\n      sstore\n        /* \"test.sol\":1467:1498  uint256 agentId = nextAgentId++ */\n      swap1\n      pop\n        /* \"test.sol\":1526:1661  Agent({... */\n      mload(0x40)\n      dup1\n      0x80\n      add\n      0x40\n      mstore\n      dup1\n        /* \"test.sol\":1554:1564  msg.sender */\n      caller\n        /* \"test.sol\":1526:1661  Agent({... */\n      0xffffffffffffffffffffffffffffffffffffffff\n      and\n      dup2\n      mstore\n      0x20\n      add\n        /* \"test.sol\":1585:1590  price */\n      dup6\n        /* \"test.sol\":1526:1661  Agent({... */\n      dup2\n      mstore\n      0x20\n      add\n        /* \"test.sol\":1614:1618  true */\n      0x01\n        /* \"test.sol\":1526:1661  Agent({... */\n      iszero\n      iszero\n      dup2\n      mstore\n      0x20\n      add\n        /* \"test.sol\":1642:1650  metadata */\n      dup5\n        /* \"test.sol\":1526:1661  Agent({... */\n      dup2\n      mstore\n      pop\n        /* \"test.sol\":1508:1514  agents */\n      0x04\n        /* \"test.sol\":1508:1523  agents[agentId] */\n      0x00\n        /* \"test.sol\":1515:1522  agentId */\n      dup4\n        /* \"test.sol\":1508:1523  agents[agentId] */\n      dup2\n      mstore\n      0x20\n      add\n      swap1\n      dup2\n      mstore\n      0x20\n      add\n      0x00\n      keccak256\n        /* \"test.sol\":1508:1661  agents[agentId] = Agent({... */\n      0x00\n      dup3\n      add\n      mload\n      dup2\n      0x00\n      add\n      exp(0x0100, 0x00)\n      dup2\n      sload\n      dup2\n      0xffffffffffffffffffffffffffffffffffffffff\n      mul\n      not\n      and\n      swap1\n      dup4\n      0xffffffffffffffffffffffffffffffffffffffff\n      and\n      mul\n      or\n      swap1\n      sstore\n      pop\n      0x20\n      dup3\n      add\n      mload\n      dup2\n      0x01\n      add\n      sstore\n      0x40\n      dup3\n      add\n      mload\n      dup2\n      0x02\n      add\n      exp(0x0100, 0x00)\n      dup2\n      sload\n      dup2\n      0xff\n      mul\n      not\n      and\n      swap1\n      dup4\n      iszero\n      iszero\n      mul\n      or\n      swap1\n      sstore\n      pop\n      0x60\n      dup3\n      add\n      mload\n      dup2\n      0x03\n      add\n      swap1\n      dup2\n      tag_55\n      swap2\n      swap1\n      tag_56\n      jump\t// in\n    tag_55:\n      pop\n      swap1\n      pop\n      pop\n        /* \"test.sol\":1689:1696  agentId */\n      dup1\n        /* \"test.sol\":1677:1726  AgentListed(agentId, msg.sender, price, metadata) */\n      0x105f92e9d1e7880e6a383d06a0b916d961ebd471d6b19d11f335b4213c989397\n        /* \"test.sol\":1698:1708  msg.sender */\n      caller\n        /* \"test.sol\":1710:1715  price */\n      dup7\n        /* \"test.sol\":1717:1725  metadata */\n      dup7\n        /* \"test.sol\":1677:1726  AgentListed(agentId, msg.sender, price, metadata) */\n      mload(0x40)\n      tag_57\n      swap4\n      swap3\n      swap2\n      swap1\n      tag_58\n      jump\t// in\n    tag_57:\n      mload(0x40)\n      dup1\n      swap2\n      sub\n      swap1\n      log2\n        /* \"test.sol\":1743:1750  agentId */\n      dup1\n        /* \"test.sol\":1736:1750  return agentId */\n      swap2\n      pop\n      pop\n        /* \"test.sol\":1300:1757  function publishAgent(uint256 price, string memory metadata) external returns (uint256) {... */\n      swap3\n      swap2\n      pop\n      pop\n      jump\t// out\n        /* \"test.sol\":800:839  mapping(uint256 => Agent) public agents */\n    tag_25:\n      mstore(0x20, 0x04)\n      dup1\n      0x00\n      mstore\n      keccak256(0x00, 0x40)\n      0x00\n      swap2\n      pop\n      swap1\n      pop\n      dup1\n      0x00\n      add\n      0x00\n      swap1\n      sload\n      swap1\n      0x0100\n      exp\n      swap1\n      div\n      0xffffffffffffffffffffffffffffffffffffffff\n      and\n      swap1\n      dup1\n      0x01\n      add\n      sload\n      swap1\n      dup1\n      0x02\n      add\n      0x00\n      swap1\n      sload\n      swap1\n      0x0100\n      exp\n      swap1\n      div\n      0xff\n      and\n      swap1\n      dup1\n      0x03\n      add\n      dup1\n      sload\n      tag_59\n      swap1\n      tag_60\n      jump\t// in\n    tag_59:\n      dup1\n      0x1f\n      add\n      0x20\n      dup1\n      swap2\n      div\n      mul\n      0x20\n      add\n      mload(0x40)\n      swap1\n      dup2\n      add\n      0x40\n      mstore\n      dup1\n      swap3\n      swap2\n      swap1\n      dup2\n      dup2\n      mstore\n      0x20\n      add\n      dup3\n      dup1\n      sload\n      tag_61\n      swap1\n      tag_60\n      jump\t// in\n    tag_61:\n      dup1\n      iszero\n      tag_62\n      jumpi\n      dup1\n      0x1f\n      lt\n      tag_63\n      jumpi\n      0x0100\n      dup1\n      dup4\n      sload\n      div\n      mul\n      dup4\n      mstore\n      swap2\n      0x20\n      add\n      swap2\n      jump(tag_62)\n    tag_63:\n      dup3\n      add\n      swap2\n      swap1\n      0x00\n      mstore\n      keccak256(0x00, 0x20)\n      swap1\n    tag_64:\n      dup2\n      sload\n      dup2\n      mstore\n      swap1\n      0x01\n      add\n      swap1\n      0x20\n      add\n      dup1\n      dup4\n      gt\n      tag_64\n      jumpi\n      dup3\n      swap1\n      sub\n      0x1f\n      and\n      dup3\n      add\n      swap2\n    tag_62:\n      pop\n      pop\n      pop\n      pop\n      pop\n      swap1\n      pop\n      dup5\n      jump\t// out\n        /* \"test.sol\":743:765  IERC20 public mktToken */\n    tag_29:\n      0x03\n      0x00\n      swap1\n      sload\n      swap1\n      0x0100\n      exp\n      swap1\n      div\n      0xffffffffffffffffffffffffffffffffffffffff\n      and\n      dup2\n      jump\t// out\n        /* \"test.sol\":2575:2966  function updatePrice(uint256 agentId, uint256 newPrice) external {... */\n    tag_35:\n        /* \"test.sol\":2650:2669  Agent storage agent */\n      0x00\n        /* \"test.sol\":2672:2678  agents */\n      0x04\n        /* \"test.sol\":2672:2687  agents[agentId] */\n      0x00\n        /* \"test.sol\":2679:2686  agentId */\n      dup5\n        /* \"test.sol\":2672:2687  agents[agentId] */\n      dup2\n      mstore\n      0x20\n      add\n      swap1\n      dup2\n      mstore\n      0x20\n      add\n      0x00\n      keccak256\n        /* \"test.sol\":2650:2687  Agent storage agent = agents[agentId] */\n      swap1\n      pop\n        /* \"test.sol\":2719:2724  agent */\n      dup1\n        /* \"test.sol\":2719:2731  agent.seller */\n      0x00\n      add\n      0x00\n      swap1\n      sload\n      swap1\n      0x0100\n      exp\n      swap1\n      div\n      0xffffffffffffffffffffffffffffffffffffffff\n      and\n        /* \"test.sol\":2705:2731  msg.sender == agent.seller */\n      0xffffffffffffffffffffffffffffffffffffffff\n      and\n        /* \"test.sol\":2705:2715  msg.sender */\n      caller\n        /* \"test.sol\":2705:2731  msg.sender == agent.seller */\n      0xffffffffffffffffffffffffffffffffffffffff\n      and\n      eq\n        /* \"test.sol\":2697:2764  require(msg.sender == agent.seller, \"Only seller can update price\") */\n      tag_66\n      jumpi\n      mload(0x40)\n      0x08c379a000000000000000000000000000000000000000000000000000000000\n      dup2\n      mstore\n      0x04\n      add\n      tag_67\n      swap1\n      tag_68\n      jump\t// in\n    tag_67:\n      mload(0x40)\n      dup1\n      swap2\n      sub\n      swap1\n      revert\n    tag_66:\n        /* \"test.sol\":2782:2787  agent */\n      dup1\n        /* \"test.sol\":2782:2796  agent.isListed */\n      0x02\n      add\n      0x00\n      swap1\n      sload\n      swap1\n      0x0100\n      exp\n      swap1\n      div\n      0xff\n      and\n        /* \"test.sol\":2774:2817  require(agent.isListed, \"Agent not listed\") */\n      tag_69\n      jumpi\n      mload(0x40)\n      0x08c379a000000000000000000000000000000000000000000000000000000000\n      dup2\n      mstore\n      0x04\n      add\n      tag_70\n      swap1\n      tag_71\n      jump\t// in\n    tag_70:\n      mload(0x40)\n      dup1\n      swap2\n      sub\n      swap1\n      revert\n    tag_69:\n        /* \"test.sol\":2846:2847  0 */\n      0x00\n        /* \"test.sol\":2835:2843  newPrice */\n      dup3\n        /* \"test.sol\":2835:2847  newPrice > 0 */\n      gt\n        /* \"test.sol\":2827:2880  require(newPrice > 0, \"Price must be greater than 0\") */\n      tag_72\n      jumpi\n      mload(0x40)\n      0x08c379a000000000000000000000000000000000000000000000000000000000\n      dup2\n      mstore\n      0x04\n      add\n      tag_73\n      swap1\n      tag_52\n      jump\t// in\n    tag_73:\n      mload(0x40)\n      dup1\n      swap2\n      sub\n      swap1\n      revert\n    tag_72:\n        /* \"test.sol\":2905:2913  newPrice */\n      dup2\n        /* \"test.sol\":2891:2896  agent */\n      dup2\n        /* \"test.sol\":2891:2902  agent.price */\n      0x01\n      add\n        /* \"test.sol\":2891:2913  agent.price = newPrice */\n      dup2\n      swap1\n      sstore\n      pop\n        /* \"test.sol\":2941:2948  agentId */\n      dup3\n        /* \"test.sol\":2928:2959  PriceUpdated(agentId, newPrice) */\n      0x945c1c4e99aa89f648fbfe3df471b916f719e16d960fcec0737d4d56bd696838\n        /* \"test.sol\":2950:2958  newPrice */\n      dup4\n        /* \"test.sol\":2928:2959  PriceUpdated(agentId, newPrice) */\n      mload(0x40)\n      tag_74\n      swap2\n      swap1\n      tag_16\n      jump\t// in\n    tag_74:\n      mload(0x40)\n      dup1\n      swap2\n      sub\n      swap1\n      log2\n        /* \"test.sol\":2640:2966  {... */\n      pop\n        /* \"test.sol\":2575:2966  function updatePrice(uint256 agentId, uint256 newPrice) external {... */\n      pop\n      pop\n      jump\t// out\n        /* \"test.sol\":681:719  uint256 public platformFeePercent = 15 */\n    tag_37:\n      sload(0x02)\n      dup2\n      jump\t// out\n        /* \"test.sol\":620:640  address public owner */\n    tag_40:\n      0x00\n      dup1\n      sload\n      swap1\n      0x0100\n      exp\n      swap1\n      div\n      0xffffffffffffffffffffffffffffffffffffffff\n      and\n      dup2\n      jump\t// out\n        /* \"test.sol\":646:675  address public platformWallet */\n    tag_44:\n      0x01\n      0x00\n      swap1\n      sload\n      swap1\n      0x0100\n      exp\n      swap1\n      div\n      0xffffffffffffffffffffffffffffffffffffffff\n      and\n      dup2\n      jump\t// out\n        /* \"test.sol\":1763:2569  function buyAgent(uint256 agentId) external {... */\n    tag_48:\n        /* \"test.sol\":1817:1836  Agent storage agent */\n      0x00\n        /* \"test.sol\":1839:1845  agents */\n      0x04\n        /* \"test.sol\":1839:1854  agents[agentId] */\n      0x00\n        /* \"test.sol\":1846:1853  agentId */\n      dup4\n        /* \"test.sol\":1839:1854  agents[agentId] */\n      dup2\n      mstore\n      0x20\n      add\n      swap1\n      dup2\n      mstore\n      0x20\n      add\n      0x00\n      keccak256\n        /* \"test.sol\":1817:1854  Agent storage agent = agents[agentId] */\n      swap1\n      pop\n        /* \"test.sol\":1872:1877  agent */\n      dup1\n        /* \"test.sol\":1872:1886  agent.isListed */\n      0x02\n      add\n      0x00\n      swap1\n      sload\n      swap1\n      0x0100\n      exp\n      swap1\n      div\n      0xff\n      and\n        /* \"test.sol\":1864:1907  require(agent.isListed, \"Agent not listed\") */\n      tag_76\n      jumpi\n      mload(0x40)\n      0x08c379a000000000000000000000000000000000000000000000000000000000\n      dup2\n      mstore\n      0x04\n      add\n      tag_77\n      swap1\n      tag_71\n      jump\t// in\n    tag_77:\n      mload(0x40)\n      dup1\n      swap2\n      sub\n      swap1\n      revert\n    tag_76:\n        /* \"test.sol\":1939:1944  agent */\n      dup1\n        /* \"test.sol\":1939:1951  agent.seller */\n      0x00\n      add\n      0x00\n      swap1\n      sload\n      swap1\n      0x0100\n      exp\n      swap1\n      div\n      0xffffffffffffffffffffffffffffffffffffffff\n      and\n        /* \"test.sol\":1925:1951  msg.sender != agent.seller */\n      0xffffffffffffffffffffffffffffffffffffffff\n      and\n        /* \"test.sol\":1925:1935  msg.sender */\n      caller\n        /* \"test.sol\":1925:1951  msg.sender != agent.seller */\n      0xffffffffffffffffffffffffffffffffffffffff\n      and\n      sub\n        /* \"test.sol\":1917:1981  require(msg.sender != agent.seller, \"Cannot buy your own agent\") */\n      tag_78\n      jumpi\n      mload(0x40)\n      0x08c379a000000000000000000000000000000000000000000000000000000000\n      dup2\n      mstore\n      0x04\n      add\n      tag_79\n      swap1\n      tag_80\n      jump\t// in\n    tag_79:\n      mload(0x40)\n      dup1\n      swap2\n      sub\n      swap1\n      revert\n    tag_78:\n        /* \"test.sol\":1992:2011  uint256 platformFee */\n      0x00\n        /* \"test.sol\":2051:2055  1000 */\n      0x03e8\n        /* \"test.sol\":2029:2047  platformFeePercent */\n      sload(0x02)\n        /* \"test.sol\":2015:2020  agent */\n      dup4\n        /* \"test.sol\":2015:2026  agent.price */\n      0x01\n      add\n      sload\n        /* \"test.sol\":2015:2047  agent.price * platformFeePercent */\n      tag_81\n      swap2\n      swap1\n      tag_82\n      jump\t// in\n    tag_81:\n        /* \"test.sol\":2014:2055  (agent.price * platformFeePercent) / 1000 */\n      tag_83\n      swap2\n      swap1\n      tag_84\n      jump\t// in\n    tag_83:\n        /* \"test.sol\":1992:2055  uint256 platformFee = (agent.price * platformFeePercent) / 1000 */\n      swap1\n      pop\n        /* \"test.sol\":2065:2085  uint256 sellerAmount */\n      0x00\n        /* \"test.sol\":2102:2113  platformFee */\n      dup2\n        /* \"test.sol\":2088:2093  agent */\n      dup4\n        /* \"test.sol\":2088:2099  agent.price */\n      0x01\n      add\n      sload\n        /* \"test.sol\":2088:2113  agent.price - platformFee */\n      tag_85\n      swap2\n      swap1\n      tag_86\n      jump\t// in\n    tag_85:\n        /* \"test.sol\":2065:2113  uint256 sellerAmount = agent.price - platformFee */\n      swap1\n      pop\n        /* \"test.sol\":2165:2173  mktToken */\n      0x03\n      0x00\n      swap1\n      sload\n      swap1\n      0x0100\n      exp\n      swap1\n      div\n      0xffffffffffffffffffffffffffffffffffffffff\n      and\n        /* \"test.sol\":2165:2186  mktToken.transferFrom */\n      0xffffffffffffffffffffffffffffffffffffffff\n      and\n      0x23b872dd\n        /* \"test.sol\":2187:2197  msg.sender */\n      caller\n        /* \"test.sol\":2199:2213  platformWallet */\n      0x01\n      0x00\n      swap1\n      sload\n      swap1\n      0x0100\n      exp\n      swap1\n      div\n      0xffffffffffffffffffffffffffffffffffffffff\n      and\n        /* \"test.sol\":2215:2226  platformFee */\n      dup6\n        /* \"test.sol\":2165:2227  mktToken.transferFrom(msg.sender, platformWallet, platformFee) */\n      mload(0x40)\n      dup5\n      0xffffffff\n      and\n      0xe0\n      shl\n      dup2\n      mstore\n      0x04\n      add\n      tag_87\n      swap4\n      swap3\n      swap2\n      swap1\n      tag_88\n      jump\t// in\n    tag_87:\n      0x20\n      mload(0x40)\n      dup1\n      dup4\n      sub\n      dup2\n      0x00\n      dup8\n      gas\n      call\n      iszero\n      dup1\n      iszero\n      tag_90\n      jumpi\n      returndatasize\n      0x00\n      dup1\n      returndatacopy\n      revert(0x00, returndatasize)\n    tag_90:\n      pop\n      pop\n      pop\n      pop\n      mload(0x40)\n      returndatasize\n      not(0x1f)\n      0x1f\n      dup3\n      add\n      and\n      dup3\n      add\n      dup1\n      0x40\n      mstore\n      pop\n      dup2\n      add\n      swap1\n      tag_91\n      swap2\n      swap1\n      tag_92\n      jump\t// in\n    tag_91:\n        /* \"test.sol\":2157:2260  require(mktToken.transferFrom(msg.sender, platformWallet, platformFee), \"Platform fee transfer failed\") */\n      tag_93\n      jumpi\n      mload(0x40)\n      0x08c379a000000000000000000000000000000000000000000000000000000000\n      dup2\n      mstore\n      0x04\n      add\n      tag_94\n      swap1\n      tag_95\n      jump\t// in\n    tag_94:\n      mload(0x40)\n      dup1\n      swap2\n      sub\n      swap1\n      revert\n    tag_93:\n        /* \"test.sol\":2324:2332  mktToken */\n      0x03\n      0x00\n      swap1\n      sload\n      swap1\n      0x0100\n      exp\n      swap1\n      div\n      0xffffffffffffffffffffffffffffffffffffffff\n      and\n        /* \"test.sol\":2324:2345  mktToken.transferFrom */\n      0xffffffffffffffffffffffffffffffffffffffff\n      and\n      0x23b872dd\n        /* \"test.sol\":2346:2356  msg.sender */\n      caller\n        /* \"test.sol\":2358:2363  agent */\n      dup6\n        /* \"test.sol\":2358:2370  agent.seller */\n      0x00\n      add\n      0x00\n      swap1\n      sload\n      swap1\n      0x0100\n      exp\n      swap1\n      div\n      0xffffffffffffffffffffffffffffffffffffffff\n      and\n        /* \"test.sol\":2372:2384  sellerAmount */\n      dup5\n        /* \"test.sol\":2324:2385  mktToken.transferFrom(msg.sender, agent.seller, sellerAmount) */\n      mload(0x40)\n      dup5\n      0xffffffff\n      and\n      0xe0\n      shl\n      dup2\n      mstore\n      0x04\n      add\n      tag_96\n      swap4\n      swap3\n      swap2\n      swap1\n      tag_88\n      jump\t// in\n    tag_96:\n      0x20\n      mload(0x40)\n      dup1\n      dup4\n      sub\n      dup2\n      0x00\n      dup8\n      gas\n      call\n      iszero\n      dup1\n      iszero\n      tag_98\n      jumpi\n      returndatasize\n      0x00\n      dup1\n      returndatacopy\n      revert(0x00, returndatasize)\n    tag_98:\n      pop\n      pop\n      pop\n      pop\n      mload(0x40)\n      returndatasize\n      not(0x1f)\n      0x1f\n      dup3\n      add\n      and\n      dup3\n      add\n      dup1\n      0x40\n      mstore\n      pop\n      dup2\n      add\n      swap1\n      tag_99\n      swap2\n      swap1\n      tag_92\n      jump\t// in\n    tag_99:\n        /* \"test.sol\":2316:2412  require(mktToken.transferFrom(msg.sender, agent.seller, sellerAmount), \"Seller transfer failed\") */\n      tag_100\n      jumpi\n      mload(0x40)\n      0x08c379a000000000000000000000000000000000000000000000000000000000\n      dup2\n      mstore\n      0x04\n      add\n      tag_101\n      swap1\n      tag_102\n      jump\t// in\n    tag_101:\n      mload(0x40)\n      dup1\n      swap2\n      sub\n      swap1\n      revert\n    tag_100:\n        /* \"test.sol\":2443:2450  agentId */\n      dup4\n        /* \"test.sol\":2428:2476  AgentPurchased(agentId, msg.sender, agent.price) */\n      0xe53cfc2fcaa7beb2b2b6fe1a55c9bdfbe04dbafc568d0819627fd852ea2863ed\n        /* \"test.sol\":2452:2462  msg.sender */\n      caller\n        /* \"test.sol\":2464:2469  agent */\n      dup6\n        /* \"test.sol\":2464:2475  agent.price */\n      0x01\n      add\n      sload\n        /* \"test.sol\":2428:2476  AgentPurchased(agentId, msg.sender, agent.price) */\n      mload(0x40)\n      tag_103\n      swap3\n      swap2\n      swap1\n      tag_104\n      jump\t// in\n    tag_103:\n      mload(0x40)\n      dup1\n      swap2\n      sub\n      swap1\n      log2\n        /* \"test.sol\":2557:2562  false */\n      0x00\n        /* \"test.sol\":2540:2545  agent */\n      dup4\n        /* \"test.sol\":2540:2554  agent.isListed */\n      0x02\n      add\n      0x00\n        /* \"test.sol\":2540:2562  agent.isListed = false */\n      0x0100\n      exp\n      dup2\n      sload\n      dup2\n      0xff\n      mul\n      not\n      and\n      swap1\n      dup4\n      iszero\n      iszero\n      mul\n      or\n      swap1\n      sstore\n      pop\n        /* \"test.sol\":1807:2569  {... */\n      pop\n      pop\n      pop\n        /* \"test.sol\":1763:2569  function buyAgent(uint256 agentId) external {... */\n      pop\n      jump\t// out\n        /* \"#utility.yul\":7:84   */\n    tag_105:\n        /* \"#utility.yul\":44:51   */\n      0x00\n        /* \"#utility.yul\":73:78   */\n      dup2\n        /* \"#utility.yul\":62:78   */\n      swap1\n      pop\n        /* \"#utility.yul\":7:84   */\n      swap2\n      swap1\n      pop\n      jump\t// out\n        /* \"#utility.yul\":90:208   */\n    tag_106:\n        /* \"#utility.yul\":177:201   */\n      tag_170\n        /* \"#utility.yul\":195:200   */\n      dup2\n        /* \"#utility.yul\":177:201   */\n      tag_105\n      jump\t// in\n    tag_170:\n        /* \"#utility.yul\":172:175   */\n      dup3\n        /* \"#utility.yul\":165:202   */\n      mstore\n        /* \"#utility.yul\":90:208   */\n      pop\n      pop\n      jump\t// out\n        /* \"#utility.yul\":214:436   */\n    tag_16:\n        /* \"#utility.yul\":307:311   */\n      0x00\n        /* \"#utility.yul\":345:347   */\n      0x20\n        /* \"#utility.yul\":334:343   */\n      dup3\n        /* \"#utility.yul\":330:348   */\n      add\n        /* \"#utility.yul\":322:348   */\n      swap1\n      pop\n        /* \"#utility.yul\":358:429   */\n      tag_172\n        /* \"#utility.yul\":426:427   */\n      0x00\n        /* \"#utility.yul\":415:424   */\n      dup4\n        /* \"#utility.yul\":411:428   */\n      add\n        /* \"#utility.yul\":402:408   */\n      dup5\n        /* \"#utility.yul\":358:429   */\n      tag_106\n      jump\t// in\n    tag_172:\n        /* \"#utility.yul\":214:436   */\n      swap3\n      swap2\n      pop\n      pop\n      jump\t// out\n        /* \"#utility.yul\":442:517   */\n    tag_107:\n        /* \"#utility.yul\":475:481   */\n      0x00\n        /* \"#utility.yul\":508:510   */\n      0x40\n        /* \"#utility.yul\":502:511   */\n      mload\n        /* \"#utility.yul\":492:511   */\n      swap1\n      pop\n        /* \"#utility.yul\":442:517   */\n      swap1\n      jump\t// out\n        /* \"#utility.yul\":523:640   */\n    tag_108:\n        /* \"#utility.yul\":632:633   */\n      0x00\n        /* \"#utility.yul\":629:630   */\n      dup1\n        /* \"#utility.yul\":622:634   */\n      revert\n        /* \"#utility.yul\":646:763   */\n    tag_109:\n        /* \"#utility.yul\":755:756   */\n      0x00\n        /* \"#utility.yul\":752:753   */\n      dup1\n        /* \"#utility.yul\":745:757   */\n      revert\n        /* \"#utility.yul\":769:891   */\n    tag_110:\n        /* \"#utility.yul\":842:866   */\n      tag_177\n        /* \"#utility.yul\":860:865   */\n      dup2\n        /* \"#utility.yul\":842:866   */\n      tag_105\n      jump\t// in\n    tag_177:\n        /* \"#utility.yul\":835:840   */\n      dup2\n        /* \"#utility.yul\":832:867   */\n      eq\n        /* \"#utility.yul\":822:885   */\n      tag_178\n      jumpi\n        /* \"#utility.yul\":881:882   */\n      0x00\n        /* \"#utility.yul\":878:879   */\n      dup1\n        /* \"#utility.yul\":871:883   */\n      revert\n        /* \"#utility.yul\":822:885   */\n    tag_178:\n        /* \"#utility.yul\":769:891   */\n      pop\n      jump\t// out\n        /* \"#utility.yul\":897:1036   */\n    tag_111:\n        /* \"#utility.yul\":943:948   */\n      0x00\n        /* \"#utility.yul\":981:987   */\n      dup2\n        /* \"#utility.yul\":968:988   */\n      calldataload\n        /* \"#utility.yul\":959:988   */\n      swap1\n      pop\n        /* \"#utility.yul\":997:1030   */\n      tag_180\n        /* \"#utility.yul\":1024:1029   */\n      dup2\n        /* \"#utility.yul\":997:1030   */\n      tag_110\n      jump\t// in\n    tag_180:\n        /* \"#utility.yul\":897:1036   */\n      swap3\n      swap2\n      pop\n      pop\n      jump\t// out\n        /* \"#utility.yul\":1042:1159   */\n    tag_112:\n        /* \"#utility.yul\":1151:1152   */\n      0x00\n        /* \"#utility.yul\":1148:1149   */\n      dup1\n        /* \"#utility.yul\":1141:1153   */\n      revert\n        /* \"#utility.yul\":1165:1282   */\n    tag_113:\n        /* \"#utility.yul\":1274:1275   */\n      0x00\n        /* \"#utility.yul\":1271:1272   */\n      dup1\n        /* \"#utility.yul\":1264:1276   */\n      revert\n        /* \"#utility.yul\":1288:1390   */\n    tag_114:\n        /* \"#utility.yul\":1329:1335   */\n      0x00\n        /* \"#utility.yul\":1380:1382   */\n      0x1f\n        /* \"#utility.yul\":1376:1383   */\n      not\n        /* \"#utility.yul\":1371:1373   */\n      0x1f\n        /* \"#utility.yul\":1364:1369   */\n      dup4\n        /* \"#utility.yul\":1360:1374   */\n      add\n        /* \"#utility.yul\":1356:1384   */\n      and\n        /* \"#utility.yul\":1346:1384   */\n      swap1\n      pop\n        /* \"#utility.yul\":1288:1390   */\n      swap2\n      swap1\n      pop\n      jump\t// out\n        /* \"#utility.yul\":1396:1576   */\n    tag_115:\n        /* \"#utility.yul\":1444:1521   */\n      0x4e487b7100000000000000000000000000000000000000000000000000000000\n        /* \"#utility.yul\":1441:1442   */\n      0x00\n        /* \"#utility.yul\":1434:1522   */\n      mstore\n        /* \"#utility.yul\":1541:1545   */\n      0x41\n        /* \"#utility.yul\":1538:1539   */\n      0x04\n        /* \"#utility.yul\":1531:1546   */\n      mstore\n        /* \"#utility.yul\":1565:1569   */\n      0x24\n        /* \"#utility.yul\":1562:1563   */\n      0x00\n        /* \"#utility.yul\":1555:1570   */\n      revert\n        /* \"#utility.yul\":1582:1863   */\n    tag_116:\n        /* \"#utility.yul\":1665:1692   */\n      tag_186\n        /* \"#utility.yul\":1687:1691   */\n      dup3\n        /* \"#utility.yul\":1665:1692   */\n      tag_114\n      jump\t// in\n    tag_186:\n        /* \"#utility.yul\":1657:1663   */\n      dup2\n        /* \"#utility.yul\":1653:1693   */\n      add\n        /* \"#utility.yul\":1795:1801   */\n      dup2\n        /* \"#utility.yul\":1783:1793   */\n      dup2\n        /* \"#utility.yul\":1780:1802   */\n      lt\n        /* \"#utility.yul\":1759:1777   */\n      0xffffffffffffffff\n        /* \"#utility.yul\":1747:1757   */\n      dup3\n        /* \"#utility.yul\":1744:1778   */\n      gt\n        /* \"#utility.yul\":1741:1803   */\n      or\n        /* \"#utility.yul\":1738:1826   */\n      iszero\n      tag_187\n      jumpi\n        /* \"#utility.yul\":1806:1824   */\n      tag_188\n      tag_115\n      jump\t// in\n    tag_188:\n        /* \"#utility.yul\":1738:1826   */\n    tag_187:\n        /* \"#utility.yul\":1846:1856   */\n      dup1\n        /* \"#utility.yul\":1842:1844   */\n      0x40\n        /* \"#utility.yul\":1835:1857   */\n      mstore\n        /* \"#utility.yul\":1625:1863   */\n      pop\n        /* \"#utility.yul\":1582:1863   */\n      pop\n      pop\n      jump\t// out\n        /* \"#utility.yul\":1869:1998   */\n    tag_117:\n        /* \"#utility.yul\":1903:1909   */\n      0x00\n        /* \"#utility.yul\":1930:1950   */\n      tag_190\n      tag_107\n      jump\t// in\n    tag_190:\n        /* \"#utility.yul\":1920:1950   */\n      swap1\n      pop\n        /* \"#utility.yul\":1959:1992   */\n      tag_191\n        /* \"#utility.yul\":1987:1991   */\n      dup3\n        /* \"#utility.yul\":1979:1985   */\n      dup3\n        /* \"#utility.yul\":1959:1992   */\n      tag_116\n      jump\t// in\n    tag_191:\n        /* \"#utility.yul\":1869:1998   */\n      swap2\n      swap1\n      pop\n      jump\t// out\n        /* \"#utility.yul\":2004:2312   */\n    tag_118:\n        /* \"#utility.yul\":2066:2070   */\n      0x00\n        /* \"#utility.yul\":2156:2174   */\n      0xffffffffffffffff\n        /* \"#utility.yul\":2148:2154   */\n      dup3\n        /* \"#utility.yul\":2145:2175   */\n      gt\n        /* \"#utility.yul\":2142:2198   */\n      iszero\n      tag_193\n      jumpi\n        /* \"#utility.yul\":2178:2196   */\n      tag_194\n      tag_115\n      jump\t// in\n    tag_194:\n        /* \"#utility.yul\":2142:2198   */\n    tag_193:\n        /* \"#utility.yul\":2216:2245   */\n      tag_195\n        /* \"#utility.yul\":2238:2244   */\n      dup3\n        /* \"#utility.yul\":2216:2245   */\n      tag_114\n      jump\t// in\n    tag_195:\n        /* \"#utility.yul\":2208:2245   */\n      swap1\n      pop\n        /* \"#utility.yul\":2300:2304   */\n      0x20\n        /* \"#utility.yul\":2294:2298   */\n      dup2\n        /* \"#utility.yul\":2290:2305   */\n      add\n        /* \"#utility.yul\":2282:2305   */\n      swap1\n      pop\n        /* \"#utility.yul\":2004:2312   */\n      swap2\n      swap1\n      pop\n      jump\t// out\n        /* \"#utility.yul\":2318:2466   */\n    tag_119:\n        /* \"#utility.yul\":2416:2422   */\n      dup3\n        /* \"#utility.yul\":2411:2414   */\n      dup2\n        /* \"#utility.yul\":2406:2409   */\n      dup4\n        /* \"#utility.yul\":2393:2423   */\n      calldatacopy\n        /* \"#utility.yul\":2457:2458   */\n      0x00\n        /* \"#utility.yul\":2448:2454   */\n      dup4\n        /* \"#utility.yul\":2443:2446   */\n      dup4\n        /* \"#utility.yul\":2439:2455   */\n      add\n        /* \"#utility.yul\":2432:2459   */\n      mstore\n        /* \"#utility.yul\":2318:2466   */\n      pop\n      pop\n      pop\n      jump\t// out\n        /* \"#utility.yul\":2472:2897   */\n    tag_120:\n        /* \"#utility.yul\":2550:2555   */\n      0x00\n        /* \"#utility.yul\":2575:2641   */\n      tag_198\n        /* \"#utility.yul\":2591:2640   */\n      tag_199\n        /* \"#utility.yul\":2633:2639   */\n      dup5\n        /* \"#utility.yul\":2591:2640   */\n      tag_118\n      jump\t// in\n    tag_199:\n        /* \"#utility.yul\":2575:2641   */\n      tag_117\n      jump\t// in\n    tag_198:\n        /* \"#utility.yul\":2566:2641   */\n      swap1\n      pop\n        /* \"#utility.yul\":2664:2670   */\n      dup3\n        /* \"#utility.yul\":2657:2662   */\n      dup2\n        /* \"#utility.yul\":2650:2671   */\n      mstore\n        /* \"#utility.yul\":2702:2706   */\n      0x20\n        /* \"#utility.yul\":2695:2700   */\n      dup2\n        /* \"#utility.yul\":2691:2707   */\n      add\n        /* \"#utility.yul\":2740:2743   */\n      dup5\n        /* \"#utility.yul\":2731:2737   */\n      dup5\n        /* \"#utility.yul\":2726:2729   */\n      dup5\n        /* \"#utility.yul\":2722:2738   */\n      add\n        /* \"#utility.yul\":2719:2744   */\n      gt\n        /* \"#utility.yul\":2716:2828   */\n      iszero\n      tag_200\n      jumpi\n        /* \"#utility.yul\":2747:2826   */\n      tag_201\n      tag_113\n      jump\t// in\n    tag_201:\n        /* \"#utility.yul\":2716:2828   */\n    tag_200:\n        /* \"#utility.yul\":2837:2891   */\n      tag_202\n        /* \"#utility.yul\":2884:2890   */\n      dup5\n        /* \"#utility.yul\":2879:2882   */\n      dup3\n        /* \"#utility.yul\":2874:2877   */\n      dup6\n        /* \"#utility.yul\":2837:2891   */\n      tag_119\n      jump\t// in\n    tag_202:\n        /* \"#utility.yul\":2556:2897   */\n      pop\n        /* \"#utility.yul\":2472:2897   */\n      swap4\n      swap3\n      pop\n      pop\n      pop\n      jump\t// out\n        /* \"#utility.yul\":2917:3257   */\n    tag_121:\n        /* \"#utility.yul\":2973:2978   */\n      0x00\n        /* \"#utility.yul\":3022:3025   */\n      dup3\n        /* \"#utility.yul\":3015:3019   */\n      0x1f\n        /* \"#utility.yul\":3007:3013   */\n      dup4\n        /* \"#utility.yul\":3003:3020   */\n      add\n        /* \"#utility.yul\":2999:3026   */\n      slt\n        /* \"#utility.yul\":2989:3111   */\n      tag_204\n      jumpi\n        /* \"#utility.yul\":3030:3109   */\n      tag_205\n      tag_112\n      jump\t// in\n    tag_205:\n        /* \"#utility.yul\":2989:3111   */\n    tag_204:\n        /* \"#utility.yul\":3147:3153   */\n      dup2\n        /* \"#utility.yul\":3134:3154   */\n      calldataload\n        /* \"#utility.yul\":3172:3251   */\n      tag_206\n        /* \"#utility.yul\":3247:3250   */\n      dup5\n        /* \"#utility.yul\":3239:3245   */\n      dup3\n        /* \"#utility.yul\":3232:3236   */\n      0x20\n        /* \"#utility.yul\":3224:3230   */\n      dup7\n        /* \"#utility.yul\":3220:3237   */\n      add\n        /* \"#utility.yul\":3172:3251   */\n      tag_120\n      jump\t// in\n    tag_206:\n        /* \"#utility.yul\":3163:3251   */\n      swap2\n      pop\n        /* \"#utility.yul\":2979:3257   */\n      pop\n        /* \"#utility.yul\":2917:3257   */\n      swap3\n      swap2\n      pop\n      pop\n      jump\t// out\n        /* \"#utility.yul\":3263:3917   */\n    tag_19:\n        /* \"#utility.yul\":3341:3347   */\n      0x00\n        /* \"#utility.yul\":3349:3355   */\n      dup1\n        /* \"#utility.yul\":3398:3400   */\n      0x40\n        /* \"#utility.yul\":3386:3395   */\n      dup4\n        /* \"#utility.yul\":3377:3384   */\n      dup6\n        /* \"#utility.yul\":3373:3396   */\n      sub\n        /* \"#utility.yul\":3369:3401   */\n      slt\n        /* \"#utility.yul\":3366:3485   */\n      iszero\n      tag_208\n      jumpi\n        /* \"#utility.yul\":3404:3483   */\n      tag_209\n      tag_108\n      jump\t// in\n    tag_209:\n        /* \"#utility.yul\":3366:3485   */\n    tag_208:\n        /* \"#utility.yul\":3524:3525   */\n      0x00\n        /* \"#utility.yul\":3549:3602   */\n      tag_210\n        /* \"#utility.yul\":3594:3601   */\n      dup6\n        /* \"#utility.yul\":3585:3591   */\n      dup3\n        /* \"#utility.yul\":3574:3583   */\n      dup7\n        /* \"#utility.yul\":3570:3592   */\n      add\n        /* \"#utility.yul\":3549:3602   */\n      tag_111\n      jump\t// in\n    tag_210:\n        /* \"#utility.yul\":3539:3602   */\n      swap3\n      pop\n        /* \"#utility.yul\":3495:3612   */\n      pop\n        /* \"#utility.yul\":3679:3681   */\n      0x20\n        /* \"#utility.yul\":3668:3677   */\n      dup4\n        /* \"#utility.yul\":3664:3682   */\n      add\n        /* \"#utility.yul\":3651:3683   */\n      calldataload\n        /* \"#utility.yul\":3710:3728   */\n      0xffffffffffffffff\n        /* \"#utility.yul\":3702:3708   */\n      dup2\n        /* \"#utility.yul\":3699:3729   */\n      gt\n        /* \"#utility.yul\":3696:3813   */\n      iszero\n      tag_211\n      jumpi\n        /* \"#utility.yul\":3732:3811   */\n      tag_212\n      tag_109\n      jump\t// in\n    tag_212:\n        /* \"#utility.yul\":3696:3813   */\n    tag_211:\n        /* \"#utility.yul\":3837:3900   */\n      tag_213\n        /* \"#utility.yul\":3892:3899   */\n      dup6\n        /* \"#utility.yul\":3883:3889   */\n      dup3\n        /* \"#utility.yul\":3872:3881   */\n      dup7\n        /* \"#utility.yul\":3868:3890   */\n      add\n        /* \"#utility.yul\":3837:3900   */\n      tag_121\n      jump\t// in\n    tag_213:\n        /* \"#utility.yul\":3827:3900   */\n      swap2\n      pop\n        /* \"#utility.yul\":3622:3910   */\n      pop\n        /* \"#utility.yul\":3263:3917   */\n      swap3\n      pop\n      swap3\n      swap1\n      pop\n      jump\t// out\n        /* \"#utility.yul\":3923:4252   */\n    tag_24:\n        /* \"#utility.yul\":3982:3988   */\n      0x00\n        /* \"#utility.yul\":4031:4033   */\n      0x20\n        /* \"#utility.yul\":4019:4028   */\n      dup3\n        /* \"#utility.yul\":4010:4017   */\n      dup5\n        /* \"#utility.yul\":4006:4029   */\n      sub\n        /* \"#utility.yul\":4002:4034   */\n      slt\n        /* \"#utility.yul\":3999:4118   */\n      iszero\n      tag_215\n      jumpi\n        /* \"#utility.yul\":4037:4116   */\n      tag_216\n      tag_108\n      jump\t// in\n    tag_216:\n        /* \"#utility.yul\":3999:4118   */\n    tag_215:\n        /* \"#utility.yul\":4157:4158   */\n      0x00\n        /* \"#utility.yul\":4182:4235   */\n      tag_217\n        /* \"#utility.yul\":4227:4234   */\n      dup5\n        /* \"#utility.yul\":4218:4224   */\n      dup3\n        /* \"#utility.yul\":4207:4216   */\n      dup6\n        /* \"#utility.yul\":4203:4225   */\n      add\n        /* \"#utility.yul\":4182:4235   */\n      tag_111\n      jump\t// in\n    tag_217:\n        /* \"#utility.yul\":4172:4235   */\n      swap2\n      pop\n        /* \"#utility.yul\":4128:4245   */\n      pop\n        /* \"#utility.yul\":3923:4252   */\n      swap3\n      swap2\n      pop\n      pop\n      jump\t// out\n        /* \"#utility.yul\":4258:4384   */\n    tag_122:\n        /* \"#utility.yul\":4295:4302   */\n      0x00\n        /* \"#utility.yul\":4335:4377   */\n      0xffffffffffffffffffffffffffffffffffffffff\n        /* \"#utility.yul\":4328:4333   */\n      dup3\n        /* \"#utility.yul\":4324:4378   */\n      and\n        /* \"#utility.yul\":4313:4378   */\n      swap1\n      pop\n        /* \"#utility.yul\":4258:4384   */\n      swap2\n      swap1\n      pop\n      jump\t// out\n        /* \"#utility.yul\":4390:4486   */\n    tag_123:\n        /* \"#utility.yul\":4427:4434   */\n      0x00\n        /* \"#utility.yul\":4456:4480   */\n      tag_220\n        /* \"#utility.yul\":4474:4479   */\n      dup3\n        /* \"#utility.yul\":4456:4480   */\n      tag_122\n      jump\t// in\n    tag_220:\n        /* \"#utility.yul\":4445:4480   */\n      swap1\n      pop\n        /* \"#utility.yul\":4390:4486   */\n      swap2\n      swap1\n      pop\n      jump\t// out\n        /* \"#utility.yul\":4492:4610   */\n    tag_124:\n        /* \"#utility.yul\":4579:4603   */\n      tag_222\n        /* \"#utility.yul\":4597:4602   */\n      dup2\n        /* \"#utility.yul\":4579:4603   */\n      tag_123\n      jump\t// in\n    tag_222:\n        /* \"#utility.yul\":4574:4577   */\n      dup3\n        /* \"#utility.yul\":4567:4604   */\n      mstore\n        /* \"#utility.yul\":4492:4610   */\n      pop\n      pop\n      jump\t// out\n        /* \"#utility.yul\":4616:4706   */\n    tag_125:\n        /* \"#utility.yul\":4650:4657   */\n      0x00\n        /* \"#utility.yul\":4693:4698   */\n      dup2\n        /* \"#utility.yul\":4686:4699   */\n      iszero\n        /* \"#utility.yul\":4679:4700   */\n      iszero\n        /* \"#utility.yul\":4668:4700   */\n      swap1\n      pop\n        /* \"#utility.yul\":4616:4706   */\n      swap2\n      swap1\n      pop\n      jump\t// out\n        /* \"#utility.yul\":4712:4821   */\n    tag_126:\n        /* \"#utility.yul\":4793:4814   */\n      tag_225\n        /* \"#utility.yul\":4808:4813   */\n      dup2\n        /* \"#utility.yul\":4793:4814   */\n      tag_125\n      jump\t// in\n    tag_225:\n        /* \"#utility.yul\":4788:4791   */\n      dup3\n        /* \"#utility.yul\":4781:4815   */\n      mstore\n        /* \"#utility.yul\":4712:4821   */\n      pop\n      pop\n      jump\t// out\n        /* \"#utility.yul\":4827:4926   */\n    tag_127:\n        /* \"#utility.yul\":4879:4885   */\n      0x00\n        /* \"#utility.yul\":4913:4918   */\n      dup2\n        /* \"#utility.yul\":4907:4919   */\n      mload\n        /* \"#utility.yul\":4897:4919   */\n      swap1\n      pop\n        /* \"#utility.yul\":4827:4926   */\n      swap2\n      swap1\n      pop\n      jump\t// out\n        /* \"#utility.yul\":4932:5101   */\n    tag_128:\n        /* \"#utility.yul\":5016:5027   */\n      0x00\n        /* \"#utility.yul\":5050:5056   */\n      dup3\n        /* \"#utility.yul\":5045:5048   */\n      dup3\n        /* \"#utility.yul\":5038:5057   */\n      mstore\n        /* \"#utility.yul\":5090:5094   */\n      0x20\n        /* \"#utility.yul\":5085:5088   */\n      dup3\n        /* \"#utility.yul\":5081:5095   */\n      add\n        /* \"#utility.yul\":5066:5095   */\n      swap1\n      pop\n        /* \"#utility.yul\":4932:5101   */\n      swap3\n      swap2\n      pop\n      pop\n      jump\t// out\n        /* \"#utility.yul\":5107:5246   */\n    tag_129:\n        /* \"#utility.yul\":5196:5202   */\n      dup3\n        /* \"#utility.yul\":5191:5194   */\n      dup2\n        /* \"#utility.yul\":5186:5189   */\n      dup4\n        /* \"#utility.yul\":5180:5203   */\n      mcopy\n        /* \"#utility.yul\":5237:5238   */\n      0x00\n        /* \"#utility.yul\":5228:5234   */\n      dup4\n        /* \"#utility.yul\":5223:5226   */\n      dup4\n        /* \"#utility.yul\":5219:5235   */\n      add\n        /* \"#utility.yul\":5212:5239   */\n      mstore\n        /* \"#utility.yul\":5107:5246   */\n      pop\n      pop\n      pop\n      jump\t// out\n        /* \"#utility.yul\":5252:5629   */\n    tag_130:\n        /* \"#utility.yul\":5340:5343   */\n      0x00\n        /* \"#utility.yul\":5368:5407   */\n      tag_230\n        /* \"#utility.yul\":5401:5406   */\n      dup3\n        /* \"#utility.yul\":5368:5407   */\n      tag_127\n      jump\t// in\n    tag_230:\n        /* \"#utility.yul\":5423:5494   */\n      tag_231\n        /* \"#utility.yul\":5487:5493   */\n      dup2\n        /* \"#utility.yul\":5482:5485   */\n      dup6\n        /* \"#utility.yul\":5423:5494   */\n      tag_128\n      jump\t// in\n    tag_231:\n        /* \"#utility.yul\":5416:5494   */\n      swap4\n      pop\n        /* \"#utility.yul\":5503:5568   */\n      tag_232\n        /* \"#utility.yul\":5561:5567   */\n      dup2\n        /* \"#utility.yul\":5556:5559   */\n      dup6\n        /* \"#utility.yul\":5549:5553   */\n      0x20\n        /* \"#utility.yul\":5542:5547   */\n      dup7\n        /* \"#utility.yul\":5538:5554   */\n      add\n        /* \"#utility.yul\":5503:5568   */\n      tag_129\n      jump\t// in\n    tag_232:\n        /* \"#utility.yul\":5593:5622   */\n      tag_233\n        /* \"#utility.yul\":5615:5621   */\n      dup2\n        /* \"#utility.yul\":5593:5622   */\n      tag_114\n      jump\t// in\n    tag_233:\n        /* \"#utility.yul\":5588:5591   */\n      dup5\n        /* \"#utility.yul\":5584:5623   */\n      add\n        /* \"#utility.yul\":5577:5623   */\n      swap2\n      pop\n        /* \"#utility.yul\":5344:5629   */\n      pop\n        /* \"#utility.yul\":5252:5629   */\n      swap3\n      swap2\n      pop\n      pop\n      jump\t// out\n        /* \"#utility.yul\":5635:6267   */\n    tag_27:\n        /* \"#utility.yul\":5826:5830   */\n      0x00\n        /* \"#utility.yul\":5864:5867   */\n      0x80\n        /* \"#utility.yul\":5853:5862   */\n      dup3\n        /* \"#utility.yul\":5849:5868   */\n      add\n        /* \"#utility.yul\":5841:5868   */\n      swap1\n      pop\n        /* \"#utility.yul\":5878:5949   */\n      tag_235\n        /* \"#utility.yul\":5946:5947   */\n      0x00\n        /* \"#utility.yul\":5935:5944   */\n      dup4\n        /* \"#utility.yul\":5931:5948   */\n      add\n        /* \"#utility.yul\":5922:5928   */\n      dup8\n        /* \"#utility.yul\":5878:5949   */\n      tag_124\n      jump\t// in\n    tag_235:\n        /* \"#utility.yul\":5959:6031   */\n      tag_236\n        /* \"#utility.yul\":6027:6029   */\n      0x20\n        /* \"#utility.yul\":6016:6025   */\n      dup4\n        /* \"#utility.yul\":6012:6030   */\n      add\n        /* \"#utility.yul\":6003:6009   */\n      dup7\n        /* \"#utility.yul\":5959:6031   */\n      tag_106\n      jump\t// in\n    tag_236:\n        /* \"#utility.yul\":6041:6107   */\n      tag_237\n        /* \"#utility.yul\":6103:6105   */\n      0x40\n        /* \"#utility.yul\":6092:6101   */\n      dup4\n        /* \"#utility.yul\":6088:6106   */\n      add\n        /* \"#utility.yul\":6079:6085   */\n      dup6\n        /* \"#utility.yul\":6041:6107   */\n      tag_126\n      jump\t// in\n    tag_237:\n        /* \"#utility.yul\":6154:6163   */\n      dup2\n        /* \"#utility.yul\":6148:6152   */\n      dup2\n        /* \"#utility.yul\":6144:6164   */\n      sub\n        /* \"#utility.yul\":6139:6141   */\n      0x60\n        /* \"#utility.yul\":6128:6137   */\n      dup4\n        /* \"#utility.yul\":6124:6142   */\n      add\n        /* \"#utility.yul\":6117:6165   */\n      mstore\n        /* \"#utility.yul\":6182:6260   */\n      tag_238\n        /* \"#utility.yul\":6255:6259   */\n      dup2\n        /* \"#utility.yul\":6246:6252   */\n      dup5\n        /* \"#utility.yul\":6182:6260   */\n      tag_130\n      jump\t// in\n    tag_238:\n        /* \"#utility.yul\":6174:6260   */\n      swap1\n      pop\n        /* \"#utility.yul\":5635:6267   */\n      swap6\n      swap5\n      pop\n      pop\n      pop\n      pop\n      pop\n      jump\t// out\n        /* \"#utility.yul\":6273:6333   */\n    tag_131:\n        /* \"#utility.yul\":6301:6304   */\n      0x00\n        /* \"#utility.yul\":6322:6327   */\n      dup2\n        /* \"#utility.yul\":6315:6327   */\n      swap1\n      pop\n        /* \"#utility.yul\":6273:6333   */\n      swap2\n      swap1\n      pop\n      jump\t// out\n        /* \"#utility.yul\":6339:6481   */\n    tag_132:\n        /* \"#utility.yul\":6389:6398   */\n      0x00\n        /* \"#utility.yul\":6422:6475   */\n      tag_241\n        /* \"#utility.yul\":6440:6474   */\n      tag_242\n        /* \"#utility.yul\":6449:6473   */\n      tag_243\n        /* \"#utility.yul\":6467:6472   */\n      dup5\n        /* \"#utility.yul\":6449:6473   */\n      tag_122\n      jump\t// in\n    tag_243:\n        /* \"#utility.yul\":6440:6474   */\n      tag_131\n      jump\t// in\n    tag_242:\n        /* \"#utility.yul\":6422:6475   */\n      tag_122\n      jump\t// in\n    tag_241:\n        /* \"#utility.yul\":6409:6475   */\n      swap1\n      pop\n        /* \"#utility.yul\":6339:6481   */\n      swap2\n      swap1\n      pop\n      jump\t// out\n        /* \"#utility.yul\":6487:6613   */\n    tag_133:\n        /* \"#utility.yul\":6537:6546   */\n      0x00\n        /* \"#utility.yul\":6570:6607   */\n      tag_245\n        /* \"#utility.yul\":6601:6606   */\n      dup3\n        /* \"#utility.yul\":6570:6607   */\n      tag_132\n      jump\t// in\n    tag_245:\n        /* \"#utility.yul\":6557:6607   */\n      swap1\n      pop\n        /* \"#utility.yul\":6487:6613   */\n      swap2\n      swap1\n      pop\n      jump\t// out\n        /* \"#utility.yul\":6619:6758   */\n    tag_134:\n        /* \"#utility.yul\":6682:6691   */\n      0x00\n        /* \"#utility.yul\":6715:6752   */\n      tag_247\n        /* \"#utility.yul\":6746:6751   */\n      dup3\n        /* \"#utility.yul\":6715:6752   */\n      tag_133\n      jump\t// in\n    tag_247:\n        /* \"#utility.yul\":6702:6752   */\n      swap1\n      pop\n        /* \"#utility.yul\":6619:6758   */\n      swap2\n      swap1\n      pop\n      jump\t// out\n        /* \"#utility.yul\":6764:6921   */\n    tag_135:\n        /* \"#utility.yul\":6864:6914   */\n      tag_249\n        /* \"#utility.yul\":6908:6913   */\n      dup2\n        /* \"#utility.yul\":6864:6914   */\n      tag_134\n      jump\t// in\n    tag_249:\n        /* \"#utility.yul\":6859:6862   */\n      dup3\n        /* \"#utility.yul\":6852:6915   */\n      mstore\n        /* \"#utility.yul\":6764:6921   */\n      pop\n      pop\n      jump\t// out\n        /* \"#utility.yul\":6927:7175   */\n    tag_31:\n        /* \"#utility.yul\":7033:7037   */\n      0x00\n        /* \"#utility.yul\":7071:7073   */\n      0x20\n        /* \"#utility.yul\":7060:7069   */\n      dup3\n        /* \"#utility.yul\":7056:7074   */\n      add\n        /* \"#utility.yul\":7048:7074   */\n      swap1\n      pop\n        /* \"#utility.yul\":7084:7168   */\n      tag_251\n        /* \"#utility.yul\":7165:7166   */\n      0x00\n        /* \"#utility.yul\":7154:7163   */\n      dup4\n        /* \"#utility.yul\":7150:7167   */\n      add\n        /* \"#utility.yul\":7141:7147   */\n      dup5\n        /* \"#utility.yul\":7084:7168   */\n      tag_135\n      jump\t// in\n    tag_251:\n        /* \"#utility.yul\":6927:7175   */\n      swap3\n      swap2\n      pop\n      pop\n      jump\t// out\n        /* \"#utility.yul\":7181:7655   */\n    tag_34:\n        /* \"#utility.yul\":7249:7255   */\n      0x00\n        /* \"#utility.yul\":7257:7263   */\n      dup1\n        /* \"#utility.yul\":7306:7308   */\n      0x40\n        /* \"#utility.yul\":7294:7303   */\n      dup4\n        /* \"#utility.yul\":7285:7292   */\n      dup6\n        /* \"#utility.yul\":7281:7304   */\n      sub\n        /* \"#utility.yul\":7277:7309   */\n      slt\n        /* \"#utility.yul\":7274:7393   */\n      iszero\n      tag_253\n      jumpi\n        /* \"#utility.yul\":7312:7391   */\n      tag_254\n      tag_108\n      jump\t// in\n    tag_254:\n        /* \"#utility.yul\":7274:7393   */\n    tag_253:\n        /* \"#utility.yul\":7432:7433   */\n      0x00\n        /* \"#utility.yul\":7457:7510   */\n      tag_255\n        /* \"#utility.yul\":7502:7509   */\n      dup6\n        /* \"#utility.yul\":7493:7499   */\n      dup3\n        /* \"#utility.yul\":7482:7491   */\n      dup7\n        /* \"#utility.yul\":7478:7500   */\n      add\n        /* \"#utility.yul\":7457:7510   */\n      tag_111\n      jump\t// in\n    tag_255:\n        /* \"#utility.yul\":7447:7510   */\n      swap3\n      pop\n        /* \"#utility.yul\":7403:7520   */\n      pop\n        /* \"#utility.yul\":7559:7561   */\n      0x20\n        /* \"#utility.yul\":7585:7638   */\n      tag_256\n        /* \"#utility.yul\":7630:7637   */\n      dup6\n        /* \"#utility.yul\":7621:7627   */\n      dup3\n        /* \"#utility.yul\":7610:7619   */\n      dup7\n        /* \"#utility.yul\":7606:7628   */\n      add\n        /* \"#utility.yul\":7585:7638   */\n      tag_111\n      jump\t// in\n    tag_256:\n        /* \"#utility.yul\":7575:7638   */\n      swap2\n      pop\n        /* \"#utility.yul\":7530:7648   */\n      pop\n        /* \"#utility.yul\":7181:7655   */\n      swap3\n      pop\n      swap3\n      swap1\n      pop\n      jump\t// out\n        /* \"#utility.yul\":7661:7883   */\n    tag_42:\n        /* \"#utility.yul\":7754:7758   */\n      0x00\n        /* \"#utility.yul\":7792:7794   */\n      0x20\n        /* \"#utility.yul\":7781:7790   */\n      dup3\n        /* \"#utility.yul\":7777:7795   */\n      add\n        /* \"#utility.yul\":7769:7795   */\n      swap1\n      pop\n        /* \"#utility.yul\":7805:7876   */\n      tag_258\n        /* \"#utility.yul\":7873:7874   */\n      0x00\n        /* \"#utility.yul\":7862:7871   */\n      dup4\n        /* \"#utility.yul\":7858:7875   */\n      add\n        /* \"#utility.yul\":7849:7855   */\n      dup5\n        /* \"#utility.yul\":7805:7876   */\n      tag_124\n      jump\t// in\n    tag_258:\n        /* \"#utility.yul\":7661:7883   */\n      swap3\n      swap2\n      pop\n      pop\n      jump\t// out\n        /* \"#utility.yul\":7889:8067   */\n    tag_136:\n        /* \"#utility.yul\":8029:8059   */\n      0x5072696365206d7573742062652067726561746572207468616e203000000000\n        /* \"#utility.yul\":8025:8026   */\n      0x00\n        /* \"#utility.yul\":8017:8023   */\n      dup3\n        /* \"#utility.yul\":8013:8027   */\n      add\n        /* \"#utility.yul\":8006:8060   */\n      mstore\n        /* \"#utility.yul\":7889:8067   */\n      pop\n      jump\t// out\n        /* \"#utility.yul\":8073:8439   */\n    tag_137:\n        /* \"#utility.yul\":8215:8218   */\n      0x00\n        /* \"#utility.yul\":8236:8303   */\n      tag_261\n        /* \"#utility.yul\":8300:8302   */\n      0x1c\n        /* \"#utility.yul\":8295:8298   */\n      dup4\n        /* \"#utility.yul\":8236:8303   */\n      tag_128\n      jump\t// in\n    tag_261:\n        /* \"#utility.yul\":8229:8303   */\n      swap2\n      pop\n        /* \"#utility.yul\":8312:8405   */\n      tag_262\n        /* \"#utility.yul\":8401:8404   */\n      dup3\n        /* \"#utility.yul\":8312:8405   */\n      tag_136\n      jump\t// in\n    tag_262:\n        /* \"#utility.yul\":8430:8432   */\n      0x20\n        /* \"#utility.yul\":8425:8428   */\n      dup3\n        /* \"#utility.yul\":8421:8433   */\n      add\n        /* \"#utility.yul\":8414:8433   */\n      swap1\n      pop\n        /* \"#utility.yul\":8073:8439   */\n      swap2\n      swap1\n      pop\n      jump\t// out\n        /* \"#utility.yul\":8445:8864   */\n    tag_52:\n        /* \"#utility.yul\":8611:8615   */\n      0x00\n        /* \"#utility.yul\":8649:8651   */\n      0x20\n        /* \"#utility.yul\":8638:8647   */\n      dup3\n        /* \"#utility.yul\":8634:8652   */\n      add\n        /* \"#utility.yul\":8626:8652   */\n      swap1\n      pop\n        /* \"#utility.yul\":8698:8707   */\n      dup2\n        /* \"#utility.yul\":8692:8696   */\n      dup2\n        /* \"#utility.yul\":8688:8708   */\n      sub\n        /* \"#utility.yul\":8684:8685   */\n      0x00\n        /* \"#utility.yul\":8673:8682   */\n      dup4\n        /* \"#utility.yul\":8669:8686   */\n      add\n        /* \"#utility.yul\":8662:8709   */\n      mstore\n        /* \"#utility.yul\":8726:8857   */\n      tag_264\n        /* \"#utility.yul\":8852:8856   */\n      dup2\n        /* \"#utility.yul\":8726:8857   */\n      tag_137\n      jump\t// in\n    tag_264:\n        /* \"#utility.yul\":8718:8857   */\n      swap1\n      pop\n        /* \"#utility.yul\":8445:8864   */\n      swap2\n      swap1\n      pop\n      jump\t// out\n        /* \"#utility.yul\":8870:9050   */\n    tag_138:\n        /* \"#utility.yul\":8918:8995   */\n      0x4e487b7100000000000000000000000000000000000000000000000000000000\n        /* \"#utility.yul\":8915:8916   */\n      0x00\n        /* \"#utility.yul\":8908:8996   */\n      mstore\n        /* \"#utility.yul\":9015:9019   */\n      0x11\n        /* \"#utility.yul\":9012:9013   */\n      0x04\n        /* \"#utility.yul\":9005:9020   */\n      mstore\n        /* \"#utility.yul\":9039:9043   */\n      0x24\n        /* \"#utility.yul\":9036:9037   */\n      0x00\n        /* \"#utility.yul\":9029:9044   */\n      revert\n        /* \"#utility.yul\":9056:9289   */\n    tag_54:\n        /* \"#utility.yul\":9095:9098   */\n      0x00\n        /* \"#utility.yul\":9118:9142   */\n      tag_267\n        /* \"#utility.yul\":9136:9141   */\n      dup3\n        /* \"#utility.yul\":9118:9142   */\n      tag_105\n      jump\t// in\n    tag_267:\n        /* \"#utility.yul\":9109:9142   */\n      swap2\n      pop\n        /* \"#utility.yul\":9164:9230   */\n      0xffffffffffffffffffffffffffffffffffffffffffffffffffffffffffffffff\n        /* \"#utility.yul\":9157:9162   */\n      dup3\n        /* \"#utility.yul\":9154:9231   */\n      sub\n        /* \"#utility.yul\":9151:9254   */\n      tag_268\n      jumpi\n        /* \"#utility.yul\":9234:9252   */\n      tag_269\n      tag_138\n      jump\t// in\n    tag_269:\n        /* \"#utility.yul\":9151:9254   */\n    tag_268:\n        /* \"#utility.yul\":9281:9282   */\n      0x01\n        /* \"#utility.yul\":9274:9279   */\n      dup3\n        /* \"#utility.yul\":9270:9283   */\n      add\n        /* \"#utility.yul\":9263:9283   */\n      swap1\n      pop\n        /* \"#utility.yul\":9056:9289   */\n      swap2\n      swap1\n      pop\n      jump\t// out\n        /* \"#utility.yul\":9295:9475   */\n    tag_139:\n        /* \"#utility.yul\":9343:9420   */\n      0x4e487b7100000000000000000000000000000000000000000000000000000000\n        /* \"#utility.yul\":9340:9341   */\n      0x00\n        /* \"#utility.yul\":9333:9421   */\n      mstore\n        /* \"#utility.yul\":9440:9444   */\n      0x22\n        /* \"#utility.yul\":9437:9438   */\n      0x04\n        /* \"#utility.yul\":9430:9445   */\n      mstore\n        /* \"#utility.yul\":9464:9468   */\n      0x24\n        /* \"#utility.yul\":9461:9462   */\n      0x00\n        /* \"#utility.yul\":9454:9469   */\n      revert\n        /* \"#utility.yul\":9481:9801   */\n    tag_60:\n        /* \"#utility.yul\":9525:9531   */\n      0x00\n        /* \"#utility.yul\":9562:9563   */\n      0x02\n        /* \"#utility.yul\":9556:9560   */\n      dup3\n        /* \"#utility.yul\":9552:9564   */\n      div\n        /* \"#utility.yul\":9542:9564   */\n      swap1\n      pop\n        /* \"#utility.yul\":9609:9610   */\n      0x01\n        /* \"#utility.yul\":9603:9607   */\n      dup3\n        /* \"#utility.yul\":9599:9611   */\n      and\n        /* \"#utility.yul\":9630:9648   */\n      dup1\n        /* \"#utility.yul\":9620:9701   */\n      tag_272\n      jumpi\n        /* \"#utility.yul\":9686:9690   */\n      0x7f\n        /* \"#utility.yul\":9678:9684   */\n      dup3\n        /* \"#utility.yul\":9674:9691   */\n      and\n        /* \"#utility.yul\":9664:9691   */\n      swap2\n      pop\n        /* \"#utility.yul\":9620:9701   */\n    tag_272:\n        /* \"#utility.yul\":9748:9750   */\n      0x20\n        /* \"#utility.yul\":9740:9746   */\n      dup3\n        /* \"#utility.yul\":9737:9751   */\n      lt\n        /* \"#utility.yul\":9717:9735   */\n      dup2\n        /* \"#utility.yul\":9714:9752   */\n      sub\n        /* \"#utility.yul\":9711:9795   */\n      tag_273\n      jumpi\n        /* \"#utility.yul\":9767:9785   */\n      tag_274\n      tag_139\n      jump\t// in\n    tag_274:\n        /* \"#utility.yul\":9711:9795   */\n    tag_273:\n        /* \"#utility.yul\":9532:9801   */\n      pop\n        /* \"#utility.yul\":9481:9801   */\n      swap2\n      swap1\n      pop\n      jump\t// out\n        /* \"#utility.yul\":9807:9948   */\n    tag_140:\n        /* \"#utility.yul\":9856:9860   */\n      0x00\n        /* \"#utility.yul\":9879:9882   */\n      dup2\n        /* \"#utility.yul\":9871:9882   */\n      swap1\n      pop\n        /* \"#utility.yul\":9902:9905   */\n      dup2\n        /* \"#utility.yul\":9899:9900   */\n      0x00\n        /* \"#utility.yul\":9892:9906   */\n      mstore\n        /* \"#utility.yul\":9936:9940   */\n      0x20\n        /* \"#utility.yul\":9933:9934   */\n      0x00\n        /* \"#utility.yul\":9923:9941   */\n      keccak256\n        /* \"#utility.yul\":9915:9941   */\n      swap1\n      pop\n        /* \"#utility.yul\":9807:9948   */\n      swap2\n      swap1\n      pop\n      jump\t// out\n        /* \"#utility.yul\":9954:10047   */\n    tag_141:\n        /* \"#utility.yul\":9991:9997   */\n      0x00\n        /* \"#utility.yul\":10038:10040   */\n      0x20\n        /* \"#utility.yul\":10033:10035   */\n      0x1f\n        /* \"#utility.yul\":10026:10031   */\n      dup4\n        /* \"#utility.yul\":10022:10036   */\n      add\n        /* \"#utility.yul\":10018:10041   */\n      div\n        /* \"#utility.yul\":10008:10041   */\n      swap1\n      pop\n        /* \"#utility.yul\":9954:10047   */\n      swap2\n      swap1\n      pop\n      jump\t// out\n        /* \"#utility.yul\":10053:10160   */\n    tag_142:\n        /* \"#utility.yul\":10097:10105   */\n      0x00\n        /* \"#utility.yul\":10147:10152   */\n      dup3\n        /* \"#utility.yul\":10141:10145   */\n      dup3\n        /* \"#utility.yul\":10137:10153   */\n      shl\n        /* \"#utility.yul\":10116:10153   */\n      swap1\n      pop\n        /* \"#utility.yul\":10053:10160   */\n      swap3\n      swap2\n      pop\n      pop\n      jump\t// out\n        /* \"#utility.yul\":10166:10559   */\n    tag_143:\n        /* \"#utility.yul\":10235:10241   */\n      0x00\n        /* \"#utility.yul\":10285:10286   */\n      0x08\n        /* \"#utility.yul\":10273:10283   */\n      dup4\n        /* \"#utility.yul\":10269:10287   */\n      mul\n        /* \"#utility.yul\":10308:10405   */\n      tag_279\n        /* \"#utility.yul\":10338:10404   */\n      0xffffffffffffffffffffffffffffffffffffffffffffffffffffffffffffffff\n        /* \"#utility.yul\":10327:10336   */\n      dup3\n        /* \"#utility.yul\":10308:10405   */\n      tag_142\n      jump\t// in\n    tag_279:\n        /* \"#utility.yul\":10426:10465   */\n      tag_280\n        /* \"#utility.yul\":10456:10464   */\n      dup7\n        /* \"#utility.yul\":10445:10454   */\n      dup4\n        /* \"#utility.yul\":10426:10465   */\n      tag_142\n      jump\t// in\n    tag_280:\n        /* \"#utility.yul\":10414:10465   */\n      swap6\n      pop\n        /* \"#utility.yul\":10498:10502   */\n      dup1\n        /* \"#utility.yul\":10494:10503   */\n      not\n        /* \"#utility.yul\":10487:10492   */\n      dup5\n        /* \"#utility.yul\":10483:10504   */\n      and\n        /* \"#utility.yul\":10474:10504   */\n      swap4\n      pop\n        /* \"#utility.yul\":10547:10551   */\n      dup1\n        /* \"#utility.yul\":10537:10545   */\n      dup7\n        /* \"#utility.yul\":10533:10552   */\n      and\n        /* \"#utility.yul\":10526:10531   */\n      dup5\n        /* \"#utility.yul\":10523:10553   */\n      or\n        /* \"#utility.yul\":10513:10553   */\n      swap3\n      pop\n        /* \"#utility.yul\":10242:10559   */\n      pop\n      pop\n        /* \"#utility.yul\":10166:10559   */\n      swap4\n      swap3\n      pop\n      pop\n      pop\n      jump\t// out\n        /* \"#utility.yul\":10565:10707   */\n    tag_144:\n        /* \"#utility.yul\":10615:10624   */\n      0x00\n        /* \"#utility.yul\":10648:10701   */\n      tag_282\n        /* \"#utility.yul\":10666:10700   */\n      tag_283\n        /* \"#utility.yul\":10675:10699   */\n      tag_284\n        /* \"#utility.yul\":10693:10698   */\n      dup5\n        /* \"#utility.yul\":10675:10699   */\n      tag_105\n      jump\t// in\n    tag_284:\n        /* \"#utility.yul\":10666:10700   */\n      tag_131\n      jump\t// in\n    tag_283:\n        /* \"#utility.yul\":10648:10701   */\n      tag_105\n      jump\t// in\n    tag_282:\n        /* \"#utility.yul\":10635:10701   */\n      swap1\n      pop\n        /* \"#utility.yul\":10565:10707   */\n      swap2\n      swap1\n      pop\n      jump\t// out\n        /* \"#utility.yul\":10713:10788   */\n    tag_145:\n        /* \"#utility.yul\":10756:10759   */\n      0x00\n        /* \"#utility.yul\":10777:10782   */\n      dup2\n        /* \"#utility.yul\":10770:10782   */\n      swap1\n      pop\n        /* \"#utility.yul\":10713:10788   */\n      swap2\n      swap1\n      pop\n      jump\t// out\n        /* \"#utility.yul\":10794:11063   */\n    tag_146:\n        /* \"#utility.yul\":10904:10943   */\n      tag_287\n        /* \"#utility.yul\":10935:10942   */\n      dup4\n        /* \"#utility.yul\":10904:10943   */\n      tag_144\n      jump\t// in\n    tag_287:\n        /* \"#utility.yul\":10965:11056   */\n      tag_288\n        /* \"#utility.yul\":11014:11055   */\n      tag_289\n        /* \"#utility.yul\":11038:11054   */\n      dup3\n        /* \"#utility.yul\":11014:11055   */\n      tag_145\n      jump\t// in\n    tag_289:\n        /* \"#utility.yul\":11006:11012   */\n      dup5\n        /* \"#utility.yul\":10999:11003   */\n      dup5\n        /* \"#utility.yul\":10993:11004   */\n      sload\n        /* \"#utility.yul\":10965:11056   */\n      tag_143\n      jump\t// in\n    tag_288:\n        /* \"#utility.yul\":10959:10963   */\n      dup3\n        /* \"#utility.yul\":10952:11057   */\n      sstore\n        /* \"#utility.yul\":10870:11063   */\n      pop\n        /* \"#utility.yul\":10794:11063   */\n      pop\n      pop\n      pop\n      jump\t// out\n        /* \"#utility.yul\":11069:11142   */\n    tag_147:\n        /* \"#utility.yul\":11114:11117   */\n      0x00\n        /* \"#utility.yul\":11069:11142   */\n      swap1\n      jump\t// out\n        /* \"#utility.yul\":11148:11337   */\n    tag_148:\n        /* \"#utility.yul\":11225:11257   */\n      tag_292\n      tag_147\n      jump\t// in\n    tag_292:\n        /* \"#utility.yul\":11266:11331   */\n      tag_293\n        /* \"#utility.yul\":11324:11330   */\n      dup2\n        /* \"#utility.yul\":11316:11322   */\n      dup5\n        /* \"#utility.yul\":11310:11314   */\n      dup5\n        /* \"#utility.yul\":11266:11331   */\n      tag_146\n      jump\t// in\n    tag_293:\n        /* \"#utility.yul\":11201:11337   */\n      pop\n        /* \"#utility.yul\":11148:11337   */\n      pop\n      pop\n      jump\t// out\n        /* \"#utility.yul\":11343:11529   */\n    tag_149:\n        /* \"#utility.yul\":11403:11523   */\n    tag_295:\n        /* \"#utility.yul\":11420:11423   */\n      dup2\n        /* \"#utility.yul\":11413:11418   */\n      dup2\n        /* \"#utility.yul\":11410:11424   */\n      lt\n        /* \"#utility.yul\":11403:11523   */\n      iszero\n      tag_297\n      jumpi\n        /* \"#utility.yul\":11474:11513   */\n      tag_298\n        /* \"#utility.yul\":11511:11512   */\n      0x00\n        /* \"#utility.yul\":11504:11509   */\n      dup3\n        /* \"#utility.yul\":11474:11513   */\n      tag_148\n      jump\t// in\n    tag_298:\n        /* \"#utility.yul\":11447:11448   */\n      0x01\n        /* \"#utility.yul\":11440:11445   */\n      dup2\n        /* \"#utility.yul\":11436:11449   */\n      add\n        /* \"#utility.yul\":11427:11449   */\n      swap1\n      pop\n        /* \"#utility.yul\":11403:11523   */\n      jump(tag_295)\n    tag_297:\n        /* \"#utility.yul\":11343:11529   */\n      pop\n      pop\n      jump\t// out\n        /* \"#utility.yul\":11535:12078   */\n    tag_150:\n        /* \"#utility.yul\":11636:11638   */\n      0x1f\n        /* \"#utility.yul\":11631:11634   */\n      dup3\n        /* \"#utility.yul\":11628:11639   */\n      gt\n        /* \"#utility.yul\":11625:12071   */\n      iszero\n      tag_300\n      jumpi\n        /* \"#utility.yul\":11670:11708   */\n      tag_301\n        /* \"#utility.yul\":11702:11707   */\n      dup2\n        /* \"#utility.yul\":11670:11708   */\n      tag_140\n      jump\t// in\n    tag_301:\n        /* \"#utility.yul\":11754:11783   */\n      tag_302\n        /* \"#utility.yul\":11772:11782   */\n      dup5\n        /* \"#utility.yul\":11754:11783   */\n      tag_141\n      jump\t// in\n    tag_302:\n        /* \"#utility.yul\":11744:11752   */\n      dup2\n        /* \"#utility.yul\":11740:11784   */\n      add\n        /* \"#utility.yul\":11937:11939   */\n      0x20\n        /* \"#utility.yul\":11925:11935   */\n      dup6\n        /* \"#utility.yul\":11922:11940   */\n      lt\n        /* \"#utility.yul\":11919:11968   */\n      iszero\n      tag_303\n      jumpi\n        /* \"#utility.yul\":11958:11966   */\n      dup2\n        /* \"#utility.yul\":11943:11966   */\n      swap1\n      pop\n        /* \"#utility.yul\":11919:11968   */\n    tag_303:\n        /* \"#utility.yul\":11981:12061   */\n      tag_304\n        /* \"#utility.yul\":12037:12059   */\n      tag_305\n        /* \"#utility.yul\":12055:12058   */\n      dup6\n        /* \"#utility.yul\":12037:12059   */\n      tag_141\n      jump\t// in\n    tag_305:\n        /* \"#utility.yul\":12027:12035   */\n      dup4\n        /* \"#utility.yul\":12023:12060   */\n      add\n        /* \"#utility.yul\":12010:12021   */\n      dup3\n        /* \"#utility.yul\":11981:12061   */\n      tag_149\n      jump\t// in\n    tag_304:\n        /* \"#utility.yul\":11640:12071   */\n      pop\n      pop\n        /* \"#utility.yul\":11625:12071   */\n    tag_300:\n        /* \"#utility.yul\":11535:12078   */\n      pop\n      pop\n      pop\n      jump\t// out\n        /* \"#utility.yul\":12084:12201   */\n    tag_151:\n        /* \"#utility.yul\":12138:12146   */\n      0x00\n        /* \"#utility.yul\":12188:12193   */\n      dup3\n        /* \"#utility.yul\":12182:12186   */\n      dup3\n        /* \"#utility.yul\":12178:12194   */\n      shr\n        /* \"#utility.yul\":12157:12194   */\n      swap1\n      pop\n        /* \"#utility.yul\":12084:12201   */\n      swap3\n      swap2\n      pop\n      pop\n      jump\t// out\n        /* \"#utility.yul\":12207:12376   */\n    tag_152:\n        /* \"#utility.yul\":12251:12257   */\n      0x00\n        /* \"#utility.yul\":12284:12335   */\n      tag_308\n        /* \"#utility.yul\":12332:12333   */\n      0x00\n        /* \"#utility.yul\":12328:12334   */\n      not\n        /* \"#utility.yul\":12320:12325   */\n      dup5\n        /* \"#utility.yul\":12317:12318   */\n      0x08\n        /* \"#utility.yul\":12313:12326   */\n      mul\n        /* \"#utility.yul\":12284:12335   */\n      tag_151\n      jump\t// in\n    tag_308:\n        /* \"#utility.yul\":12280:12336   */\n      not\n        /* \"#utility.yul\":12365:12369   */\n      dup1\n        /* \"#utility.yul\":12359:12363   */\n      dup4\n        /* \"#utility.yul\":12355:12370   */\n      and\n        /* \"#utility.yul\":12345:12370   */\n      swap2\n      pop\n        /* \"#utility.yul\":12258:12376   */\n      pop\n        /* \"#utility.yul\":12207:12376   */\n      swap3\n      swap2\n      pop\n      pop\n      jump\t// out\n        /* \"#utility.yul\":12381:12676   */\n    tag_153:\n        /* \"#utility.yul\":12457:12461   */\n      0x00\n        /* \"#utility.yul\":12603:12632   */\n      tag_310\n        /* \"#utility.yul\":12628:12631   */\n      dup4\n        /* \"#utility.yul\":12622:12626   */\n      dup4\n        /* \"#utility.yul\":12603:12632   */\n      tag_152\n      jump\t// in\n    tag_310:\n        /* \"#utility.yul\":12595:12632   */\n      swap2\n      pop\n        /* \"#utility.yul\":12665:12668   */\n      dup3\n        /* \"#utility.yul\":12662:12663   */\n      0x02\n        /* \"#utility.yul\":12658:12669   */\n      mul\n        /* \"#utility.yul\":12652:12656   */\n      dup3\n        /* \"#utility.yul\":12649:12670   */\n      or\n        /* \"#utility.yul\":12641:12670   */\n      swap1\n      pop\n        /* \"#utility.yul\":12381:12676   */\n      swap3\n      swap2\n      pop\n      pop\n      jump\t// out\n        /* \"#utility.yul\":12681:14076   */\n    tag_56:\n        /* \"#utility.yul\":12798:12835   */\n      tag_312\n        /* \"#utility.yul\":12831:12834   */\n      dup3\n        /* \"#utility.yul\":12798:12835   */\n      tag_127\n      jump\t// in\n    tag_312:\n        /* \"#utility.yul\":12900:12918   */\n      0xffffffffffffffff\n        /* \"#utility.yul\":12892:12898   */\n      dup2\n        /* \"#utility.yul\":12889:12919   */\n      gt\n        /* \"#utility.yul\":12886:12942   */\n      iszero\n      tag_313\n      jumpi\n        /* \"#utility.yul\":12922:12940   */\n      tag_314\n      tag_115\n      jump\t// in\n    tag_314:\n        /* \"#utility.yul\":12886:12942   */\n    tag_313:\n        /* \"#utility.yul\":12966:13004   */\n      tag_315\n        /* \"#utility.yul\":12998:13002   */\n      dup3\n        /* \"#utility.yul\":12992:13003   */\n      sload\n        /* \"#utility.yul\":12966:13004   */\n      tag_60\n      jump\t// in\n    tag_315:\n        /* \"#utility.yul\":13051:13118   */\n      tag_316\n        /* \"#utility.yul\":13111:13117   */\n      dup3\n        /* \"#utility.yul\":13103:13109   */\n      dup3\n        /* \"#utility.yul\":13097:13101   */\n      dup6\n        /* \"#utility.yul\":13051:13118   */\n      tag_150\n      jump\t// in\n    tag_316:\n        /* \"#utility.yul\":13145:13146   */\n      0x00\n        /* \"#utility.yul\":13169:13173   */\n      0x20\n        /* \"#utility.yul\":13156:13173   */\n      swap1\n      pop\n        /* \"#utility.yul\":13201:13203   */\n      0x1f\n        /* \"#utility.yul\":13193:13199   */\n      dup4\n        /* \"#utility.yul\":13190:13204   */\n      gt\n        /* \"#utility.yul\":13218:13219   */\n      0x01\n        /* \"#utility.yul\":13213:13831   */\n      dup2\n      eq\n      tag_318\n      jumpi\n        /* \"#utility.yul\":13875:13876   */\n      0x00\n        /* \"#utility.yul\":13892:13898   */\n      dup5\n        /* \"#utility.yul\":13889:13966   */\n      iszero\n      tag_319\n      jumpi\n        /* \"#utility.yul\":13941:13950   */\n      dup3\n        /* \"#utility.yul\":13936:13939   */\n      dup8\n        /* \"#utility.yul\":13932:13951   */\n      add\n        /* \"#utility.yul\":13926:13952   */\n      mload\n        /* \"#utility.yul\":13917:13952   */\n      swap1\n      pop\n        /* \"#utility.yul\":13889:13966   */\n    tag_319:\n        /* \"#utility.yul\":13992:14059   */\n      tag_320\n        /* \"#utility.yul\":14052:14058   */\n      dup6\n        /* \"#utility.yul\":14045:14050   */\n      dup3\n        /* \"#utility.yul\":13992:14059   */\n      tag_153\n      jump\t// in\n    tag_320:\n        /* \"#utility.yul\":13986:13990   */\n      dup7\n        /* \"#utility.yul\":13979:14060   */\n      sstore\n        /* \"#utility.yul\":13848:14070   */\n      pop\n        /* \"#utility.yul\":13183:14070   */\n      jump(tag_317)\n        /* \"#utility.yul\":13213:13831   */\n    tag_318:\n        /* \"#utility.yul\":13265:13269   */\n      0x1f\n        /* \"#utility.yul\":13261:13270   */\n      not\n        /* \"#utility.yul\":13253:13259   */\n      dup5\n        /* \"#utility.yul\":13249:13271   */\n      and\n        /* \"#utility.yul\":13299:13336   */\n      tag_321\n        /* \"#utility.yul\":13331:13335   */\n      dup7\n        /* \"#utility.yul\":13299:13336   */\n      tag_140\n      jump\t// in\n    tag_321:\n        /* \"#utility.yul\":13358:13359   */\n      0x00\n        /* \"#utility.yul\":13372:13580   */\n    tag_322:\n        /* \"#utility.yul\":13386:13393   */\n      dup3\n        /* \"#utility.yul\":13383:13384   */\n      dup2\n        /* \"#utility.yul\":13380:13394   */\n      lt\n        /* \"#utility.yul\":13372:13580   */\n      iszero\n      tag_324\n      jumpi\n        /* \"#utility.yul\":13465:13474   */\n      dup5\n        /* \"#utility.yul\":13460:13463   */\n      dup10\n        /* \"#utility.yul\":13456:13475   */\n      add\n        /* \"#utility.yul\":13450:13476   */\n      mload\n        /* \"#utility.yul\":13442:13448   */\n      dup3\n        /* \"#utility.yul\":13435:13477   */\n      sstore\n        /* \"#utility.yul\":13516:13517   */\n      0x01\n        /* \"#utility.yul\":13508:13514   */\n      dup3\n        /* \"#utility.yul\":13504:13518   */\n      add\n        /* \"#utility.yul\":13494:13518   */\n      swap2\n      pop\n        /* \"#utility.yul\":13563:13565   */\n      0x20\n        /* \"#utility.yul\":13552:13561   */\n      dup6\n        /* \"#utility.yul\":13548:13566   */\n      add\n        /* \"#utility.yul\":13535:13566   */\n      swap5\n      pop\n        /* \"#utility.yul\":13409:13413   */\n      0x20\n        /* \"#utility.yul\":13406:13407   */\n      dup2\n        /* \"#utility.yul\":13402:13414   */\n      add\n        /* \"#utility.yul\":13397:13414   */\n      swap1\n      pop\n        /* \"#utility.yul\":13372:13580   */\n      jump(tag_322)\n    tag_324:\n        /* \"#utility.yul\":13608:13614   */\n      dup7\n        /* \"#utility.yul\":13599:13606   */\n      dup4\n        /* \"#utility.yul\":13596:13615   */\n      lt\n        /* \"#utility.yul\":13593:13772   */\n      iszero\n      tag_325\n      jumpi\n        /* \"#utility.yul\":13666:13675   */\n      dup5\n        /* \"#utility.yul\":13661:13664   */\n      dup10\n        /* \"#utility.yul\":13657:13676   */\n      add\n        /* \"#utility.yul\":13651:13677   */\n      mload\n        /* \"#utility.yul\":13709:13757   */\n      tag_326\n        /* \"#utility.yul\":13751:13755   */\n      0x1f\n        /* \"#utility.yul\":13743:13749   */\n      dup10\n        /* \"#utility.yul\":13739:13756   */\n      and\n        /* \"#utility.yul\":13728:13737   */\n      dup3\n        /* \"#utility.yul\":13709:13757   */\n      tag_152\n      jump\t// in\n    tag_326:\n        /* \"#utility.yul\":13701:13707   */\n      dup4\n        /* \"#utility.yul\":13694:13758   */\n      sstore\n        /* \"#utility.yul\":13616:13772   */\n      pop\n        /* \"#utility.yul\":13593:13772   */\n    tag_325:\n        /* \"#utility.yul\":13818:13819   */\n      0x01\n        /* \"#utility.yul\":13814:13815   */\n      0x02\n        /* \"#utility.yul\":13806:13812   */\n      dup9\n        /* \"#utility.yul\":13802:13816   */\n      mul\n        /* \"#utility.yul\":13798:13820   */\n      add\n        /* \"#utility.yul\":13792:13796   */\n      dup9\n        /* \"#utility.yul\":13785:13821   */\n      sstore\n        /* \"#utility.yul\":13220:13831   */\n      pop\n      pop\n      pop\n        /* \"#utility.yul\":13183:14070   */\n    tag_317:\n      pop\n        /* \"#utility.yul\":12773:14076   */\n      pop\n      pop\n      pop\n        /* \"#utility.yul\":12681:14076   */\n      pop\n      pop\n      jump\t// out\n        /* \"#utility.yul\":14082:14615   */\n    tag_58:\n        /* \"#utility.yul\":14251:14255   */\n      0x00\n        /* \"#utility.yul\":14289:14291   */\n      0x60\n        /* \"#utility.yul\":14278:14287   */\n      dup3\n        /* \"#utility.yul\":14274:14292   */\n      add\n        /* \"#utility.yul\":14266:14292   */\n      swap1\n      pop\n        /* \"#utility.yul\":14302:14373   */\n      tag_328\n        /* \"#utility.yul\":14370:14371   */\n      0x00\n        /* \"#utility.yul\":14359:14368   */\n      dup4\n        /* \"#utility.yul\":14355:14372   */\n      add\n        /* \"#utility.yul\":14346:14352   */\n      dup7\n        /* \"#utility.yul\":14302:14373   */\n      tag_124\n      jump\t// in\n    tag_328:\n        /* \"#utility.yul\":14383:14455   */\n      tag_329\n        /* \"#utility.yul\":14451:14453   */\n      0x20\n        /* \"#utility.yul\":14440:14449   */\n      dup4\n        /* \"#utility.yul\":14436:14454   */\n      add\n        /* \"#utility.yul\":14427:14433   */\n      dup6\n        /* \"#utility.yul\":14383:14455   */\n      tag_106\n      jump\t// in\n    tag_329:\n        /* \"#utility.yul\":14502:14511   */\n      dup2\n        /* \"#utility.yul\":14496:14500   */\n      dup2\n        /* \"#utility.yul\":14492:14512   */\n      sub\n        /* \"#utility.yul\":14487:14489   */\n      0x40\n        /* \"#utility.yul\":14476:14485   */\n      dup4\n        /* \"#utility.yul\":14472:14490   */\n      add\n        /* \"#utility.yul\":14465:14513   */\n      mstore\n        /* \"#utility.yul\":14530:14608   */\n      tag_330\n        /* \"#utility.yul\":14603:14607   */\n      dup2\n        /* \"#utility.yul\":14594:14600   */\n      dup5\n        /* \"#utility.yul\":14530:14608   */\n      tag_130\n      jump\t// in\n    tag_330:\n        /* \"#utility.yul\":14522:14608   */\n      swap1\n      pop\n        /* \"#utility.yul\":14082:14615   */\n      swap5\n      swap4\n      pop\n      pop\n      pop\n      pop\n      jump\t// out\n        /* \"#utility.yul\":14621:14799   */\n    tag_154:\n        /* \"#utility.yul\":14761:14791   */\n      0x4f6e6c792073656c6c65722063616e2075706461746520707269636500000000\n        /* \"#utility.yul\":14757:14758   */\n      0x00\n        /* \"#utility.yul\":14749:14755   */\n      dup3\n        /* \"#utility.yul\":14745:14759   */\n      add\n        /* \"#utility.yul\":14738:14792   */\n      mstore\n        /* \"#utility.yul\":14621:14799   */\n      pop\n      jump\t// out\n        /* \"#utility.yul\":14805:15171   */\n    tag_155:\n        /* \"#utility.yul\":14947:14950   */\n      0x00\n        /* \"#utility.yul\":14968:15035   */\n      tag_333\n        /* \"#utility.yul\":15032:15034   */\n      0x1c\n        /* \"#utility.yul\":15027:15030   */\n      dup4\n        /* \"#utility.yul\":14968:15035   */\n      tag_128\n      jump\t// in\n    tag_333:\n        /* \"#utility.yul\":14961:15035   */\n      swap2\n      pop\n        /* \"#utility.yul\":15044:15137   */\n      tag_334\n        /* \"#utility.yul\":15133:15136   */\n      dup3\n        /* \"#utility.yul\":15044:15137   */\n      tag_154\n      jump\t// in\n    tag_334:\n        /* \"#utility.yul\":15162:15164   */\n      0x20\n        /* \"#utility.yul\":15157:15160   */\n      dup3\n        /* \"#utility.yul\":15153:15165   */\n      add\n        /* \"#utility.yul\":15146:15165   */\n      swap1\n      pop\n        /* \"#utility.yul\":14805:15171   */\n      swap2\n      swap1\n      pop\n      jump\t// out\n        /* \"#utility.yul\":15177:15596   */\n    tag_68:\n        /* \"#utility.yul\":15343:15347   */\n      0x00\n        /* \"#utility.yul\":15381:15383   */\n      0x20\n        /* \"#utility.yul\":15370:15379   */\n      dup3\n        /* \"#utility.yul\":15366:15384   */\n      add\n        /* \"#utility.yul\":15358:15384   */\n      swap1\n      pop\n        /* \"#utility.yul\":15430:15439   */\n      dup2\n        /* \"#utility.yul\":15424:15428   */\n      dup2\n        /* \"#utility.yul\":15420:15440   */\n      sub\n        /* \"#utility.yul\":15416:15417   */\n      0x00\n        /* \"#utility.yul\":15405:15414   */\n      dup4\n        /* \"#utility.yul\":15401:15418   */\n      add\n        /* \"#utility.yul\":15394:15441   */\n      mstore\n        /* \"#utility.yul\":15458:15589   */\n      tag_336\n        /* \"#utility.yul\":15584:15588   */\n      dup2\n        /* \"#utility.yul\":15458:15589   */\n      tag_155\n      jump\t// in\n    tag_336:\n        /* \"#utility.yul\":15450:15589   */\n      swap1\n      pop\n        /* \"#utility.yul\":15177:15596   */\n      swap2\n      swap1\n      pop\n      jump\t// out\n        /* \"#utility.yul\":15602:15768   */\n    tag_156:\n        /* \"#utility.yul\":15742:15760   */\n      0x4167656e74206e6f74206c697374656400000000000000000000000000000000\n        /* \"#utility.yul\":15738:15739   */\n      0x00\n        /* \"#utility.yul\":15730:15736   */\n      dup3\n        /* \"#utility.yul\":15726:15740   */\n      add\n        /* \"#utility.yul\":15719:15761   */\n      mstore\n        /* \"#utility.yul\":15602:15768   */\n      pop\n      jump\t// out\n        /* \"#utility.yul\":15774:16140   */\n    tag_157:\n        /* \"#utility.yul\":15916:15919   */\n      0x00\n        /* \"#utility.yul\":15937:16004   */\n      tag_339\n        /* \"#utility.yul\":16001:16003   */\n      0x10\n        /* \"#utility.yul\":15996:15999   */\n      dup4\n        /* \"#utility.yul\":15937:16004   */\n      tag_128\n      jump\t// in\n    tag_339:\n        /* \"#utility.yul\":15930:16004   */\n      swap2\n      pop\n        /* \"#utility.yul\":16013:16106   */\n      tag_340\n        /* \"#utility.yul\":16102:16105   */\n      dup3\n        /* \"#utility.yul\":16013:16106   */\n      tag_156\n      jump\t// in\n    tag_340:\n        /* \"#utility.yul\":16131:16133   */\n      0x20\n        /* \"#utility.yul\":16126:16129   */\n      dup3\n        /* \"#utility.yul\":16122:16134   */\n      add\n        /* \"#utility.yul\":16115:16134   */\n      swap1\n      pop\n        /* \"#utility.yul\":15774:16140   */\n      swap2\n      swap1\n      pop\n      jump\t// out\n        /* \"#utility.yul\":16146:16565   */\n    tag_71:\n        /* \"#utility.yul\":16312:16316   */\n      0x00\n        /* \"#utility.yul\":16350:16352   */\n      0x20\n        /* \"#utility.yul\":16339:16348   */\n      dup3\n        /* \"#utility.yul\":16335:16353   */\n      add\n        /* \"#utility.yul\":16327:16353   */\n      swap1\n      pop\n        /* \"#utility.yul\":16399:16408   */\n      dup2\n        /* \"#utility.yul\":16393:16397   */\n      dup2\n        /* \"#utility.yul\":16389:16409   */\n      sub\n        /* \"#utility.yul\":16385:16386   */\n      0x00\n        /* \"#utility.yul\":16374:16383   */\n      dup4\n        /* \"#utility.yul\":16370:16387   */\n      add\n        /* \"#utility.yul\":16363:16410   */\n      mstore\n        /* \"#utility.yul\":16427:16558   */\n      tag_342\n        /* \"#utility.yul\":16553:16557   */\n      dup2\n        /* \"#utility.yul\":16427:16558   */\n      tag_157\n      jump\t// in\n    tag_342:\n        /* \"#utility.yul\":16419:16558   */\n      swap1\n      pop\n        /* \"#utility.yul\":16146:16565   */\n      swap2\n      swap1\n      pop\n      jump\t// out\n        /* \"#utility.yul\":16571:16746   */\n    tag_158:\n        /* \"#utility.yul\":16711:16738   */\n      0x43616e6e6f742062757920796f7572206f776e206167656e7400000000000000\n        /* \"#utility.yul\":16707:16708   */\n      0x00\n        /* \"#utility.yul\":16699:16705   */\n      dup3\n        /* \"#utility.yul\":16695:16709   */\n      add\n        /* \"#utility.yul\":16688:16739   */\n      mstore\n        /* \"#utility.yul\":16571:16746   */\n      pop\n      jump\t// out\n        /* \"#utility.yul\":16752:17118   */\n    tag_159:\n        /* \"#utility.yul\":16894:16897   */\n      0x00\n        /* \"#utility.yul\":16915:16982   */\n      tag_345\n        /* \"#utility.yul\":16979:16981   */\n      0x19\n        /* \"#utility.yul\":16974:16977   */\n      dup4\n        /* \"#utility.yul\":16915:16982   */\n      tag_128\n      jump\t// in\n    tag_345:\n        /* \"#utility.yul\":16908:16982   */\n      swap2\n      pop\n        /* \"#utility.yul\":16991:17084   */\n      tag_346\n        /* \"#utility.yul\":17080:17083   */\n      dup3\n        /* \"#utility.yul\":16991:17084   */\n      tag_158\n      jump\t// in\n    tag_346:\n        /* \"#utility.yul\":17109:17111   */\n      0x20\n        /* \"#utility.yul\":17104:17107   */\n      dup3\n        /* \"#utility.yul\":17100:17112   */\n      add\n        /* \"#utility.yul\":17093:17112   */\n      swap1\n      pop\n        /* \"#utility.yul\":16752:17118   */\n      swap2\n      swap1\n      pop\n      jump\t// out\n        /* \"#utility.yul\":17124:17543   */\n    tag_80:\n        /* \"#utility.yul\":17290:17294   */\n      0x00\n        /* \"#utility.yul\":17328:17330   */\n      0x20\n        /* \"#utility.yul\":17317:17326   */\n      dup3\n        /* \"#utility.yul\":17313:17331   */\n      add\n        /* \"#utility.yul\":17305:17331   */\n      swap1\n      pop\n        /* \"#utility.yul\":17377:17386   */\n      dup2\n        /* \"#utility.yul\":17371:17375   */\n      dup2\n        /* \"#utility.yul\":17367:17387   */\n      sub\n        /* \"#utility.yul\":17363:17364   */\n      0x00\n        /* \"#utility.yul\":17352:17361   */\n      dup4\n        /* \"#utility.yul\":17348:17365   */\n      add\n        /* \"#utility.yul\":17341:17388   */\n      mstore\n        /* \"#utility.yul\":17405:17536   */\n      tag_348\n        /* \"#utility.yul\":17531:17535   */\n      dup2\n        /* \"#utility.yul\":17405:17536   */\n      tag_159\n      jump\t// in\n    tag_348:\n        /* \"#utility.yul\":17397:17536   */\n      swap1\n      pop\n        /* \"#utility.yul\":17124:17543   */\n      swap2\n      swap1\n      pop\n      jump\t// out\n        /* \"#utility.yul\":17549:17959   */\n    tag_82:\n        /* \"#utility.yul\":17589:17596   */\n      0x00\n        /* \"#utility.yul\":17612:17632   */\n      tag_350\n        /* \"#utility.yul\":17630:17631   */\n      dup3\n        /* \"#utility.yul\":17612:17632   */\n      tag_105\n      jump\t// in\n    tag_350:\n        /* \"#utility.yul\":17607:17632   */\n      swap2\n      pop\n        /* \"#utility.yul\":17646:17666   */\n      tag_351\n        /* \"#utility.yul\":17664:17665   */\n      dup4\n        /* \"#utility.yul\":17646:17666   */\n      tag_105\n      jump\t// in\n    tag_351:\n        /* \"#utility.yul\":17641:17666   */\n      swap3\n      pop\n        /* \"#utility.yul\":17701:17702   */\n      dup3\n        /* \"#utility.yul\":17698:17699   */\n      dup3\n        /* \"#utility.yul\":17694:17703   */\n      mul\n        /* \"#utility.yul\":17723:17753   */\n      tag_352\n        /* \"#utility.yul\":17741:17752   */\n      dup2\n        /* \"#utility.yul\":17723:17753   */\n      tag_105\n      jump\t// in\n    tag_352:\n        /* \"#utility.yul\":17712:17753   */\n      swap2\n      pop\n        /* \"#utility.yul\":17902:17903   */\n      dup3\n        /* \"#utility.yul\":17893:17900   */\n      dup3\n        /* \"#utility.yul\":17889:17904   */\n      div\n        /* \"#utility.yul\":17886:17887   */\n      dup5\n        /* \"#utility.yul\":17883:17905   */\n      eq\n        /* \"#utility.yul\":17863:17864   */\n      dup4\n        /* \"#utility.yul\":17856:17865   */\n      iszero\n        /* \"#utility.yul\":17836:17919   */\n      or\n        /* \"#utility.yul\":17813:17952   */\n      tag_353\n      jumpi\n        /* \"#utility.yul\":17932:17950   */\n      tag_354\n      tag_138\n      jump\t// in\n    tag_354:\n        /* \"#utility.yul\":17813:17952   */\n    tag_353:\n        /* \"#utility.yul\":17597:17959   */\n      pop\n        /* \"#utility.yul\":17549:17959   */\n      swap3\n      swap2\n      pop\n      pop\n      jump\t// out\n        /* \"#utility.yul\":17965:18145   */\n    tag_160:\n        /* \"#utility.yul\":18013:18090   */\n      0x4e487b7100000000000000000000000000000000000000000000000000000000\n        /* \"#utility.yul\":18010:18011   */\n      0x00\n        /* \"#utility.yul\":18003:18091   */\n      mstore\n        /* \"#utility.yul\":18110:18114   */\n      0x12\n        /* \"#utility.yul\":18107:18108   */\n      0x04\n        /* \"#utility.yul\":18100:18115   */\n      mstore\n        /* \"#utility.yul\":18134:18138   */\n      0x24\n        /* \"#utility.yul\":18131:18132   */\n      0x00\n        /* \"#utility.yul\":18124:18139   */\n      revert\n        /* \"#utility.yul\":18151:18336   */\n    tag_84:\n        /* \"#utility.yul\":18191:18192   */\n      0x00\n        /* \"#utility.yul\":18208:18228   */\n      tag_357\n        /* \"#utility.yul\":18226:18227   */\n      dup3\n        /* \"#utility.yul\":18208:18228   */\n      tag_105\n      jump\t// in\n    tag_357:\n        /* \"#utility.yul\":18203:18228   */\n      swap2\n      pop\n        /* \"#utility.yul\":18242:18262   */\n      tag_358\n        /* \"#utility.yul\":18260:18261   */\n      dup4\n        /* \"#utility.yul\":18242:18262   */\n      tag_105\n      jump\t// in\n    tag_358:\n        /* \"#utility.yul\":18237:18262   */\n      swap3\n      pop\n        /* \"#utility.yul\":18281:18282   */\n      dup3\n        /* \"#utility.yul\":18271:18306   */\n      tag_359\n      jumpi\n        /* \"#utility.yul\":18286:18304   */\n      tag_360\n      tag_160\n      jump\t// in\n    tag_360:\n        /* \"#utility.yul\":18271:18306   */\n    tag_359:\n        /* \"#utility.yul\":18328:18329   */\n      dup3\n        /* \"#utility.yul\":18325:18326   */\n      dup3\n        /* \"#utility.yul\":18321:18330   */\n      div\n        /* \"#utility.yul\":18316:18330   */\n      swap1\n      pop\n        /* \"#utility.yul\":18151:18336   */\n      swap3\n      swap2\n      pop\n      pop\n      jump\t// out\n        /* \"#utility.yul\":18342:18536   */\n    tag_86:\n        /* \"#utility.yul\":18382:18386   */\n      0x00\n        /* \"#utility.yul\":18402:18422   */\n      tag_362\n        /* \"#utility.yul\":18420:18421   */\n      dup3\n        /* \"#utility.yul\":18402:18422   */\n      tag_105\n      jump\t// in\n    tag_362:\n        /* \"#utility.yul\":18397:18422   */\n      swap2\n      pop\n        /* \"#utility.yul\":18436:18456   */\n      tag_363\n        /* \"#utility.yul\":18454:18455   */\n      dup4\n        /* \"#utility.yul\":18436:18456   */\n      tag_105\n      jump\t// in\n    tag_363:\n        /* \"#utility.yul\":18431:18456   */\n      swap3\n      pop\n        /* \"#utility.yul\":18480:18481   */\n      dup3\n        /* \"#utility.yul\":18477:18478   */\n      dup3\n        /* \"#utility.yul\":18473:18482   */\n      sub\n        /* \"#utility.yul\":18465:18482   */\n      swap1\n      pop\n        /* \"#utility.yul\":18504:18505   */\n      dup2\n        /* \"#utility.yul\":18498:18502   */\n      dup2\n        /* \"#utility.yul\":18495:18506   */\n      gt\n        /* \"#utility.yul\":18492:18529   */\n      iszero\n      tag_364\n      jumpi\n        /* \"#utility.yul\":18509:18527   */\n      tag_365\n      tag_138\n      jump\t// in\n    tag_365:\n        /* \"#utility.yul\":18492:18529   */\n    tag_364:\n        /* \"#utility.yul\":18342:18536   */\n      swap3\n      swap2\n      pop\n      pop\n      jump\t// out\n        /* \"#utility.yul\":18542:18984   */\n    tag_88:\n        /* \"#utility.yul\":18691:18695   */\n      0x00\n        /* \"#utility.yul\":18729:18731   */\n      0x60\n        /* \"#utility.yul\":18718:18727   */\n      dup3\n        /* \"#utility.yul\":18714:18732   */\n      add\n        /* \"#utility.yul\":18706:18732   */\n      swap1\n      pop\n        /* \"#utility.yul\":18742:18813   */\n      tag_367\n        /* \"#utility.yul\":18810:18811   */\n      0x00\n        /* \"#utility.yul\":18799:18808   */\n      dup4\n        /* \"#utility.yul\":18795:18812   */\n      add\n        /* \"#utility.yul\":18786:18792   */\n      dup7\n        /* \"#utility.yul\":18742:18813   */\n      tag_124\n      jump\t// in\n    tag_367:\n        /* \"#utility.yul\":18823:18895   */\n      tag_368\n        /* \"#utility.yul\":18891:18893   */\n      0x20\n        /* \"#utility.yul\":18880:18889   */\n      dup4\n        /* \"#utility.yul\":18876:18894   */\n      add\n        /* \"#utility.yul\":18867:18873   */\n      dup6\n        /* \"#utility.yul\":18823:18895   */\n      tag_124\n      jump\t// in\n    tag_368:\n        /* \"#utility.yul\":18905:18977   */\n      tag_369\n        /* \"#utility.yul\":18973:18975   */\n      0x40\n        /* \"#utility.yul\":18962:18971   */\n      dup4\n        /* \"#utility.yul\":18958:18976   */\n      add\n        /* \"#utility.yul\":18949:18955   */\n      dup5\n        /* \"#utility.yul\":18905:18977   */\n      tag_106\n      jump\t// in\n    tag_369:\n        /* \"#utility.yul\":18542:18984   */\n      swap5\n      swap4\n      pop\n      pop\n      pop\n      pop\n      jump\t// out\n        /* \"#utility.yul\":18990:19106   */\n    tag_161:\n        /* \"#utility.yul\":19060:19081   */\n      tag_371\n        /* \"#utility.yul\":19075:19080   */\n      dup2\n        /* \"#utility.yul\":19060:19081   */\n      tag_125\n      jump\t// in\n    tag_371:\n        /* \"#utility.yul\":19053:19058   */\n      dup2\n        /* \"#utility.yul\":19050:19082   */\n      eq\n        /* \"#utility.yul\":19040:19100   */\n      tag_372\n      jumpi\n        /* \"#utility.yul\":19096:19097   */\n      0x00\n        /* \"#utility.yul\":19093:19094   */\n      dup1\n        /* \"#utility.yul\":19086:19098   */\n      revert\n        /* \"#utility.yul\":19040:19100   */\n    tag_372:\n        /* \"#utility.yul\":18990:19106   */\n      pop\n      jump\t// out\n        /* \"#utility.yul\":19112:19249   */\n    tag_162:\n        /* \"#utility.yul\":19166:19171   */\n      0x00\n        /* \"#utility.yul\":19197:19203   */\n      dup2\n        /* \"#utility.yul\":19191:19204   */\n      mload\n        /* \"#utility.yul\":19182:19204   */\n      swap1\n      pop\n        /* \"#utility.yul\":19213:19243   */\n      tag_374\n        /* \"#utility.yul\":19237:19242   */\n      dup2\n        /* \"#utility.yul\":19213:19243   */\n      tag_161\n      jump\t// in\n    tag_374:\n        /* \"#utility.yul\":19112:19249   */\n      swap3\n      swap2\n      pop\n      pop\n      jump\t// out\n        /* \"#utility.yul\":19255:19600   */\n    tag_92:\n        /* \"#utility.yul\":19322:19328   */\n      0x00\n        /* \"#utility.yul\":19371:19373   */\n      0x20\n        /* \"#utility.yul\":19359:19368   */\n      dup3\n        /* \"#utility.yul\":19350:19357   */\n      dup5\n        /* \"#utility.yul\":19346:19369   */\n      sub\n        /* \"#utility.yul\":19342:19374   */\n      slt\n        /* \"#utility.yul\":19339:19458   */\n      iszero\n      tag_376\n      jumpi\n        /* \"#utility.yul\":19377:19456   */\n      tag_377\n      tag_108\n      jump\t// in\n    tag_377:\n        /* \"#utility.yul\":19339:19458   */\n    tag_376:\n        /* \"#utility.yul\":19497:19498   */\n      0x00\n        /* \"#utility.yul\":19522:19583   */\n      tag_378\n        /* \"#utility.yul\":19575:19582   */\n      dup5\n        /* \"#utility.yul\":19566:19572   */\n      dup3\n        /* \"#utility.yul\":19555:19564   */\n      dup6\n        /* \"#utility.yul\":19551:19573   */\n      add\n        /* \"#utility.yul\":19522:19583   */\n      tag_162\n      jump\t// in\n    tag_378:\n        /* \"#utility.yul\":19512:19583   */\n      swap2\n      pop\n        /* \"#utility.yul\":19468:19593   */\n      pop\n        /* \"#utility.yul\":19255:19600   */\n      swap3\n      swap2\n      pop\n      pop\n      jump\t// out\n        /* \"#utility.yul\":19606:19784   */\n    tag_163:\n        /* \"#utility.yul\":19746:19776   */\n      0x506c6174666f726d20666565207472616e73666572206661696c656400000000\n        /* \"#utility.yul\":19742:19743   */\n      0x00\n        /* \"#utility.yul\":19734:19740   */\n      dup3\n        /* \"#utility.yul\":19730:19744   */\n      add\n        /* \"#utility.yul\":19723:19777   */\n      mstore\n        /* \"#utility.yul\":19606:19784   */\n      pop\n      jump\t// out\n        /* \"#utility.yul\":19790:20156   */\n    tag_164:\n        /* \"#utility.yul\":19932:19935   */\n      0x00\n        /* \"#utility.yul\":19953:20020   */\n      tag_381\n        /* \"#utility.yul\":20017:20019   */\n      0x1c\n        /* \"#utility.yul\":20012:20015   */\n      dup4\n        /* \"#utility.yul\":19953:20020   */\n      tag_128\n      jump\t// in\n    tag_381:\n        /* \"#utility.yul\":19946:20020   */\n      swap2\n      pop\n        /* \"#utility.yul\":20029:20122   */\n      tag_382\n        /* \"#utility.yul\":20118:20121   */\n      dup3\n        /* \"#utility.yul\":20029:20122   */\n      tag_163\n      jump\t// in\n    tag_382:\n        /* \"#utility.yul\":20147:20149   */\n      0x20\n        /* \"#utility.yul\":20142:20145   */\n      dup3\n        /* \"#utility.yul\":20138:20150   */\n      add\n        /* \"#utility.yul\":20131:20150   */\n      swap1\n      pop\n        /* \"#utility.yul\":19790:20156   */\n      swap2\n      swap1\n      pop\n      jump\t// out\n        /* \"#utility.yul\":20162:20581   */\n    tag_95:\n        /* \"#utility.yul\":20328:20332   */\n      0x00\n        /* \"#utility.yul\":20366:20368   */\n      0x20\n        /* \"#utility.yul\":20355:20364   */\n      dup3\n        /* \"#utility.yul\":20351:20369   */\n      add\n        /* \"#utility.yul\":20343:20369   */\n      swap1\n      pop\n        /* \"#utility.yul\":20415:20424   */\n      dup2\n        /* \"#utility.yul\":20409:20413   */\n      dup2\n        /* \"#utility.yul\":20405:20425   */\n      sub\n        /* \"#utility.yul\":20401:20402   */\n      0x00\n        /* \"#utility.yul\":20390:20399   */\n      dup4\n        /* \"#utility.yul\":20386:20403   */\n      add\n        /* \"#utility.yul\":20379:20426   */\n      mstore\n        /* \"#utility.yul\":20443:20574   */\n      tag_384\n        /* \"#utility.yul\":20569:20573   */\n      dup2\n        /* \"#utility.yul\":20443:20574   */\n      tag_164\n      jump\t// in\n    tag_384:\n        /* \"#utility.yul\":20435:20574   */\n      swap1\n      pop\n        /* \"#utility.yul\":20162:20581   */\n      swap2\n      swap1\n      pop\n      jump\t// out\n        /* \"#utility.yul\":20587:20759   */\n    tag_165:\n        /* \"#utility.yul\":20727:20751   */\n      0x53656c6c6572207472616e73666572206661696c656400000000000000000000\n        /* \"#utility.yul\":20723:20724   */\n      0x00\n        /* \"#utility.yul\":20715:20721   */\n      dup3\n        /* \"#utility.yul\":20711:20725   */\n      add\n        /* \"#utility.yul\":20704:20752   */\n      mstore\n        /* \"#utility.yul\":20587:20759   */\n      pop\n      jump\t// out\n        /* \"#utility.yul\":20765:21131   */\n    tag_166:\n        /* \"#utility.yul\":20907:20910   */\n      0x00\n        /* \"#utility.yul\":20928:20995   */\n      tag_387\n        /* \"#utility.yul\":20992:20994   */\n      0x16\n        /* \"#utility.yul\":20987:20990   */\n      dup4\n        /* \"#utility.yul\":20928:20995   */\n      tag_128\n      jump\t// in\n    tag_387:\n        /* \"#utility.yul\":20921:20995   */\n      swap2\n      pop\n        /* \"#utility.yul\":21004:21097   */\n      tag_388\n        /* \"#utility.yul\":21093:21096   */\n      dup3\n        /* \"#utility.yul\":21004:21097   */\n      tag_165\n      jump\t// in\n    tag_388:\n        /* \"#utility.yul\":21122:21124   */\n      0x20\n        /* \"#utility.yul\":21117:21120   */\n      dup3\n        /* \"#utility.yul\":21113:21125   */\n      add\n        /* \"#utility.yul\":21106:21125   */\n      swap1\n      pop\n        /* \"#utility.yul\":20765:21131   */\n      swap2\n      swap1\n      pop\n      jump\t// out\n        /* \"#utility.yul\":21137:21556   */\n    tag_102:\n        /* \"#utility.yul\":21303:21307   */\n      0x00\n        /* \"#utility.yul\":21341:21343   */\n      0x20\n        /* \"#utility.yul\":21330:21339   */\n      dup3\n        /* \"#utility.yul\":21326:21344   */\n      add\n        /* \"#utility.yul\":21318:21344   */\n      swap1\n      pop\n        /* \"#utility.yul\":21390:21399   */\n      dup2\n        /* \"#utility.yul\":21384:21388   */\n      dup2\n        /* \"#utility.yul\":21380:21400   */\n      sub\n        /* \"#utility.yul\":21376:21377   */\n      0x00\n        /* \"#utility.yul\":21365:21374   */\n      dup4\n        /* \"#utility.yul\":21361:21378   */\n      add\n        /* \"#utility.yul\":21354:21401   */\n      mstore\n        /* \"#utility.yul\":21418:21549   */\n      tag_390\n        /* \"#utility.yul\":21544:21548   */\n      dup2\n        /* \"#utility.yul\":21418:21549   */\n      tag_166\n      jump\t// in\n    tag_390:\n        /* \"#utility.yul\":21410:21549   */\n      swap1\n      pop\n        /* \"#utility.yul\":21137:21556   */\n      swap2\n      swap1\n      pop\n      jump\t// out\n        /* \"#utility.yul\":21562:21894   */\n    tag_104:\n        /* \"#utility.yul\":21683:21687   */\n      0x00\n        /* \"#utility.yul\":21721:21723   */\n      0x40\n        /* \"#utility.yul\":21710:21719   */\n      dup3\n        /* \"#utility.yul\":21706:21724   */\n      add\n        /* \"#utility.yul\":21698:21724   */\n      swap1\n      pop\n        /* \"#utility.yul\":21734:21805   */\n      tag_392\n        /* \"#utility.yul\":21802:21803   */\n      0x00\n        /* \"#utility.yul\":21791:21800   */\n      dup4\n        /* \"#utility.yul\":21787:21804   */\n      add\n        /* \"#utility.yul\":21778:21784   */\n      dup6\n        /* \"#utility.yul\":21734:21805   */\n      tag_124\n      jump\t// in\n    tag_392:\n        /* \"#utility.yul\":21815:21887   */\n      tag_393\n        /* \"#utility.yul\":21883:21885   */\n      0x20\n        /* \"#utility.yul\":21872:21881   */\n      dup4\n        /* \"#utility.yul\":21868:21886   */\n      add\n        /* \"#utility.yul\":21859:21865   */\n      dup5\n        /* \"#utility.yul\":21815:21887   */\n      tag_106\n      jump\t// in\n    tag_393:\n        /* \"#utility.yul\":21562:21894   */\n      swap4\n      swap3\n      pop\n      pop\n      pop\n      jump\t// out\n\n    auxdata: 0xa2646970667358221220cf899f6d56a7ebeb8388016264510f240961c340e9fb814f81742c3466771ac364736f6c634300081a0033\n}\n",
				"bytecode": {
					"linkReferences": {},
					"object": "6080604052600f600255348015610014575f80fd5b506040516116c83803806116c88339818101604052810190610036919061015a565b335f806101000a81548173ffffffffffffffffffffffffffffffffffffffff021916908373ffffffffffffffffffffffffffffffffffffffff1602179055508160035f6101000a81548173ffffffffffffffffffffffffffffffffffffffff021916908373ffffffffffffffffffffffffffffffffffffffff1602179055508060015f6101000a81548173ffffffffffffffffffffffffffffffffffffffff021916908373ffffffffffffffffffffffffffffffffffffffff1602179055505050610198565b5f80fd5b5f73ffffffffffffffffffffffffffffffffffffffff82169050919050565b5f61012982610100565b9050919050565b6101398161011f565b8114610143575f80fd5b50565b5f8151905061015481610130565b92915050565b5f80604083850312156101705761016f6100fc565b5b5f61017d85828601610146565b925050602061018e85828601610146565b9150509250929050565b611523806101a55f395ff3fe608060405234801561000f575f80fd5b5060043610610091575f3560e01c806382367b2d1161006457806382367b2d146101345780638c639a85146101505780638da5cb5b1461016e578063fa2af9da1461018c578063fa3ded90146101aa57610091565b806330efc498146100955780633687fc05146100b3578063513856c8146100e35780636b4a8ae014610116575b5f80fd5b61009d6101c6565b6040516100aa91906109a8565b60405180910390f35b6100cd60048036038101906100c89190610b38565b6101cc565b6040516100da91906109a8565b60405180910390f35b6100fd60048036038101906100f89190610b92565b61033f565b60405161010d9493929190610c76565b60405180910390f35b61011e61041c565b60405161012b9190610d1b565b60405180910390f35b61014e60048036038101906101499190610d34565b610441565b005b6101586105bd565b60405161016591906109a8565b60405180910390f35b6101766105c3565b6040516101839190610d72565b60405180910390f35b6101946105e6565b6040516101a19190610d72565b60405180910390f35b6101c460048036038101906101bf9190610b92565b61060b565b005b60055481565b5f80831161020f576040517f08c379a000000000000000000000000000000000000000000000000000000000815260040161020690610dd5565b60405180910390fd5b5f60055f81548092919061022290610e20565b91905055905060405180608001604052803373ffffffffffffffffffffffffffffffffffffffff1681526020018581526020016001151581526020018481525060045f8381526020019081526020015f205f820151815f015f6101000a81548173ffffffffffffffffffffffffffffffffffffffff021916908373ffffffffffffffffffffffffffffffffffffffff160217905550602082015181600101556040820151816002015f6101000a81548160ff02191690831515021790555060608201518160030190816102f59190611058565b50905050807f105f92e9d1e7880e6a383d06a0b916d961ebd471d6b19d11f335b4213c98939733868660405161032d93929190611127565b60405180910390a28091505092915050565b6004602052805f5260405f205f91509050805f015f9054906101000a900473ffffffffffffffffffffffffffffffffffffffff1690806001015490806002015f9054906101000a900460ff169080600301805461039b90610e94565b80601f01602080910402602001604051908101604052809291908181526020018280546103c790610e94565b80156104125780601f106103e957610100808354040283529160200191610412565b820191905f5260205f20905b8154815290600101906020018083116103f557829003601f168201915b5050505050905084565b60035f9054906101000a900473ffffffffffffffffffffffffffffffffffffffff1681565b5f60045f8481526020019081526020015f209050805f015f9054906101000a900473ffffffffffffffffffffffffffffffffffffffff1673ffffffffffffffffffffffffffffffffffffffff163373ffffffffffffffffffffffffffffffffffffffff16146104e5576040517f08c379a00000000000000000000000000000000000000000000000000000000081526004016104dc906111ad565b60405180910390fd5b806002015f9054906101000a900460ff16610535576040517f08c379a000000000000000000000000000000000000000000000000000000000815260040161052c90611215565b60405180910390fd5b5f8211610577576040517f08c379a000000000000000000000000000000000000000000000000000000000815260040161056e90610dd5565b60405180910390fd5b818160010181905550827f945c1c4e99aa89f648fbfe3df471b916f719e16d960fcec0737d4d56bd696838836040516105b091906109a8565b60405180910390a2505050565b60025481565b5f8054906101000a900473ffffffffffffffffffffffffffffffffffffffff1681565b60015f9054906101000a900473ffffffffffffffffffffffffffffffffffffffff1681565b5f60045f8381526020019081526020015f209050806002015f9054906101000a900460ff1661066f576040517f08c379a000000000000000000000000000000000000000000000000000000000815260040161066690611215565b60405180910390fd5b805f015f9054906101000a900473ffffffffffffffffffffffffffffffffffffffff1673ffffffffffffffffffffffffffffffffffffffff163373ffffffffffffffffffffffffffffffffffffffff16036106ff576040517f08c379a00000000000000000000000000000000000000000000000000000000081526004016106f69061127d565b60405180910390fd5b5f6103e86002548360010154610715919061129b565b61071f9190611309565b90505f8183600101546107329190611339565b905060035f9054906101000a900473ffffffffffffffffffffffffffffffffffffffff1673ffffffffffffffffffffffffffffffffffffffff166323b872dd3360015f9054906101000a900473ffffffffffffffffffffffffffffffffffffffff16856040518463ffffffff1660e01b81526004016107b39392919061136c565b6020604051808303815f875af11580156107cf573d5f803e3d5ffd5b505050506040513d601f19601f820116820180604052508101906107f391906113cb565b610832576040517f08c379a000000000000000000000000000000000000000000000000000000000815260040161082990611440565b60405180910390fd5b60035f9054906101000a900473ffffffffffffffffffffffffffffffffffffffff1673ffffffffffffffffffffffffffffffffffffffff166323b872dd33855f015f9054906101000a900473ffffffffffffffffffffffffffffffffffffffff16846040518463ffffffff1660e01b81526004016108b29392919061136c565b6020604051808303815f875af11580156108ce573d5f803e3d5ffd5b505050506040513d601f19601f820116820180604052508101906108f291906113cb565b610931576040517f08c379a0000000000000000000000000000000000000000000000000000000008152600401610928906114a8565b60405180910390fd5b837fe53cfc2fcaa7beb2b2b6fe1a55c9bdfbe04dbafc568d0819627fd852ea2863ed3385600101546040516109679291906114c6565b60405180910390a25f836002015f6101000a81548160ff02191690831515021790555050505050565b5f819050919050565b6109a281610990565b82525050565b5f6020820190506109bb5f830184610999565b92915050565b5f604051905090565b5f80fd5b5f80fd5b6109db81610990565b81146109e5575f80fd5b50565b5f813590506109f6816109d2565b92915050565b5f80fd5b5f80fd5b5f601f19601f8301169050919050565b7f4e487b71000000000000000000000000000000000000000000000000000000005f52604160045260245ffd5b610a4a82610a04565b810181811067ffffffffffffffff82111715610a6957610a68610a14565b5b80604052505050565b5f610a7b6109c1565b9050610a878282610a41565b919050565b5f67ffffffffffffffff821115610aa657610aa5610a14565b5b610aaf82610a04565b9050602081019050919050565b828183375f83830152505050565b5f610adc610ad784610a8c565b610a72565b905082815260208101848484011115610af857610af7610a00565b5b610b03848285610abc565b509392505050565b5f82601f830112610b1f57610b1e6109fc565b5b8135610b2f848260208601610aca565b91505092915050565b5f8060408385031215610b4e57610b4d6109ca565b5b5f610b5b858286016109e8565b925050602083013567ffffffffffffffff811115610b7c57610b7b6109ce565b5b610b8885828601610b0b565b9150509250929050565b5f60208284031215610ba757610ba66109ca565b5b5f610bb4848285016109e8565b91505092915050565b5f73ffffffffffffffffffffffffffffffffffffffff82169050919050565b5f610be682610bbd565b9050919050565b610bf681610bdc565b82525050565b5f8115159050919050565b610c1081610bfc565b82525050565b5f81519050919050565b5f82825260208201905092915050565b8281835e5f83830152505050565b5f610c4882610c16565b610c528185610c20565b9350610c62818560208601610c30565b610c6b81610a04565b840191505092915050565b5f608082019050610c895f830187610bed565b610c966020830186610999565b610ca36040830185610c07565b8181036060830152610cb58184610c3e565b905095945050505050565b5f819050919050565b5f610ce3610cde610cd984610bbd565b610cc0565b610bbd565b9050919050565b5f610cf482610cc9565b9050919050565b5f610d0582610cea565b9050919050565b610d1581610cfb565b82525050565b5f602082019050610d2e5f830184610d0c565b92915050565b5f8060408385031215610d4a57610d496109ca565b5b5f610d57858286016109e8565b9250506020610d68858286016109e8565b9150509250929050565b5f602082019050610d855f830184610bed565b92915050565b7f5072696365206d7573742062652067726561746572207468616e2030000000005f82015250565b5f610dbf601c83610c20565b9150610dca82610d8b565b602082019050919050565b5f6020820190508181035f830152610dec81610db3565b9050919050565b7f4e487b71000000000000000000000000000000000000000000000000000000005f52601160045260245ffd5b5f610e2a82610990565b91507fffffffffffffffffffffffffffffffffffffffffffffffffffffffffffffffff8203610e5c57610e5b610df3565b5b600182019050919050565b7f4e487b71000000000000000000000000000000000000000000000000000000005f52602260045260245ffd5b5f6002820490506001821680610eab57607f821691505b602082108103610ebe57610ebd610e67565b5b50919050565b5f819050815f5260205f209050919050565b5f6020601f8301049050919050565b5f82821b905092915050565b5f60088302610f207fffffffffffffffffffffffffffffffffffffffffffffffffffffffffffffffff82610ee5565b610f2a8683610ee5565b95508019841693508086168417925050509392505050565b5f610f5c610f57610f5284610990565b610cc0565b610990565b9050919050565b5f819050919050565b610f7583610f42565b610f89610f8182610f63565b848454610ef1565b825550505050565b5f90565b610f9d610f91565b610fa8818484610f6c565b505050565b5b81811015610fcb57610fc05f82610f95565b600181019050610fae565b5050565b601f82111561101057610fe181610ec4565b610fea84610ed6565b81016020851015610ff9578190505b61100d61100585610ed6565b830182610fad565b50505b505050565b5f82821c905092915050565b5f6110305f1984600802611015565b1980831691505092915050565b5f6110488383611021565b9150826002028217905092915050565b61106182610c16565b67ffffffffffffffff81111561107a57611079610a14565b5b6110848254610e94565b61108f828285610fcf565b5f60209050601f8311600181146110c0575f84156110ae578287015190505b6110b8858261103d565b86555061111f565b601f1984166110ce86610ec4565b5f5b828110156110f5578489015182556001820191506020850194506020810190506110d0565b86831015611112578489015161110e601f891682611021565b8355505b6001600288020188555050505b505050505050565b5f60608201905061113a5f830186610bed565b6111476020830185610999565b81810360408301526111598184610c3e565b9050949350505050565b7f4f6e6c792073656c6c65722063616e20757064617465207072696365000000005f82015250565b5f611197601c83610c20565b91506111a282611163565b602082019050919050565b5f6020820190508181035f8301526111c48161118b565b9050919050565b7f4167656e74206e6f74206c6973746564000000000000000000000000000000005f82015250565b5f6111ff601083610c20565b915061120a826111cb565b602082019050919050565b5f6020820190508181035f83015261122c816111f3565b9050919050565b7f43616e6e6f742062757920796f7572206f776e206167656e74000000000000005f82015250565b5f611267601983610c20565b915061127282611233565b602082019050919050565b5f6020820190508181035f8301526112948161125b565b9050919050565b5f6112a582610990565b91506112b083610990565b92508282026112be81610990565b915082820484148315176112d5576112d4610df3565b5b5092915050565b7f4e487b71000000000000000000000000000000000000000000000000000000005f52601260045260245ffd5b5f61131382610990565b915061131e83610990565b92508261132e5761132d6112dc565b5b828204905092915050565b5f61134382610990565b915061134e83610990565b925082820390508181111561136657611365610df3565b5b92915050565b5f60608201905061137f5f830186610bed565b61138c6020830185610bed565b6113996040830184610999565b949350505050565b6113aa81610bfc565b81146113b4575f80fd5b50565b5f815190506113c5816113a1565b92915050565b5f602082840312156113e0576113df6109ca565b5b5f6113ed848285016113b7565b91505092915050565b7f506c6174666f726d20666565207472616e73666572206661696c6564000000005f82015250565b5f61142a601c83610c20565b9150611435826113f6565b602082019050919050565b5f6020820190508181035f8301526114578161141e565b9050919050565b7f53656c6c6572207472616e73666572206661696c6564000000000000000000005f82015250565b5f611492601683610c20565b915061149d8261145e565b602082019050919050565b5f6020820190508181035f8301526114bf81611486565b9050919050565b5f6040820190506114d95f830185610bed565b6114e66020830184610999565b939250505056fea2646970667358221220cf899f6d56a7ebeb8388016264510f240961c340e9fb814f81742c3466771ac364736f6c634300081a0033",
					"opcodes": "PUSH1 0x80 PUSH1 0x40 MSTORE PUSH1 0xF PUSH1 0x2 SSTORE CALLVALUE DUP1 ISZERO PUSH2 0x14 JUMPI PUSH0 DUP1 REVERT JUMPDEST POP PUSH1 0x40 MLOAD PUSH2 0x16C8 CODESIZE SUB DUP1 PUSH2 0x16C8 DUP4 CODECOPY DUP2 DUP2 ADD PUSH1 0x40 MSTORE DUP2 ADD SWAP1 PUSH2 0x36 SWAP2 SWAP1 PUSH2 0x15A JUMP JUMPDEST CALLER PUSH0 DUP1 PUSH2 0x100 EXP DUP2 SLOAD DUP2 PUSH20 0xFFFFFFFFFFFFFFFFFFFFFFFFFFFFFFFFFFFFFFFF MUL NOT AND SWAP1 DUP4 PUSH20 0xFFFFFFFFFFFFFFFFFFFFFFFFFFFFFFFFFFFFFFFF AND MUL OR SWAP1 SSTORE POP DUP2 PUSH1 0x3 PUSH0 PUSH2 0x100 EXP DUP2 SLOAD DUP2 PUSH20 0xFFFFFFFFFFFFFFFFFFFFFFFFFFFFFFFFFFFFFFFF MUL NOT AND SWAP1 DUP4 PUSH20 0xFFFFFFFFFFFFFFFFFFFFFFFFFFFFFFFFFFFFFFFF AND MUL OR SWAP1 SSTORE POP DUP1 PUSH1 0x1 PUSH0 PUSH2 0x100 EXP DUP2 SLOAD DUP2 PUSH20 0xFFFFFFFFFFFFFFFFFFFFFFFFFFFFFFFFFFFFFFFF MUL NOT AND SWAP1 DUP4 PUSH20 0xFFFFFFFFFFFFFFFFFFFFFFFFFFFFFFFFFFFFFFFF AND MUL OR SWAP1 SSTORE POP POP POP PUSH2 0x198 JUMP JUMPDEST PUSH0 DUP1 REVERT JUMPDEST PUSH0 PUSH20 0xFFFFFFFFFFFFFFFFFFFFFFFFFFFFFFFFFFFFFFFF DUP3 AND SWAP1 POP SWAP2 SWAP1 POP JUMP JUMPDEST PUSH0 PUSH2 0x129 DUP3 PUSH2 0x100 JUMP JUMPDEST SWAP1 POP SWAP2 SWAP1 POP JUMP JUMPDEST PUSH2 0x139 DUP2 PUSH2 0x11F JUMP JUMPDEST DUP2 EQ PUSH2 0x143 JUMPI PUSH0 DUP1 REVERT JUMPDEST POP JUMP JUMPDEST PUSH0 DUP2 MLOAD SWAP1 POP PUSH2 0x154 DUP2 PUSH2 0x130 JUMP JUMPDEST SWAP3 SWAP2 POP POP JUMP JUMPDEST PUSH0 DUP1 PUSH1 0x40 DUP4 DUP6 SUB SLT ISZERO PUSH2 0x170 JUMPI PUSH2 0x16F PUSH2 0xFC JUMP JUMPDEST JUMPDEST PUSH0 PUSH2 0x17D DUP6 DUP3 DUP7 ADD PUSH2 0x146 JUMP JUMPDEST SWAP3 POP POP PUSH1 0x20 PUSH2 0x18E DUP6 DUP3 DUP7 ADD PUSH2 0x146 JUMP JUMPDEST SWAP2 POP POP SWAP3 POP SWAP3 SWAP1 POP JUMP JUMPDEST PUSH2 0x1523 DUP1 PUSH2 0x1A5 PUSH0 CODECOPY PUSH0 RETURN INVALID PUSH1 0x80 PUSH1 0x40 MSTORE CALLVALUE DUP1 ISZERO PUSH2 0xF JUMPI PUSH0 DUP1 REVERT JUMPDEST POP PUSH1 0x4 CALLDATASIZE LT PUSH2 0x91 JUMPI PUSH0 CALLDATALOAD PUSH1 0xE0 SHR DUP1 PUSH4 0x82367B2D GT PUSH2 0x64 JUMPI DUP1 PUSH4 0x82367B2D EQ PUSH2 0x134 JUMPI DUP1 PUSH4 0x8C639A85 EQ PUSH2 0x150 JUMPI DUP1 PUSH4 0x8DA5CB5B EQ PUSH2 0x16E JUMPI DUP1 PUSH4 0xFA2AF9DA EQ PUSH2 0x18C JUMPI DUP1 PUSH4 0xFA3DED90 EQ PUSH2 0x1AA JUMPI PUSH2 0x91 JUMP JUMPDEST DUP1 PUSH4 0x30EFC498 EQ PUSH2 0x95 JUMPI DUP1 PUSH4 0x3687FC05 EQ PUSH2 0xB3 JUMPI DUP1 PUSH4 0x513856C8 EQ PUSH2 0xE3 JUMPI DUP1 PUSH4 0x6B4A8AE0 EQ PUSH2 0x116 JUMPI JUMPDEST PUSH0 DUP1 REVERT JUMPDEST PUSH2 0x9D PUSH2 0x1C6 JUMP JUMPDEST PUSH1 0x40 MLOAD PUSH2 0xAA SWAP2 SWAP1 PUSH2 0x9A8 JUMP JUMPDEST PUSH1 0x40 MLOAD DUP1 SWAP2 SUB SWAP1 RETURN JUMPDEST PUSH2 0xCD PUSH1 0x4 DUP1 CALLDATASIZE SUB DUP2 ADD SWAP1 PUSH2 0xC8 SWAP2 SWAP1 PUSH2 0xB38 JUMP JUMPDEST PUSH2 0x1CC JUMP JUMPDEST PUSH1 0x40 MLOAD PUSH2 0xDA SWAP2 SWAP1 PUSH2 0x9A8 JUMP JUMPDEST PUSH1 0x40 MLOAD DUP1 SWAP2 SUB SWAP1 RETURN JUMPDEST PUSH2 0xFD PUSH1 0x4 DUP1 CALLDATASIZE SUB DUP2 ADD SWAP1 PUSH2 0xF8 SWAP2 SWAP1 PUSH2 0xB92 JUMP JUMPDEST PUSH2 0x33F JUMP JUMPDEST PUSH1 0x40 MLOAD PUSH2 0x10D SWAP5 SWAP4 SWAP3 SWAP2 SWAP1 PUSH2 0xC76 JUMP JUMPDEST PUSH1 0x40 MLOAD DUP1 SWAP2 SUB SWAP1 RETURN JUMPDEST PUSH2 0x11E PUSH2 0x41C JUMP JUMPDEST PUSH1 0x40 MLOAD PUSH2 0x12B SWAP2 SWAP1 PUSH2 0xD1B JUMP JUMPDEST PUSH1 0x40 MLOAD DUP1 SWAP2 SUB SWAP1 RETURN JUMPDEST PUSH2 0x14E PUSH1 0x4 DUP1 CALLDATASIZE SUB DUP2 ADD SWAP1 PUSH2 0x149 SWAP2 SWAP1 PUSH2 0xD34 JUMP JUMPDEST PUSH2 0x441 JUMP JUMPDEST STOP JUMPDEST PUSH2 0x158 PUSH2 0x5BD JUMP JUMPDEST PUSH1 0x40 MLOAD PUSH2 0x165 SWAP2 SWAP1 PUSH2 0x9A8 JUMP JUMPDEST PUSH1 0x40 MLOAD DUP1 SWAP2 SUB SWAP1 RETURN JUMPDEST PUSH2 0x176 PUSH2 0x5C3 JUMP JUMPDEST PUSH1 0x40 MLOAD PUSH2 0x183 SWAP2 SWAP1 PUSH2 0xD72 JUMP JUMPDEST PUSH1 0x40 MLOAD DUP1 SWAP2 SUB SWAP1 RETURN JUMPDEST PUSH2 0x194 PUSH2 0x5E6 JUMP JUMPDEST PUSH1 0x40 MLOAD PUSH2 0x1A1 SWAP2 SWAP1 PUSH2 0xD72 JUMP JUMPDEST PUSH1 0x40 MLOAD DUP1 SWAP2 SUB SWAP1 RETURN JUMPDEST PUSH2 0x1C4 PUSH1 0x4 DUP1 CALLDATASIZE SUB DUP2 ADD SWAP1 PUSH2 0x1BF SWAP2 SWAP1 PUSH2 0xB92 JUMP JUMPDEST PUSH2 0x60B JUMP JUMPDEST STOP JUMPDEST PUSH1 0x5 SLOAD DUP2 JUMP JUMPDEST PUSH0 DUP1 DUP4 GT PUSH2 0x20F JUMPI PUSH1 0x40 MLOAD PUSH32 0x8C379A000000000000000000000000000000000000000000000000000000000 DUP2 MSTORE PUSH1 0x4 ADD PUSH2 0x206 SWAP1 PUSH2 0xDD5 JUMP JUMPDEST PUSH1 0x40 MLOAD DUP1 SWAP2 SUB SWAP1 REVERT JUMPDEST PUSH0 PUSH1 0x5 PUSH0 DUP2 SLOAD DUP1 SWAP3 SWAP2 SWAP1 PUSH2 0x222 SWAP1 PUSH2 0xE20 JUMP JUMPDEST SWAP2 SWAP1 POP SSTORE SWAP1 POP PUSH1 0x40 MLOAD DUP1 PUSH1 0x80 ADD PUSH1 0x40 MSTORE DUP1 CALLER PUSH20 0xFFFFFFFFFFFFFFFFFFFFFFFFFFFFFFFFFFFFFFFF AND DUP2 MSTORE PUSH1 0x20 ADD DUP6 DUP2 MSTORE PUSH1 0x20 ADD PUSH1 0x1 ISZERO ISZERO DUP2 MSTORE PUSH1 0x20 ADD DUP5 DUP2 MSTORE POP PUSH1 0x4 PUSH0 DUP4 DUP2 MSTORE PUSH1 0x20 ADD SWAP1 DUP2 MSTORE PUSH1 0x20 ADD PUSH0 KECCAK256 PUSH0 DUP3 ADD MLOAD DUP2 PUSH0 ADD PUSH0 PUSH2 0x100 EXP DUP2 SLOAD DUP2 PUSH20 0xFFFFFFFFFFFFFFFFFFFFFFFFFFFFFFFFFFFFFFFF MUL NOT AND SWAP1 DUP4 PUSH20 0xFFFFFFFFFFFFFFFFFFFFFFFFFFFFFFFFFFFFFFFF AND MUL OR SWAP1 SSTORE POP PUSH1 0x20 DUP3 ADD MLOAD DUP2 PUSH1 0x1 ADD SSTORE PUSH1 0x40 DUP3 ADD MLOAD DUP2 PUSH1 0x2 ADD PUSH0 PUSH2 0x100 EXP DUP2 SLOAD DUP2 PUSH1 0xFF MUL NOT AND SWAP1 DUP4 ISZERO ISZERO MUL OR SWAP1 SSTORE POP PUSH1 0x60 DUP3 ADD MLOAD DUP2 PUSH1 0x3 ADD SWAP1 DUP2 PUSH2 0x2F5 SWAP2 SWAP1 PUSH2 0x1058 JUMP JUMPDEST POP SWAP1 POP POP DUP1 PUSH32 0x105F92E9D1E7880E6A383D06A0B916D961EBD471D6B19D11F335B4213C989397 CALLER DUP7 DUP7 PUSH1 0x40 MLOAD PUSH2 0x32D SWAP4 SWAP3 SWAP2 SWAP1 PUSH2 0x1127 JUMP JUMPDEST PUSH1 0x40 MLOAD DUP1 SWAP2 SUB SWAP1 LOG2 DUP1 SWAP2 POP POP SWAP3 SWAP2 POP POP JUMP JUMPDEST PUSH1 0x4 PUSH1 0x20 MSTORE DUP1 PUSH0 MSTORE PUSH1 0x40 PUSH0 KECCAK256 PUSH0 SWAP2 POP SWAP1 POP DUP1 PUSH0 ADD PUSH0 SWAP1 SLOAD SWAP1 PUSH2 0x100 EXP SWAP1 DIV PUSH20 0xFFFFFFFFFFFFFFFFFFFFFFFFFFFFFFFFFFFFFFFF AND SWAP1 DUP1 PUSH1 0x1 ADD SLOAD SWAP1 DUP1 PUSH1 0x2 ADD PUSH0 SWAP1 SLOAD SWAP1 PUSH2 0x100 EXP SWAP1 DIV PUSH1 0xFF AND SWAP1 DUP1 PUSH1 0x3 ADD DUP1 SLOAD PUSH2 0x39B SWAP1 PUSH2 0xE94 JUMP JUMPDEST DUP1 PUSH1 0x1F ADD PUSH1 0x20 DUP1 SWAP2 DIV MUL PUSH1 0x20 ADD PUSH1 0x40 MLOAD SWAP1 DUP2 ADD PUSH1 0x40 MSTORE DUP1 SWAP3 SWAP2 SWAP1 DUP2 DUP2 MSTORE PUSH1 0x20 ADD DUP3 DUP1 SLOAD PUSH2 0x3C7 SWAP1 PUSH2 0xE94 JUMP JUMPDEST DUP1 ISZERO PUSH2 0x412 JUMPI DUP1 PUSH1 0x1F LT PUSH2 0x3E9 JUMPI PUSH2 0x100 DUP1 DUP4 SLOAD DIV MUL DUP4 MSTORE SWAP2 PUSH1 0x20 ADD SWAP2 PUSH2 0x412 JUMP JUMPDEST DUP3 ADD SWAP2 SWAP1 PUSH0 MSTORE PUSH1 0x20 PUSH0 KECCAK256 SWAP1 JUMPDEST DUP2 SLOAD DUP2 MSTORE SWAP1 PUSH1 0x1 ADD SWAP1 PUSH1 0x20 ADD DUP1 DUP4 GT PUSH2 0x3F5 JUMPI DUP3 SWAP1 SUB PUSH1 0x1F AND DUP3 ADD SWAP2 JUMPDEST POP POP POP POP POP SWAP1 POP DUP5 JUMP JUMPDEST PUSH1 0x3 PUSH0 SWAP1 SLOAD SWAP1 PUSH2 0x100 EXP SWAP1 DIV PUSH20 0xFFFFFFFFFFFFFFFFFFFFFFFFFFFFFFFFFFFFFFFF AND DUP2 JUMP JUMPDEST PUSH0 PUSH1 0x4 PUSH0 DUP5 DUP2 MSTORE PUSH1 0x20 ADD SWAP1 DUP2 MSTORE PUSH1 0x20 ADD PUSH0 KECCAK256 SWAP1 POP DUP1 PUSH0 ADD PUSH0 SWAP1 SLOAD SWAP1 PUSH2 0x100 EXP SWAP1 DIV PUSH20 0xFFFFFFFFFFFFFFFFFFFFFFFFFFFFFFFFFFFFFFFF AND PUSH20 0xFFFFFFFFFFFFFFFFFFFFFFFFFFFFFFFFFFFFFFFF AND CALLER PUSH20 0xFFFFFFFFFFFFFFFFFFFFFFFFFFFFFFFFFFFFFFFF AND EQ PUSH2 0x4E5 JUMPI PUSH1 0x40 MLOAD PUSH32 0x8C379A000000000000000000000000000000000000000000000000000000000 DUP2 MSTORE PUSH1 0x4 ADD PUSH2 0x4DC SWAP1 PUSH2 0x11AD JUMP JUMPDEST PUSH1 0x40 MLOAD DUP1 SWAP2 SUB SWAP1 REVERT JUMPDEST DUP1 PUSH1 0x2 ADD PUSH0 SWAP1 SLOAD SWAP1 PUSH2 0x100 EXP SWAP1 DIV PUSH1 0xFF AND PUSH2 0x535 JUMPI PUSH1 0x40 MLOAD PUSH32 0x8C379A000000000000000000000000000000000000000000000000000000000 DUP2 MSTORE PUSH1 0x4 ADD PUSH2 0x52C SWAP1 PUSH2 0x1215 JUMP JUMPDEST PUSH1 0x40 MLOAD DUP1 SWAP2 SUB SWAP1 REVERT JUMPDEST PUSH0 DUP3 GT PUSH2 0x577 JUMPI PUSH1 0x40 MLOAD PUSH32 0x8C379A000000000000000000000000000000000000000000000000000000000 DUP2 MSTORE PUSH1 0x4 ADD PUSH2 0x56E SWAP1 PUSH2 0xDD5 JUMP JUMPDEST PUSH1 0x40 MLOAD DUP1 SWAP2 SUB SWAP1 REVERT JUMPDEST DUP2 DUP2 PUSH1 0x1 ADD DUP2 SWAP1 SSTORE POP DUP3 PUSH32 0x945C1C4E99AA89F648FBFE3DF471B916F719E16D960FCEC0737D4D56BD696838 DUP4 PUSH1 0x40 MLOAD PUSH2 0x5B0 SWAP2 SWAP1 PUSH2 0x9A8 JUMP JUMPDEST PUSH1 0x40 MLOAD DUP1 SWAP2 SUB SWAP1 LOG2 POP POP POP JUMP JUMPDEST PUSH1 0x2 SLOAD DUP2 JUMP JUMPDEST PUSH0 DUP1 SLOAD SWAP1 PUSH2 0x100 EXP SWAP1 DIV PUSH20 0xFFFFFFFFFFFFFFFFFFFFFFFFFFFFFFFFFFFFFFFF AND DUP2 JUMP JUMPDEST PUSH1 0x1 PUSH0 SWAP1 SLOAD SWAP1 PUSH2 0x100 EXP SWAP1 DIV PUSH20 0xFFFFFFFFFFFFFFFFFFFFFFFFFFFFFFFFFFFFFFFF AND DUP2 JUMP JUMPDEST PUSH0 PUSH1 0x4 PUSH0 DUP4 DUP2 MSTORE PUSH1 0x20 ADD SWAP1 DUP2 MSTORE PUSH1 0x20 ADD PUSH0 KECCAK256 SWAP1 POP DUP1 PUSH1 0x2 ADD PUSH0 SWAP1 SLOAD SWAP1 PUSH2 0x100 EXP SWAP1 DIV PUSH1 0xFF AND PUSH2 0x66F JUMPI PUSH1 0x40 MLOAD PUSH32 0x8C379A000000000000000000000000000000000000000000000000000000000 DUP2 MSTORE PUSH1 0x4 ADD PUSH2 0x666 SWAP1 PUSH2 0x1215 JUMP JUMPDEST PUSH1 0x40 MLOAD DUP1 SWAP2 SUB SWAP1 REVERT JUMPDEST DUP1 PUSH0 ADD PUSH0 SWAP1 SLOAD SWAP1 PUSH2 0x100 EXP SWAP1 DIV PUSH20 0xFFFFFFFFFFFFFFFFFFFFFFFFFFFFFFFFFFFFFFFF AND PUSH20 0xFFFFFFFFFFFFFFFFFFFFFFFFFFFFFFFFFFFFFFFF AND CALLER PUSH20 0xFFFFFFFFFFFFFFFFFFFFFFFFFFFFFFFFFFFFFFFF AND SUB PUSH2 0x6FF JUMPI PUSH1 0x40 MLOAD PUSH32 0x8C379A000000000000000000000000000000000000000000000000000000000 DUP2 MSTORE PUSH1 0x4 ADD PUSH2 0x6F6 SWAP1 PUSH2 0x127D JUMP JUMPDEST PUSH1 0x40 MLOAD DUP1 SWAP2 SUB SWAP1 REVERT JUMPDEST PUSH0 PUSH2 0x3E8 PUSH1 0x2 SLOAD DUP4 PUSH1 0x1 ADD SLOAD PUSH2 0x715 SWAP2 SWAP1 PUSH2 0x129B JUMP JUMPDEST PUSH2 0x71F SWAP2 SWAP1 PUSH2 0x1309 JUMP JUMPDEST SWAP1 POP PUSH0 DUP2 DUP4 PUSH1 0x1 ADD SLOAD PUSH2 0x732 SWAP2 SWAP1 PUSH2 0x1339 JUMP JUMPDEST SWAP1 POP PUSH1 0x3 PUSH0 SWAP1 SLOAD SWAP1 PUSH2 0x100 EXP SWAP1 DIV PUSH20 0xFFFFFFFFFFFFFFFFFFFFFFFFFFFFFFFFFFFFFFFF AND PUSH20 0xFFFFFFFFFFFFFFFFFFFFFFFFFFFFFFFFFFFFFFFF AND PUSH4 0x23B872DD CALLER PUSH1 0x1 PUSH0 SWAP1 SLOAD SWAP1 PUSH2 0x100 EXP SWAP1 DIV PUSH20 0xFFFFFFFFFFFFFFFFFFFFFFFFFFFFFFFFFFFFFFFF AND DUP6 PUSH1 0x40 MLOAD DUP5 PUSH4 0xFFFFFFFF AND PUSH1 0xE0 SHL DUP2 MSTORE PUSH1 0x4 ADD PUSH2 0x7B3 SWAP4 SWAP3 SWAP2 SWAP1 PUSH2 0x136C JUMP JUMPDEST PUSH1 0x20 PUSH1 0x40 MLOAD DUP1 DUP4 SUB DUP2 PUSH0 DUP8 GAS CALL ISZERO DUP1 ISZERO PUSH2 0x7CF JUMPI RETURNDATASIZE PUSH0 DUP1 RETURNDATACOPY RETURNDATASIZE PUSH0 REVERT JUMPDEST POP POP POP POP PUSH1 0x40 MLOAD RETURNDATASIZE PUSH1 0x1F NOT PUSH1 0x1F DUP3 ADD AND DUP3 ADD DUP1 PUSH1 0x40 MSTORE POP DUP2 ADD SWAP1 PUSH2 0x7F3 SWAP2 SWAP1 PUSH2 0x13CB JUMP JUMPDEST PUSH2 0x832 JUMPI PUSH1 0x40 MLOAD PUSH32 0x8C379A000000000000000000000000000000000000000000000000000000000 DUP2 MSTORE PUSH1 0x4 ADD PUSH2 0x829 SWAP1 PUSH2 0x1440 JUMP JUMPDEST PUSH1 0x40 MLOAD DUP1 SWAP2 SUB SWAP1 REVERT JUMPDEST PUSH1 0x3 PUSH0 SWAP1 SLOAD SWAP1 PUSH2 0x100 EXP SWAP1 DIV PUSH20 0xFFFFFFFFFFFFFFFFFFFFFFFFFFFFFFFFFFFFFFFF AND PUSH20 0xFFFFFFFFFFFFFFFFFFFFFFFFFFFFFFFFFFFFFFFF AND PUSH4 0x23B872DD CALLER DUP6 PUSH0 ADD PUSH0 SWAP1 SLOAD SWAP1 PUSH2 0x100 EXP SWAP1 DIV PUSH20 0xFFFFFFFFFFFFFFFFFFFFFFFFFFFFFFFFFFFFFFFF AND DUP5 PUSH1 0x40 MLOAD DUP5 PUSH4 0xFFFFFFFF AND PUSH1 0xE0 SHL DUP2 MSTORE PUSH1 0x4 ADD PUSH2 0x8B2 SWAP4 SWAP3 SWAP2 SWAP1 PUSH2 0x136C JUMP JUMPDEST PUSH1 0x20 PUSH1 0x40 MLOAD DUP1 DUP4 SUB DUP2 PUSH0 DUP8 GAS CALL ISZERO DUP1 ISZERO PUSH2 0x8CE JUMPI RETURNDATASIZE PUSH0 DUP1 RETURNDATACOPY RETURNDATASIZE PUSH0 REVERT JUMPDEST POP POP POP POP PUSH1 0x40 MLOAD RETURNDATASIZE PUSH1 0x1F NOT PUSH1 0x1F DUP3 ADD AND DUP3 ADD DUP1 PUSH1 0x40 MSTORE POP DUP2 ADD SWAP1 PUSH2 0x8F2 SWAP2 SWAP1 PUSH2 0x13CB JUMP JUMPDEST PUSH2 0x931 JUMPI PUSH1 0x40 MLOAD PUSH32 0x8C379A000000000000000000000000000000000000000000000000000000000 DUP2 MSTORE PUSH1 0x4 ADD PUSH2 0x928 SWAP1 PUSH2 0x14A8 JUMP JUMPDEST PUSH1 0x40 MLOAD DUP1 SWAP2 SUB SWAP1 REVERT JUMPDEST DUP4 PUSH32 0xE53CFC2FCAA7BEB2B2B6FE1A55C9BDFBE04DBAFC568D0819627FD852EA2863ED CALLER DUP6 PUSH1 0x1 ADD SLOAD PUSH1 0x40 MLOAD PUSH2 0x967 SWAP3 SWAP2 SWAP1 PUSH2 0x14C6 JUMP JUMPDEST PUSH1 0x40 MLOAD DUP1 SWAP2 SUB SWAP1 LOG2 PUSH0 DUP4 PUSH1 0x2 ADD PUSH0 PUSH2 0x100 EXP DUP2 SLOAD DUP2 PUSH1 0xFF MUL NOT AND SWAP1 DUP4 ISZERO ISZERO MUL OR SWAP1 SSTORE POP POP POP POP POP JUMP JUMPDEST PUSH0 DUP2 SWAP1 POP SWAP2 SWAP1 POP JUMP JUMPDEST PUSH2 0x9A2 DUP2 PUSH2 0x990 JUMP JUMPDEST DUP3 MSTORE POP POP JUMP JUMPDEST PUSH0 PUSH1 0x20 DUP3 ADD SWAP1 POP PUSH2 0x9BB PUSH0 DUP4 ADD DUP5 PUSH2 0x999 JUMP JUMPDEST SWAP3 SWAP2 POP POP JUMP JUMPDEST PUSH0 PUSH1 0x40 MLOAD SWAP1 POP SWAP1 JUMP JUMPDEST PUSH0 DUP1 REVERT JUMPDEST PUSH0 DUP1 REVERT JUMPDEST PUSH2 0x9DB DUP2 PUSH2 0x990 JUMP JUMPDEST DUP2 EQ PUSH2 0x9E5 JUMPI PUSH0 DUP1 REVERT JUMPDEST POP JUMP JUMPDEST PUSH0 DUP2 CALLDATALOAD SWAP1 POP PUSH2 0x9F6 DUP2 PUSH2 0x9D2 JUMP JUMPDEST SWAP3 SWAP2 POP POP JUMP JUMPDEST PUSH0 DUP1 REVERT JUMPDEST PUSH0 DUP1 REVERT JUMPDEST PUSH0 PUSH1 0x1F NOT PUSH1 0x1F DUP4 ADD AND SWAP1 POP SWAP2 SWAP1 POP JUMP JUMPDEST PUSH32 0x4E487B7100000000000000000000000000000000000000000000000000000000 PUSH0 MSTORE PUSH1 0x41 PUSH1 0x4 MSTORE PUSH1 0x24 PUSH0 REVERT JUMPDEST PUSH2 0xA4A DUP3 PUSH2 0xA04 JUMP JUMPDEST DUP2 ADD DUP2 DUP2 LT PUSH8 0xFFFFFFFFFFFFFFFF DUP3 GT OR ISZERO PUSH2 0xA69 JUMPI PUSH2 0xA68 PUSH2 0xA14 JUMP JUMPDEST JUMPDEST DUP1 PUSH1 0x40 MSTORE POP POP POP JUMP JUMPDEST PUSH0 PUSH2 0xA7B PUSH2 0x9C1 JUMP JUMPDEST SWAP1 POP PUSH2 0xA87 DUP3 DUP3 PUSH2 0xA41 JUMP JUMPDEST SWAP2 SWAP1 POP JUMP JUMPDEST PUSH0 PUSH8 0xFFFFFFFFFFFFFFFF DUP3 GT ISZERO PUSH2 0xAA6 JUMPI PUSH2 0xAA5 PUSH2 0xA14 JUMP JUMPDEST JUMPDEST PUSH2 0xAAF DUP3 PUSH2 0xA04 JUMP JUMPDEST SWAP1 POP PUSH1 0x20 DUP2 ADD SWAP1 POP SWAP2 SWAP1 POP JUMP JUMPDEST DUP3 DUP2 DUP4 CALLDATACOPY PUSH0 DUP4 DUP4 ADD MSTORE POP POP POP JUMP JUMPDEST PUSH0 PUSH2 0xADC PUSH2 0xAD7 DUP5 PUSH2 0xA8C JUMP JUMPDEST PUSH2 0xA72 JUMP JUMPDEST SWAP1 POP DUP3 DUP2 MSTORE PUSH1 0x20 DUP2 ADD DUP5 DUP5 DUP5 ADD GT ISZERO PUSH2 0xAF8 JUMPI PUSH2 0xAF7 PUSH2 0xA00 JUMP JUMPDEST JUMPDEST PUSH2 0xB03 DUP5 DUP3 DUP6 PUSH2 0xABC JUMP JUMPDEST POP SWAP4 SWAP3 POP POP POP JUMP JUMPDEST PUSH0 DUP3 PUSH1 0x1F DUP4 ADD SLT PUSH2 0xB1F JUMPI PUSH2 0xB1E PUSH2 0x9FC JUMP JUMPDEST JUMPDEST DUP2 CALLDATALOAD PUSH2 0xB2F DUP5 DUP3 PUSH1 0x20 DUP7 ADD PUSH2 0xACA JUMP JUMPDEST SWAP2 POP POP SWAP3 SWAP2 POP POP JUMP JUMPDEST PUSH0 DUP1 PUSH1 0x40 DUP4 DUP6 SUB SLT ISZERO PUSH2 0xB4E JUMPI PUSH2 0xB4D PUSH2 0x9CA JUMP JUMPDEST JUMPDEST PUSH0 PUSH2 0xB5B DUP6 DUP3 DUP7 ADD PUSH2 0x9E8 JUMP JUMPDEST SWAP3 POP POP PUSH1 0x20 DUP4 ADD CALLDATALOAD PUSH8 0xFFFFFFFFFFFFFFFF DUP2 GT ISZERO PUSH2 0xB7C JUMPI PUSH2 0xB7B PUSH2 0x9CE JUMP JUMPDEST JUMPDEST PUSH2 0xB88 DUP6 DUP3 DUP7 ADD PUSH2 0xB0B JUMP JUMPDEST SWAP2 POP POP SWAP3 POP SWAP3 SWAP1 POP JUMP JUMPDEST PUSH0 PUSH1 0x20 DUP3 DUP5 SUB SLT ISZERO PUSH2 0xBA7 JUMPI PUSH2 0xBA6 PUSH2 0x9CA JUMP JUMPDEST JUMPDEST PUSH0 PUSH2 0xBB4 DUP5 DUP3 DUP6 ADD PUSH2 0x9E8 JUMP JUMPDEST SWAP2 POP POP SWAP3 SWAP2 POP POP JUMP JUMPDEST PUSH0 PUSH20 0xFFFFFFFFFFFFFFFFFFFFFFFFFFFFFFFFFFFFFFFF DUP3 AND SWAP1 POP SWAP2 SWAP1 POP JUMP JUMPDEST PUSH0 PUSH2 0xBE6 DUP3 PUSH2 0xBBD JUMP JUMPDEST SWAP1 POP SWAP2 SWAP1 POP JUMP JUMPDEST PUSH2 0xBF6 DUP2 PUSH2 0xBDC JUMP JUMPDEST DUP3 MSTORE POP POP JUMP JUMPDEST PUSH0 DUP2 ISZERO ISZERO SWAP1 POP SWAP2 SWAP1 POP JUMP JUMPDEST PUSH2 0xC10 DUP2 PUSH2 0xBFC JUMP JUMPDEST DUP3 MSTORE POP POP JUMP JUMPDEST PUSH0 DUP2 MLOAD SWAP1 POP SWAP2 SWAP1 POP JUMP JUMPDEST PUSH0 DUP3 DUP3 MSTORE PUSH1 0x20 DUP3 ADD SWAP1 POP SWAP3 SWAP2 POP POP JUMP JUMPDEST DUP3 DUP2 DUP4 MCOPY PUSH0 DUP4 DUP4 ADD MSTORE POP POP POP JUMP JUMPDEST PUSH0 PUSH2 0xC48 DUP3 PUSH2 0xC16 JUMP JUMPDEST PUSH2 0xC52 DUP2 DUP6 PUSH2 0xC20 JUMP JUMPDEST SWAP4 POP PUSH2 0xC62 DUP2 DUP6 PUSH1 0x20 DUP7 ADD PUSH2 0xC30 JUMP JUMPDEST PUSH2 0xC6B DUP2 PUSH2 0xA04 JUMP JUMPDEST DUP5 ADD SWAP2 POP POP SWAP3 SWAP2 POP POP JUMP JUMPDEST PUSH0 PUSH1 0x80 DUP3 ADD SWAP1 POP PUSH2 0xC89 PUSH0 DUP4 ADD DUP8 PUSH2 0xBED JUMP JUMPDEST PUSH2 0xC96 PUSH1 0x20 DUP4 ADD DUP7 PUSH2 0x999 JUMP JUMPDEST PUSH2 0xCA3 PUSH1 0x40 DUP4 ADD DUP6 PUSH2 0xC07 JUMP JUMPDEST DUP2 DUP2 SUB PUSH1 0x60 DUP4 ADD MSTORE PUSH2 0xCB5 DUP2 DUP5 PUSH2 0xC3E JUMP JUMPDEST SWAP1 POP SWAP6 SWAP5 POP POP POP POP POP JUMP JUMPDEST PUSH0 DUP2 SWAP1 POP SWAP2 SWAP1 POP JUMP JUMPDEST PUSH0 PUSH2 0xCE3 PUSH2 0xCDE PUSH2 0xCD9 DUP5 PUSH2 0xBBD JUMP JUMPDEST PUSH2 0xCC0 JUMP JUMPDEST PUSH2 0xBBD JUMP JUMPDEST SWAP1 POP SWAP2 SWAP1 POP JUMP JUMPDEST PUSH0 PUSH2 0xCF4 DUP3 PUSH2 0xCC9 JUMP JUMPDEST SWAP1 POP SWAP2 SWAP1 POP JUMP JUMPDEST PUSH0 PUSH2 0xD05 DUP3 PUSH2 0xCEA JUMP JUMPDEST SWAP1 POP SWAP2 SWAP1 POP JUMP JUMPDEST PUSH2 0xD15 DUP2 PUSH2 0xCFB JUMP JUMPDEST DUP3 MSTORE POP POP JUMP JUMPDEST PUSH0 PUSH1 0x20 DUP3 ADD SWAP1 POP PUSH2 0xD2E PUSH0 DUP4 ADD DUP5 PUSH2 0xD0C JUMP JUMPDEST SWAP3 SWAP2 POP POP JUMP JUMPDEST PUSH0 DUP1 PUSH1 0x40 DUP4 DUP6 SUB SLT ISZERO PUSH2 0xD4A JUMPI PUSH2 0xD49 PUSH2 0x9CA JUMP JUMPDEST JUMPDEST PUSH0 PUSH2 0xD57 DUP6 DUP3 DUP7 ADD PUSH2 0x9E8 JUMP JUMPDEST SWAP3 POP POP PUSH1 0x20 PUSH2 0xD68 DUP6 DUP3 DUP7 ADD PUSH2 0x9E8 JUMP JUMPDEST SWAP2 POP POP SWAP3 POP SWAP3 SWAP1 POP JUMP JUMPDEST PUSH0 PUSH1 0x20 DUP3 ADD SWAP1 POP PUSH2 0xD85 PUSH0 DUP4 ADD DUP5 PUSH2 0xBED JUMP JUMPDEST SWAP3 SWAP2 POP POP JUMP JUMPDEST PUSH32 0x5072696365206D7573742062652067726561746572207468616E203000000000 PUSH0 DUP3 ADD MSTORE POP JUMP JUMPDEST PUSH0 PUSH2 0xDBF PUSH1 0x1C DUP4 PUSH2 0xC20 JUMP JUMPDEST SWAP2 POP PUSH2 0xDCA DUP3 PUSH2 0xD8B JUMP JUMPDEST PUSH1 0x20 DUP3 ADD SWAP1 POP SWAP2 SWAP1 POP JUMP JUMPDEST PUSH0 PUSH1 0x20 DUP3 ADD SWAP1 POP DUP2 DUP2 SUB PUSH0 DUP4 ADD MSTORE PUSH2 0xDEC DUP2 PUSH2 0xDB3 JUMP JUMPDEST SWAP1 POP SWAP2 SWAP1 POP JUMP JUMPDEST PUSH32 0x4E487B7100000000000000000000000000000000000000000000000000000000 PUSH0 MSTORE PUSH1 0x11 PUSH1 0x4 MSTORE PUSH1 0x24 PUSH0 REVERT JUMPDEST PUSH0 PUSH2 0xE2A DUP3 PUSH2 0x990 JUMP JUMPDEST SWAP2 POP PUSH32 0xFFFFFFFFFFFFFFFFFFFFFFFFFFFFFFFFFFFFFFFFFFFFFFFFFFFFFFFFFFFFFFFF DUP3 SUB PUSH2 0xE5C JUMPI PUSH2 0xE5B PUSH2 0xDF3 JUMP JUMPDEST JUMPDEST PUSH1 0x1 DUP3 ADD SWAP1 POP SWAP2 SWAP1 POP JUMP JUMPDEST PUSH32 0x4E487B7100000000000000000000000000000000000000000000000000000000 PUSH0 MSTORE PUSH1 0x22 PUSH1 0x4 MSTORE PUSH1 0x24 PUSH0 REVERT JUMPDEST PUSH0 PUSH1 0x2 DUP3 DIV SWAP1 POP PUSH1 0x1 DUP3 AND DUP1 PUSH2 0xEAB JUMPI PUSH1 0x7F DUP3 AND SWAP2 POP JUMPDEST PUSH1 0x20 DUP3 LT DUP2 SUB PUSH2 0xEBE JUMPI PUSH2 0xEBD PUSH2 0xE67 JUMP JUMPDEST JUMPDEST POP SWAP2 SWAP1 POP JUMP JUMPDEST PUSH0 DUP2 SWAP1 POP DUP2 PUSH0 MSTORE PUSH1 0x20 PUSH0 KECCAK256 SWAP1 POP SWAP2 SWAP1 POP JUMP JUMPDEST PUSH0 PUSH1 0x20 PUSH1 0x1F DUP4 ADD DIV SWAP1 POP SWAP2 SWAP1 POP JUMP JUMPDEST PUSH0 DUP3 DUP3 SHL SWAP1 POP SWAP3 SWAP2 POP POP JUMP JUMPDEST PUSH0 PUSH1 0x8 DUP4 MUL PUSH2 0xF20 PUSH32 0xFFFFFFFFFFFFFFFFFFFFFFFFFFFFFFFFFFFFFFFFFFFFFFFFFFFFFFFFFFFFFFFF DUP3 PUSH2 0xEE5 JUMP JUMPDEST PUSH2 0xF2A DUP7 DUP4 PUSH2 0xEE5 JUMP JUMPDEST SWAP6 POP DUP1 NOT DUP5 AND SWAP4 POP DUP1 DUP7 AND DUP5 OR SWAP3 POP POP POP SWAP4 SWAP3 POP POP POP JUMP JUMPDEST PUSH0 PUSH2 0xF5C PUSH2 0xF57 PUSH2 0xF52 DUP5 PUSH2 0x990 JUMP JUMPDEST PUSH2 0xCC0 JUMP JUMPDEST PUSH2 0x990 JUMP JUMPDEST SWAP1 POP SWAP2 SWAP1 POP JUMP JUMPDEST PUSH0 DUP2 SWAP1 POP SWAP2 SWAP1 POP JUMP JUMPDEST PUSH2 0xF75 DUP4 PUSH2 0xF42 JUMP JUMPDEST PUSH2 0xF89 PUSH2 0xF81 DUP3 PUSH2 0xF63 JUMP JUMPDEST DUP5 DUP5 SLOAD PUSH2 0xEF1 JUMP JUMPDEST DUP3 SSTORE POP POP POP POP JUMP JUMPDEST PUSH0 SWAP1 JUMP JUMPDEST PUSH2 0xF9D PUSH2 0xF91 JUMP JUMPDEST PUSH2 0xFA8 DUP2 DUP5 DUP5 PUSH2 0xF6C JUMP JUMPDEST POP POP POP JUMP JUMPDEST JUMPDEST DUP2 DUP2 LT ISZERO PUSH2 0xFCB JUMPI PUSH2 0xFC0 PUSH0 DUP3 PUSH2 0xF95 JUMP JUMPDEST PUSH1 0x1 DUP2 ADD SWAP1 POP PUSH2 0xFAE JUMP JUMPDEST POP POP JUMP JUMPDEST PUSH1 0x1F DUP3 GT ISZERO PUSH2 0x1010 JUMPI PUSH2 0xFE1 DUP2 PUSH2 0xEC4 JUMP JUMPDEST PUSH2 0xFEA DUP5 PUSH2 0xED6 JUMP JUMPDEST DUP2 ADD PUSH1 0x20 DUP6 LT ISZERO PUSH2 0xFF9 JUMPI DUP2 SWAP1 POP JUMPDEST PUSH2 0x100D PUSH2 0x1005 DUP6 PUSH2 0xED6 JUMP JUMPDEST DUP4 ADD DUP3 PUSH2 0xFAD JUMP JUMPDEST POP POP JUMPDEST POP POP POP JUMP JUMPDEST PUSH0 DUP3 DUP3 SHR SWAP1 POP SWAP3 SWAP2 POP POP JUMP JUMPDEST PUSH0 PUSH2 0x1030 PUSH0 NOT DUP5 PUSH1 0x8 MUL PUSH2 0x1015 JUMP JUMPDEST NOT DUP1 DUP4 AND SWAP2 POP POP SWAP3 SWAP2 POP POP JUMP JUMPDEST PUSH0 PUSH2 0x1048 DUP4 DUP4 PUSH2 0x1021 JUMP JUMPDEST SWAP2 POP DUP3 PUSH1 0x2 MUL DUP3 OR SWAP1 POP SWAP3 SWAP2 POP POP JUMP JUMPDEST PUSH2 0x1061 DUP3 PUSH2 0xC16 JUMP JUMPDEST PUSH8 0xFFFFFFFFFFFFFFFF DUP2 GT ISZERO PUSH2 0x107A JUMPI PUSH2 0x1079 PUSH2 0xA14 JUMP JUMPDEST JUMPDEST PUSH2 0x1084 DUP3 SLOAD PUSH2 0xE94 JUMP JUMPDEST PUSH2 0x108F DUP3 DUP3 DUP6 PUSH2 0xFCF JUMP JUMPDEST PUSH0 PUSH1 0x20 SWAP1 POP PUSH1 0x1F DUP4 GT PUSH1 0x1 DUP2 EQ PUSH2 0x10C0 JUMPI PUSH0 DUP5 ISZERO PUSH2 0x10AE JUMPI DUP3 DUP8 ADD MLOAD SWAP1 POP JUMPDEST PUSH2 0x10B8 DUP6 DUP3 PUSH2 0x103D JUMP JUMPDEST DUP7 SSTORE POP PUSH2 0x111F JUMP JUMPDEST PUSH1 0x1F NOT DUP5 AND PUSH2 0x10CE DUP7 PUSH2 0xEC4 JUMP JUMPDEST PUSH0 JUMPDEST DUP3 DUP2 LT ISZERO PUSH2 0x10F5 JUMPI DUP5 DUP10 ADD MLOAD DUP3 SSTORE PUSH1 0x1 DUP3 ADD SWAP2 POP PUSH1 0x20 DUP6 ADD SWAP5 POP PUSH1 0x20 DUP2 ADD SWAP1 POP PUSH2 0x10D0 JUMP JUMPDEST DUP7 DUP4 LT ISZERO PUSH2 0x1112 JUMPI DUP5 DUP10 ADD MLOAD PUSH2 0x110E PUSH1 0x1F DUP10 AND DUP3 PUSH2 0x1021 JUMP JUMPDEST DUP4 SSTORE POP JUMPDEST PUSH1 0x1 PUSH1 0x2 DUP9 MUL ADD DUP9 SSTORE POP POP POP JUMPDEST POP POP POP POP POP POP JUMP JUMPDEST PUSH0 PUSH1 0x60 DUP3 ADD SWAP1 POP PUSH2 0x113A PUSH0 DUP4 ADD DUP7 PUSH2 0xBED JUMP JUMPDEST PUSH2 0x1147 PUSH1 0x20 DUP4 ADD DUP6 PUSH2 0x999 JUMP JUMPDEST DUP2 DUP2 SUB PUSH1 0x40 DUP4 ADD MSTORE PUSH2 0x1159 DUP2 DUP5 PUSH2 0xC3E JUMP JUMPDEST SWAP1 POP SWAP5 SWAP4 POP POP POP POP JUMP JUMPDEST PUSH32 0x4F6E6C792073656C6C65722063616E2075706461746520707269636500000000 PUSH0 DUP3 ADD MSTORE POP JUMP JUMPDEST PUSH0 PUSH2 0x1197 PUSH1 0x1C DUP4 PUSH2 0xC20 JUMP JUMPDEST SWAP2 POP PUSH2 0x11A2 DUP3 PUSH2 0x1163 JUMP JUMPDEST PUSH1 0x20 DUP3 ADD SWAP1 POP SWAP2 SWAP1 POP JUMP JUMPDEST PUSH0 PUSH1 0x20 DUP3 ADD SWAP1 POP DUP2 DUP2 SUB PUSH0 DUP4 ADD MSTORE PUSH2 0x11C4 DUP2 PUSH2 0x118B JUMP JUMPDEST SWAP1 POP SWAP2 SWAP1 POP JUMP JUMPDEST PUSH32 0x4167656E74206E6F74206C697374656400000000000000000000000000000000 PUSH0 DUP3 ADD MSTORE POP JUMP JUMPDEST PUSH0 PUSH2 0x11FF PUSH1 0x10 DUP4 PUSH2 0xC20 JUMP JUMPDEST SWAP2 POP PUSH2 0x120A DUP3 PUSH2 0x11CB JUMP JUMPDEST PUSH1 0x20 DUP3 ADD SWAP1 POP SWAP2 SWAP1 POP JUMP JUMPDEST PUSH0 PUSH1 0x20 DUP3 ADD SWAP1 POP DUP2 DUP2 SUB PUSH0 DUP4 ADD MSTORE PUSH2 0x122C DUP2 PUSH2 0x11F3 JUMP JUMPDEST SWAP1 POP SWAP2 SWAP1 POP JUMP JUMPDEST PUSH32 0x43616E6E6F742062757920796F7572206F776E206167656E7400000000000000 PUSH0 DUP3 ADD MSTORE POP JUMP JUMPDEST PUSH0 PUSH2 0x1267 PUSH1 0x19 DUP4 PUSH2 0xC20 JUMP JUMPDEST SWAP2 POP PUSH2 0x1272 DUP3 PUSH2 0x1233 JUMP JUMPDEST PUSH1 0x20 DUP3 ADD SWAP1 POP SWAP2 SWAP1 POP JUMP JUMPDEST PUSH0 PUSH1 0x20 DUP3 ADD SWAP1 POP DUP2 DUP2 SUB PUSH0 DUP4 ADD MSTORE PUSH2 0x1294 DUP2 PUSH2 0x125B JUMP JUMPDEST SWAP1 POP SWAP2 SWAP1 POP JUMP JUMPDEST PUSH0 PUSH2 0x12A5 DUP3 PUSH2 0x990 JUMP JUMPDEST SWAP2 POP PUSH2 0x12B0 DUP4 PUSH2 0x990 JUMP JUMPDEST SWAP3 POP DUP3 DUP3 MUL PUSH2 0x12BE DUP2 PUSH2 0x990 JUMP JUMPDEST SWAP2 POP DUP3 DUP3 DIV DUP5 EQ DUP4 ISZERO OR PUSH2 0x12D5 JUMPI PUSH2 0x12D4 PUSH2 0xDF3 JUMP JUMPDEST JUMPDEST POP SWAP3 SWAP2 POP POP JUMP JUMPDEST PUSH32 0x4E487B7100000000000000000000000000000000000000000000000000000000 PUSH0 MSTORE PUSH1 0x12 PUSH1 0x4 MSTORE PUSH1 0x24 PUSH0 REVERT JUMPDEST PUSH0 PUSH2 0x1313 DUP3 PUSH2 0x990 JUMP JUMPDEST SWAP2 POP PUSH2 0x131E DUP4 PUSH2 0x990 JUMP JUMPDEST SWAP3 POP DUP3 PUSH2 0x132E JUMPI PUSH2 0x132D PUSH2 0x12DC JUMP JUMPDEST JUMPDEST DUP3 DUP3 DIV SWAP1 POP SWAP3 SWAP2 POP POP JUMP JUMPDEST PUSH0 PUSH2 0x1343 DUP3 PUSH2 0x990 JUMP JUMPDEST SWAP2 POP PUSH2 0x134E DUP4 PUSH2 0x990 JUMP JUMPDEST SWAP3 POP DUP3 DUP3 SUB SWAP1 POP DUP2 DUP2 GT ISZERO PUSH2 0x1366 JUMPI PUSH2 0x1365 PUSH2 0xDF3 JUMP JUMPDEST JUMPDEST SWAP3 SWAP2 POP POP JUMP JUMPDEST PUSH0 PUSH1 0x60 DUP3 ADD SWAP1 POP PUSH2 0x137F PUSH0 DUP4 ADD DUP7 PUSH2 0xBED JUMP JUMPDEST PUSH2 0x138C PUSH1 0x20 DUP4 ADD DUP6 PUSH2 0xBED JUMP JUMPDEST PUSH2 0x1399 PUSH1 0x40 DUP4 ADD DUP5 PUSH2 0x999 JUMP JUMPDEST SWAP5 SWAP4 POP POP POP POP JUMP JUMPDEST PUSH2 0x13AA DUP2 PUSH2 0xBFC JUMP JUMPDEST DUP2 EQ PUSH2 0x13B4 JUMPI PUSH0 DUP1 REVERT JUMPDEST POP JUMP JUMPDEST PUSH0 DUP2 MLOAD SWAP1 POP PUSH2 0x13C5 DUP2 PUSH2 0x13A1 JUMP JUMPDEST SWAP3 SWAP2 POP POP JUMP JUMPDEST PUSH0 PUSH1 0x20 DUP3 DUP5 SUB SLT ISZERO PUSH2 0x13E0 JUMPI PUSH2 0x13DF PUSH2 0x9CA JUMP JUMPDEST JUMPDEST PUSH0 PUSH2 0x13ED DUP5 DUP3 DUP6 ADD PUSH2 0x13B7 JUMP JUMPDEST SWAP2 POP POP SWAP3 SWAP2 POP POP JUMP JUMPDEST PUSH32 0x506C6174666F726D20666565207472616E73666572206661696C656400000000 PUSH0 DUP3 ADD MSTORE POP JUMP JUMPDEST PUSH0 PUSH2 0x142A PUSH1 0x1C DUP4 PUSH2 0xC20 JUMP JUMPDEST SWAP2 POP PUSH2 0x1435 DUP3 PUSH2 0x13F6 JUMP JUMPDEST PUSH1 0x20 DUP3 ADD SWAP1 POP SWAP2 SWAP1 POP JUMP JUMPDEST PUSH0 PUSH1 0x20 DUP3 ADD SWAP1 POP DUP2 DUP2 SUB PUSH0 DUP4 ADD MSTORE PUSH2 0x1457 DUP2 PUSH2 0x141E JUMP JUMPDEST SWAP1 POP SWAP2 SWAP1 POP JUMP JUMPDEST PUSH32 0x53656C6C6572207472616E73666572206661696C656400000000000000000000 PUSH0 DUP3 ADD MSTORE POP JUMP JUMPDEST PUSH0 PUSH2 0x1492 PUSH1 0x16 DUP4 PUSH2 0xC20 JUMP JUMPDEST SWAP2 POP PUSH2 0x149D DUP3 PUSH2 0x145E JUMP JUMPDEST PUSH1 0x20 DUP3 ADD SWAP1 POP SWAP2 SWAP1 POP JUMP JUMPDEST PUSH0 PUSH1 0x20 DUP3 ADD SWAP1 POP DUP2 DUP2 SUB PUSH0 DUP4 ADD MSTORE PUSH2 0x14BF DUP2 PUSH2 0x1486 JUMP JUMPDEST SWAP1 POP SWAP2 SWAP1 POP JUMP JUMPDEST PUSH0 PUSH1 0x40 DUP3 ADD SWAP1 POP PUSH2 0x14D9 PUSH0 DUP4 ADD DUP6 PUSH2 0xBED JUMP JUMPDEST PUSH2 0x14E6 PUSH1 0x20 DUP4 ADD DUP5 PUSH2 0x999 JUMP JUMPDEST SWAP4 SWAP3 POP POP POP JUMP INVALID LOG2 PUSH5 0x6970667358 0x22 SLT KECCAK256 0xCF DUP10 SWAP16 PUSH14 0x56A7EBEB8388016264510F240961 0xC3 BLOCKHASH 0xE9 0xFB DUP2 0x4F DUP2 PUSH21 0x2C3466771AC364736F6C634300081A003300000000 "
				},
				"gasEstimates": {
					"creation": {
						"codeDepositCost": "1082200",
						"executionCost": "infinite",
						"totalCost": "infinite"
					},
					"external": {
						"agents(uint256)": "infinite",
						"buyAgent(uint256)": "infinite",
						"mktToken()": "infinite",
						"nextAgentId()": "2426",
						"owner()": "2549",
						"platformFeePercent()": "2447",
						"platformWallet()": "2574",
						"publishAgent(uint256,string)": "infinite",
						"updatePrice(uint256,uint256)": "infinite"
					}
				},
				"methodIdentifiers": {
					"agents(uint256)": "513856c8",
					"buyAgent(uint256)": "fa3ded90",
					"mktToken()": "6b4a8ae0",
					"nextAgentId()": "30efc498",
					"owner()": "8da5cb5b",
					"platformFeePercent()": "8c639a85",
					"platformWallet()": "fa2af9da",
					"publishAgent(uint256,string)": "3687fc05",
					"updatePrice(uint256,uint256)": "82367b2d"
				}
			},
			"storageLayout": {
				"storage": [
					{
						"astId": 49,
						"contract": "test.sol:AIAgentMarketplace",
						"label": "owner",
						"offset": 0,
						"slot": "0",
						"type": "t_address"
					},
					{
						"astId": 51,
						"contract": "test.sol:AIAgentMarketplace",
						"label": "platformWallet",
						"offset": 0,
						"slot": "1",
						"type": "t_address"
					},
					{
						"astId": 54,
						"contract": "test.sol:AIAgentMarketplace",
						"label": "platformFeePercent",
						"offset": 0,
						"slot": "2",
						"type": "t_uint256"
					},
					{
						"astId": 57,
						"contract": "test.sol:AIAgentMarketplace",
						"label": "mktToken",
						"offset": 0,
						"slot": "3",
						"type": "t_contract(IERC20)38"
					},
					{
						"astId": 62,
						"contract": "test.sol:AIAgentMarketplace",
						"label": "agents",
						"offset": 0,
						"slot": "4",
						"type": "t_mapping(t_uint256,t_struct(Agent)47_storage)"
					},
					{
						"astId": 64,
						"contract": "test.sol:AIAgentMarketplace",
						"label": "nextAgentId",
						"offset": 0,
						"slot": "5",
						"type": "t_uint256"
					}
				],
				"types": {
					"t_address": {
						"encoding": "inplace",
						"label": "address",
						"numberOfBytes": "20"
					},
					"t_bool": {
						"encoding": "inplace",
						"label": "bool",
						"numberOfBytes": "1"
					},
					"t_contract(IERC20)38": {
						"encoding": "inplace",
						"label": "contract IERC20",
						"numberOfBytes": "20"
					},
					"t_mapping(t_uint256,t_struct(Agent)47_storage)": {
						"encoding": "mapping",
						"key": "t_uint256",
						"label": "mapping(uint256 => struct AIAgentMarketplace.Agent)",
						"numberOfBytes": "32",
						"value": "t_struct(Agent)47_storage"
					},
					"t_string_storage": {
						"encoding": "bytes",
						"label": "string",
						"numberOfBytes": "32"
					},
					"t_struct(Agent)47_storage": {
						"encoding": "inplace",
						"label": "struct AIAgentMarketplace.Agent",
						"members": [
							{
								"astId": 40,
								"contract": "test.sol:AIAgentMarketplace",
								"label": "seller",
								"offset": 0,
								"slot": "0",
								"type": "t_address"
							},
							{
								"astId": 42,
								"contract": "test.sol:AIAgentMarketplace",
								"label": "price",
								"offset": 0,
								"slot": "1",
								"type": "t_uint256"
							},
							{
								"astId": 44,
								"contract": "test.sol:AIAgentMarketplace",
								"label": "isListed",
								"offset": 0,
								"slot": "2",
								"type": "t_bool"
							},
							{
								"astId": 46,
								"contract": "test.sol:AIAgentMarketplace",
								"label": "metadata",
								"offset": 0,
								"slot": "3",
								"type": "t_string_storage"
							}
						],
						"numberOfBytes": "128"
					},
					"t_uint256": {
						"encoding": "inplace",
						"label": "uint256",
						"numberOfBytes": "32"
					}
				}
			},
			"userdoc": {
				"kind": "user",
				"methods": {},
				"version": 1
			}
		}
	}
}