{
	"data": {
		"bytecode": {
			"linkReferences": {},
			"object": "6080604052600f600255348015610014575f80fd5b506040516119a23803806119a28339818101604052810190610036919061015a565b335f806101000a81548173ffffffffffffffffffffffffffffffffffffffff021916908373ffffffffffffffffffffffffffffffffffffffff1602179055508160035f6101000a81548173ffffffffffffffffffffffffffffffffffffffff021916908373ffffffffffffffffffffffffffffffffffffffff1602179055508060015f6101000a81548173ffffffffffffffffffffffffffffffffffffffff021916908373ffffffffffffffffffffffffffffffffffffffff1602179055505050610198565b5f80fd5b5f73ffffffffffffffffffffffffffffffffffffffff82169050919050565b5f61012982610100565b9050919050565b6101398161011f565b8114610143575f80fd5b50565b5f8151905061015481610130565b92915050565b5f80604083850312156101705761016f6100fc565b5b5f61017d85828601610146565b925050602061018e85828601610146565b9150509250929050565b6117fd806101a55f395ff3fe608060405234801561000f575f80fd5b506004361061009c575f3560e01c80638c639a85116100645780638c639a851461015b5780638da5cb5b14610179578063b6f45f1114610197578063fa2af9da146101b3578063fa3ded90146101d15761009c565b806330efc498146100a05780633687fc05146100be578063513856c8146100ee5780636b4a8ae01461012157806382367b2d1461013f575b5f80fd5b6100a86101ed565b6040516100b59190610b66565b60405180910390f35b6100d860048036038101906100d39190610cf6565b6101f3565b6040516100e59190610b66565b60405180910390f35b61010860048036038101906101039190610d50565b610366565b6040516101189493929190610e34565b60405180910390f35b610129610443565b6040516101369190610ed9565b60405180910390f35b61015960048036038101906101549190610ef2565b610468565b005b6101636105e4565b6040516101709190610b66565b60405180910390f35b6101816105ea565b60405161018e9190610f30565b60405180910390f35b6101b160048036038101906101ac9190610d50565b61060d565b005b6101bb6107bf565b6040516101c89190610f30565b60405180910390f35b6101eb60048036038101906101e69190610d50565b6107e4565b005b60055481565b5f808311610236576040517f08c379a000000000000000000000000000000000000000000000000000000000815260040161022d90610f93565b60405180910390fd5b5f60055f81548092919061024990610fde565b91905055905060405180608001604052803373ffffffffffffffffffffffffffffffffffffffff1681526020018581526020016001151581526020018481525060045f8381526020019081526020015f205f820151815f015f6101000a81548173ffffffffffffffffffffffffffffffffffffffff021916908373ffffffffffffffffffffffffffffffffffffffff160217905550602082015181600101556040820151816002015f6101000a81548160ff021916908315150217905550606082015181600301908161031c9190611216565b50905050807f105f92e9d1e7880e6a383d06a0b916d961ebd471d6b19d11f335b4213c989397338686604051610354939291906112e5565b60405180910390a28091505092915050565b6004602052805f5260405f205f91509050805f015f9054906101000a900473ffffffffffffffffffffffffffffffffffffffff1690806001015490806002015f9054906101000a900460ff16908060030180546103c290611052565b80601f01602080910402602001604051908101604052809291908181526020018280546103ee90611052565b80156104395780601f1061041057610100808354040283529160200191610439565b820191905f5260205f20905b81548152906001019060200180831161041c57829003601f168201915b5050505050905084565b60035f9054906101000a900473ffffffffffffffffffffffffffffffffffffffff1681565b5f60045f8481526020019081526020015f209050805f015f9054906101000a900473ffffffffffffffffffffffffffffffffffffffff1673ffffffffffffffffffffffffffffffffffffffff163373ffffffffffffffffffffffffffffffffffffffff161461050c576040517f08c379a00000000000000000000000000000000000000000000000000000000081526004016105039061136b565b60405180910390fd5b806002015f9054906101000a900460ff1661055c576040517f08c379a0000000000000000000000000000000000000000000000000000000008152600401610553906113f9565b60405180910390fd5b5f821161059e576040517f08c379a000000000000000000000000000000000000000000000000000000000815260040161059590610f93565b60405180910390fd5b818160010181905550827f945c1c4e99aa89f648fbfe3df471b916f719e16d960fcec0737d4d56bd696838836040516105d79190610b66565b60405180910390a2505050565b60025481565b5f8054906101000a900473ffffffffffffffffffffffffffffffffffffffff1681565b8060045f8281526020019081526020015f205f015f9054906101000a900473ffffffffffffffffffffffffffffffffffffffff1673ffffffffffffffffffffffffffffffffffffffff163373ffffffffffffffffffffffffffffffffffffffff1614806106c457505f8054906101000a900473ffffffffffffffffffffffffffffffffffffffff1673ffffffffffffffffffffffffffffffffffffffff163373ffffffffffffffffffffffffffffffffffffffff16145b610703576040517f08c379a00000000000000000000000000000000000000000000000000000000081526004016106fa90611487565b60405180910390fd5b5f60045f8481526020019081526020015f209050806002015f9054906101000a900460ff16610767576040517f08c379a000000000000000000000000000000000000000000000000000000000815260040161075e906114ef565b60405180910390fd5b5f816002015f6101000a81548160ff021916908315150217905550827fb0e83d43e83a64dcafdc683932cc419df21db0fb53f8229925356e7e1f4bf59d336040516107b29190610f30565b60405180910390a2505050565b60015f9054906101000a900473ffffffffffffffffffffffffffffffffffffffff1681565b5f60045f8381526020019081526020015f209050806002015f9054906101000a900460ff16610848576040517f08c379a000000000000000000000000000000000000000000000000000000000815260040161083f906113f9565b60405180910390fd5b805f015f9054906101000a900473ffffffffffffffffffffffffffffffffffffffff1673ffffffffffffffffffffffffffffffffffffffff163373ffffffffffffffffffffffffffffffffffffffff16036108d8576040517f08c379a00000000000000000000000000000000000000000000000000000000081526004016108cf90611557565b60405180910390fd5b5f6103e860025483600101546108ee9190611575565b6108f891906115e3565b90505f81836001015461090b9190611613565b905060035f9054906101000a900473ffffffffffffffffffffffffffffffffffffffff1673ffffffffffffffffffffffffffffffffffffffff166323b872dd3360015f9054906101000a900473ffffffffffffffffffffffffffffffffffffffff16856040518463ffffffff1660e01b815260040161098c93929190611646565b6020604051808303815f875af11580156109a8573d5f803e3d5ffd5b505050506040513d601f19601f820116820180604052508101906109cc91906116a5565b610a0b576040517f08c379a0000000000000000000000000000000000000000000000000000000008152600401610a029061171a565b60405180910390fd5b60035f9054906101000a900473ffffffffffffffffffffffffffffffffffffffff1673ffffffffffffffffffffffffffffffffffffffff166323b872dd33855f015f9054906101000a900473ffffffffffffffffffffffffffffffffffffffff16846040518463ffffffff1660e01b8152600401610a8b93929190611646565b6020604051808303815f875af1158015610aa7573d5f803e3d5ffd5b505050506040513d601f19601f82011682018060405250810190610acb91906116a5565b610b0a576040517f08c379a0000000000000000000000000000000000000000000000000000000008152600401610b0190611782565b60405180910390fd5b837fe53cfc2fcaa7beb2b2b6fe1a55c9bdfbe04dbafc568d0819627fd852ea2863ed338560010154604051610b409291906117a0565b60405180910390a250505050565b5f819050919050565b610b6081610b4e565b82525050565b5f602082019050610b795f830184610b57565b92915050565b5f604051905090565b5f80fd5b5f80fd5b610b9981610b4e565b8114610ba3575f80fd5b50565b5f81359050610bb481610b90565b92915050565b5f80fd5b5f80fd5b5f601f19601f8301169050919050565b7f4e487b71000000000000000000000000000000000000000000000000000000005f52604160045260245ffd5b610c0882610bc2565b810181811067ffffffffffffffff82111715610c2757610c26610bd2565b5b80604052505050565b5f610c39610b7f565b9050610c458282610bff565b919050565b5f67ffffffffffffffff821115610c6457610c63610bd2565b5b610c6d82610bc2565b9050602081019050919050565b828183375f83830152505050565b5f610c9a610c9584610c4a565b610c30565b905082815260208101848484011115610cb657610cb5610bbe565b5b610cc1848285610c7a565b509392505050565b5f82601f830112610cdd57610cdc610bba565b5b8135610ced848260208601610c88565b91505092915050565b5f8060408385031215610d0c57610d0b610b88565b5b5f610d1985828601610ba6565b925050602083013567ffffffffffffffff811115610d3a57610d39610b8c565b5b610d4685828601610cc9565b9150509250929050565b5f60208284031215610d6557610d64610b88565b5b5f610d7284828501610ba6565b91505092915050565b5f73ffffffffffffffffffffffffffffffffffffffff82169050919050565b5f610da482610d7b565b9050919050565b610db481610d9a565b82525050565b5f8115159050919050565b610dce81610dba565b82525050565b5f81519050919050565b5f82825260208201905092915050565b8281835e5f83830152505050565b5f610e0682610dd4565b610e108185610dde565b9350610e20818560208601610dee565b610e2981610bc2565b840191505092915050565b5f608082019050610e475f830187610dab565b610e546020830186610b57565b610e616040830185610dc5565b8181036060830152610e738184610dfc565b905095945050505050565b5f819050919050565b5f610ea1610e9c610e9784610d7b565b610e7e565b610d7b565b9050919050565b5f610eb282610e87565b9050919050565b5f610ec382610ea8565b9050919050565b610ed381610eb9565b82525050565b5f602082019050610eec5f830184610eca565b92915050565b5f8060408385031215610f0857610f07610b88565b5b5f610f1585828601610ba6565b9250506020610f2685828601610ba6565b9150509250929050565b5f602082019050610f435f830184610dab565b92915050565b7f5072696365206d7573742062652067726561746572207468616e2030000000005f82015250565b5f610f7d601c83610dde565b9150610f8882610f49565b602082019050919050565b5f6020820190508181035f830152610faa81610f71565b9050919050565b7f4e487b71000000000000000000000000000000000000000000000000000000005f52601160045260245ffd5b5f610fe882610b4e565b91507fffffffffffffffffffffffffffffffffffffffffffffffffffffffffffffffff820361101a57611019610fb1565b5b600182019050919050565b7f4e487b71000000000000000000000000000000000000000000000000000000005f52602260045260245ffd5b5f600282049050600182168061106957607f821691505b60208210810361107c5761107b611025565b5b50919050565b5f819050815f5260205f209050919050565b5f6020601f8301049050919050565b5f82821b905092915050565b5f600883026110de7fffffffffffffffffffffffffffffffffffffffffffffffffffffffffffffffff826110a3565b6110e886836110a3565b95508019841693508086168417925050509392505050565b5f61111a61111561111084610b4e565b610e7e565b610b4e565b9050919050565b5f819050919050565b61113383611100565b61114761113f82611121565b8484546110af565b825550505050565b5f90565b61115b61114f565b61116681848461112a565b505050565b5b818110156111895761117e5f82611153565b60018101905061116c565b5050565b601f8211156111ce5761119f81611082565b6111a884611094565b810160208510156111b7578190505b6111cb6111c385611094565b83018261116b565b50505b505050565b5f82821c905092915050565b5f6111ee5f19846008026111d3565b1980831691505092915050565b5f61120683836111df565b9150826002028217905092915050565b61121f82610dd4565b67ffffffffffffffff81111561123857611237610bd2565b5b6112428254611052565b61124d82828561118d565b5f60209050601f83116001811461127e575f841561126c578287015190505b61127685826111fb565b8655506112dd565b601f19841661128c86611082565b5f5b828110156112b35784890151825560018201915060208501945060208101905061128e565b868310156112d057848901516112cc601f8916826111df565b8355505b6001600288020188555050505b505050505050565b5f6060820190506112f85f830186610dab565b6113056020830185610b57565b81810360408301526113178184610dfc565b9050949350505050565b7f4f6e6c792073656c6c65722063616e20757064617465207072696365000000005f82015250565b5f611355601c83610dde565b915061136082611321565b602082019050919050565b5f6020820190508181035f83015261138281611349565b9050919050565b7f4167656e74206e6f74206c6973746564206f7220686173206265656e2064656c5f8201527f6973746564000000000000000000000000000000000000000000000000000000602082015250565b5f6113e3602583610dde565b91506113ee82611389565b604082019050919050565b5f6020820190508181035f830152611410816113d7565b9050919050565b7f4f6e6c792073656c6c6572206f72206f776e65722063616e2063616c6c2074685f8201527f69732066756e6374696f6e000000000000000000000000000000000000000000602082015250565b5f611471602b83610dde565b915061147c82611417565b604082019050919050565b5f6020820190508181035f83015261149e81611465565b9050919050565b7f4167656e7420616c72656164792064656c6973746564000000000000000000005f82015250565b5f6114d9601683610dde565b91506114e4826114a5565b602082019050919050565b5f6020820190508181035f830152611506816114cd565b9050919050565b7f43616e6e6f742062757920796f7572206f776e206167656e74000000000000005f82015250565b5f611541601983610dde565b915061154c8261150d565b602082019050919050565b5f6020820190508181035f83015261156e81611535565b9050919050565b5f61157f82610b4e565b915061158a83610b4e565b925082820261159881610b4e565b915082820484148315176115af576115ae610fb1565b5b5092915050565b7f4e487b71000000000000000000000000000000000000000000000000000000005f52601260045260245ffd5b5f6115ed82610b4e565b91506115f883610b4e565b925082611608576116076115b6565b5b828204905092915050565b5f61161d82610b4e565b915061162883610b4e565b92508282039050818111156116405761163f610fb1565b5b92915050565b5f6060820190506116595f830186610dab565b6116666020830185610dab565b6116736040830184610b57565b949350505050565b61168481610dba565b811461168e575f80fd5b50565b5f8151905061169f8161167b565b92915050565b5f602082840312156116ba576116b9610b88565b5b5f6116c784828501611691565b91505092915050565b7f506c6174666f726d20666565207472616e73666572206661696c6564000000005f82015250565b5f611704601c83610dde565b915061170f826116d0565b602082019050919050565b5f6020820190508181035f830152611731816116f8565b9050919050565b7f53656c6c6572207472616e73666572206661696c6564000000000000000000005f82015250565b5f61176c601683610dde565b915061177782611738565b602082019050919050565b5f6020820190508181035f83015261179981611760565b9050919050565b5f6040820190506117b35f830185610dab565b6117c06020830184610b57565b939250505056fea2646970667358221220e69b90f96ca9571e8f450b5fa7f1bf26df7dafb52931384a411939d7fe8b5f5164736f6c634300081a0033",
			"opcodes": "PUSH1 0x80 PUSH1 0x40 MSTORE PUSH1 0xF PUSH1 0x2 SSTORE CALLVALUE DUP1 ISZERO PUSH2 0x14 JUMPI PUSH0 DUP1 REVERT JUMPDEST POP PUSH1 0x40 MLOAD PUSH2 0x19A2 CODESIZE SUB DUP1 PUSH2 0x19A2 DUP4 CODECOPY DUP2 DUP2 ADD PUSH1 0x40 MSTORE DUP2 ADD SWAP1 PUSH2 0x36 SWAP2 SWAP1 PUSH2 0x15A JUMP JUMPDEST CALLER PUSH0 DUP1 PUSH2 0x100 EXP DUP2 SLOAD DUP2 PUSH20 0xFFFFFFFFFFFFFFFFFFFFFFFFFFFFFFFFFFFFFFFF MUL NOT AND SWAP1 DUP4 PUSH20 0xFFFFFFFFFFFFFFFFFFFFFFFFFFFFFFFFFFFFFFFF AND MUL OR SWAP1 SSTORE POP DUP2 PUSH1 0x3 PUSH0 PUSH2 0x100 EXP DUP2 SLOAD DUP2 PUSH20 0xFFFFFFFFFFFFFFFFFFFFFFFFFFFFFFFFFFFFFFFF MUL NOT AND SWAP1 DUP4 PUSH20 0xFFFFFFFFFFFFFFFFFFFFFFFFFFFFFFFFFFFFFFFF AND MUL OR SWAP1 SSTORE POP DUP1 PUSH1 0x1 PUSH0 PUSH2 0x100 EXP DUP2 SLOAD DUP2 PUSH20 0xFFFFFFFFFFFFFFFFFFFFFFFFFFFFFFFFFFFFFFFF MUL NOT AND SWAP1 DUP4 PUSH20 0xFFFFFFFFFFFFFFFFFFFFFFFFFFFFFFFFFFFFFFFF AND MUL OR SWAP1 SSTORE POP POP POP PUSH2 0x198 JUMP JUMPDEST PUSH0 DUP1 REVERT JUMPDEST PUSH0 PUSH20 0xFFFFFFFFFFFFFFFFFFFFFFFFFFFFFFFFFFFFFFFF DUP3 AND SWAP1 POP SWAP2 SWAP1 POP JUMP JUMPDEST PUSH0 PUSH2 0x129 DUP3 PUSH2 0x100 JUMP JUMPDEST SWAP1 POP SWAP2 SWAP1 POP JUMP JUMPDEST PUSH2 0x139 DUP2 PUSH2 0x11F JUMP JUMPDEST DUP2 EQ PUSH2 0x143 JUMPI PUSH0 DUP1 REVERT JUMPDEST POP JUMP JUMPDEST PUSH0 DUP2 MLOAD SWAP1 POP PUSH2 0x154 DUP2 PUSH2 0x130 JUMP JUMPDEST SWAP3 SWAP2 POP POP JUMP JUMPDEST PUSH0 DUP1 PUSH1 0x40 DUP4 DUP6 SUB SLT ISZERO PUSH2 0x170 JUMPI PUSH2 0x16F PUSH2 0xFC JUMP JUMPDEST JUMPDEST PUSH0 PUSH2 0x17D DUP6 DUP3 DUP7 ADD PUSH2 0x146 JUMP JUMPDEST SWAP3 POP POP PUSH1 0x20 PUSH2 0x18E DUP6 DUP3 DUP7 ADD PUSH2 0x146 JUMP JUMPDEST SWAP2 POP POP SWAP3 POP SWAP3 SWAP1 POP JUMP JUMPDEST PUSH2 0x17FD DUP1 PUSH2 0x1A5 PUSH0 CODECOPY PUSH0 RETURN INVALID PUSH1 0x80 PUSH1 0x40 MSTORE CALLVALUE DUP1 ISZERO PUSH2 0xF JUMPI PUSH0 DUP1 REVERT JUMPDEST POP PUSH1 0x4 CALLDATASIZE LT PUSH2 0x9C JUMPI PUSH0 CALLDATALOAD PUSH1 0xE0 SHR DUP1 PUSH4 0x8C639A85 GT PUSH2 0x64 JUMPI DUP1 PUSH4 0x8C639A85 EQ PUSH2 0x15B JUMPI DUP1 PUSH4 0x8DA5CB5B EQ PUSH2 0x179 JUMPI DUP1 PUSH4 0xB6F45F11 EQ PUSH2 0x197 JUMPI DUP1 PUSH4 0xFA2AF9DA EQ PUSH2 0x1B3 JUMPI DUP1 PUSH4 0xFA3DED90 EQ PUSH2 0x1D1 JUMPI PUSH2 0x9C JUMP JUMPDEST DUP1 PUSH4 0x30EFC498 EQ PUSH2 0xA0 JUMPI DUP1 PUSH4 0x3687FC05 EQ PUSH2 0xBE JUMPI DUP1 PUSH4 0x513856C8 EQ PUSH2 0xEE JUMPI DUP1 PUSH4 0x6B4A8AE0 EQ PUSH2 0x121 JUMPI DUP1 PUSH4 0x82367B2D EQ PUSH2 0x13F JUMPI JUMPDEST PUSH0 DUP1 REVERT JUMPDEST PUSH2 0xA8 PUSH2 0x1ED JUMP JUMPDEST PUSH1 0x40 MLOAD PUSH2 0xB5 SWAP2 SWAP1 PUSH2 0xB66 JUMP JUMPDEST PUSH1 0x40 MLOAD DUP1 SWAP2 SUB SWAP1 RETURN JUMPDEST PUSH2 0xD8 PUSH1 0x4 DUP1 CALLDATASIZE SUB DUP2 ADD SWAP1 PUSH2 0xD3 SWAP2 SWAP1 PUSH2 0xCF6 JUMP JUMPDEST PUSH2 0x1F3 JUMP JUMPDEST PUSH1 0x40 MLOAD PUSH2 0xE5 SWAP2 SWAP1 PUSH2 0xB66 JUMP JUMPDEST PUSH1 0x40 MLOAD DUP1 SWAP2 SUB SWAP1 RETURN JUMPDEST PUSH2 0x108 PUSH1 0x4 DUP1 CALLDATASIZE SUB DUP2 ADD SWAP1 PUSH2 0x103 SWAP2 SWAP1 PUSH2 0xD50 JUMP JUMPDEST PUSH2 0x366 JUMP JUMPDEST PUSH1 0x40 MLOAD PUSH2 0x118 SWAP5 SWAP4 SWAP3 SWAP2 SWAP1 PUSH2 0xE34 JUMP JUMPDEST PUSH1 0x40 MLOAD DUP1 SWAP2 SUB SWAP1 RETURN JUMPDEST PUSH2 0x129 PUSH2 0x443 JUMP JUMPDEST PUSH1 0x40 MLOAD PUSH2 0x136 SWAP2 SWAP1 PUSH2 0xED9 JUMP JUMPDEST PUSH1 0x40 MLOAD DUP1 SWAP2 SUB SWAP1 RETURN JUMPDEST PUSH2 0x159 PUSH1 0x4 DUP1 CALLDATASIZE SUB DUP2 ADD SWAP1 PUSH2 0x154 SWAP2 SWAP1 PUSH2 0xEF2 JUMP JUMPDEST PUSH2 0x468 JUMP JUMPDEST STOP JUMPDEST PUSH2 0x163 PUSH2 0x5E4 JUMP JUMPDEST PUSH1 0x40 MLOAD PUSH2 0x170 SWAP2 SWAP1 PUSH2 0xB66 JUMP JUMPDEST PUSH1 0x40 MLOAD DUP1 SWAP2 SUB SWAP1 RETURN JUMPDEST PUSH2 0x181 PUSH2 0x5EA JUMP JUMPDEST PUSH1 0x40 MLOAD PUSH2 0x18E SWAP2 SWAP1 PUSH2 0xF30 JUMP JUMPDEST PUSH1 0x40 MLOAD DUP1 SWAP2 SUB SWAP1 RETURN JUMPDEST PUSH2 0x1B1 PUSH1 0x4 DUP1 CALLDATASIZE SUB DUP2 ADD SWAP1 PUSH2 0x1AC SWAP2 SWAP1 PUSH2 0xD50 JUMP JUMPDEST PUSH2 0x60D JUMP JUMPDEST STOP JUMPDEST PUSH2 0x1BB PUSH2 0x7BF JUMP JUMPDEST PUSH1 0x40 MLOAD PUSH2 0x1C8 SWAP2 SWAP1 PUSH2 0xF30 JUMP JUMPDEST PUSH1 0x40 MLOAD DUP1 SWAP2 SUB SWAP1 RETURN JUMPDEST PUSH2 0x1EB PUSH1 0x4 DUP1 CALLDATASIZE SUB DUP2 ADD SWAP1 PUSH2 0x1E6 SWAP2 SWAP1 PUSH2 0xD50 JUMP JUMPDEST PUSH2 0x7E4 JUMP JUMPDEST STOP JUMPDEST PUSH1 0x5 SLOAD DUP2 JUMP JUMPDEST PUSH0 DUP1 DUP4 GT PUSH2 0x236 JUMPI PUSH1 0x40 MLOAD PUSH32 0x8C379A000000000000000000000000000000000000000000000000000000000 DUP2 MSTORE PUSH1 0x4 ADD PUSH2 0x22D SWAP1 PUSH2 0xF93 JUMP JUMPDEST PUSH1 0x40 MLOAD DUP1 SWAP2 SUB SWAP1 REVERT JUMPDEST PUSH0 PUSH1 0x5 PUSH0 DUP2 SLOAD DUP1 SWAP3 SWAP2 SWAP1 PUSH2 0x249 SWAP1 PUSH2 0xFDE JUMP JUMPDEST SWAP2 SWAP1 POP SSTORE SWAP1 POP PUSH1 0x40 MLOAD DUP1 PUSH1 0x80 ADD PUSH1 0x40 MSTORE DUP1 CALLER PUSH20 0xFFFFFFFFFFFFFFFFFFFFFFFFFFFFFFFFFFFFFFFF AND DUP2 MSTORE PUSH1 0x20 ADD DUP6 DUP2 MSTORE PUSH1 0x20 ADD PUSH1 0x1 ISZERO ISZERO DUP2 MSTORE PUSH1 0x20 ADD DUP5 DUP2 MSTORE POP PUSH1 0x4 PUSH0 DUP4 DUP2 MSTORE PUSH1 0x20 ADD SWAP1 DUP2 MSTORE PUSH1 0x20 ADD PUSH0 KECCAK256 PUSH0 DUP3 ADD MLOAD DUP2 PUSH0 ADD PUSH0 PUSH2 0x100 EXP DUP2 SLOAD DUP2 PUSH20 0xFFFFFFFFFFFFFFFFFFFFFFFFFFFFFFFFFFFFFFFF MUL NOT AND SWAP1 DUP4 PUSH20 0xFFFFFFFFFFFFFFFFFFFFFFFFFFFFFFFFFFFFFFFF AND MUL OR SWAP1 SSTORE POP PUSH1 0x20 DUP3 ADD MLOAD DUP2 PUSH1 0x1 ADD SSTORE PUSH1 0x40 DUP3 ADD MLOAD DUP2 PUSH1 0x2 ADD PUSH0 PUSH2 0x100 EXP DUP2 SLOAD DUP2 PUSH1 0xFF MUL NOT AND SWAP1 DUP4 ISZERO ISZERO MUL OR SWAP1 SSTORE POP PUSH1 0x60 DUP3 ADD MLOAD DUP2 PUSH1 0x3 ADD SWAP1 DUP2 PUSH2 0x31C SWAP2 SWAP1 PUSH2 0x1216 JUMP JUMPDEST POP SWAP1 POP POP DUP1 PUSH32 0x105F92E9D1E7880E6A383D06A0B916D961EBD471D6B19D11F335B4213C989397 CALLER DUP7 DUP7 PUSH1 0x40 MLOAD PUSH2 0x354 SWAP4 SWAP3 SWAP2 SWAP1 PUSH2 0x12E5 JUMP JUMPDEST PUSH1 0x40 MLOAD DUP1 SWAP2 SUB SWAP1 LOG2 DUP1 SWAP2 POP POP SWAP3 SWAP2 POP POP JUMP JUMPDEST PUSH1 0x4 PUSH1 0x20 MSTORE DUP1 PUSH0 MSTORE PUSH1 0x40 PUSH0 KECCAK256 PUSH0 SWAP2 POP SWAP1 POP DUP1 PUSH0 ADD PUSH0 SWAP1 SLOAD SWAP1 PUSH2 0x100 EXP SWAP1 DIV PUSH20 0xFFFFFFFFFFFFFFFFFFFFFFFFFFFFFFFFFFFFFFFF AND SWAP1 DUP1 PUSH1 0x1 ADD SLOAD SWAP1 DUP1 PUSH1 0x2 ADD PUSH0 SWAP1 SLOAD SWAP1 PUSH2 0x100 EXP SWAP1 DIV PUSH1 0xFF AND SWAP1 DUP1 PUSH1 0x3 ADD DUP1 SLOAD PUSH2 0x3C2 SWAP1 PUSH2 0x1052 JUMP JUMPDEST DUP1 PUSH1 0x1F ADD PUSH1 0x20 DUP1 SWAP2 DIV MUL PUSH1 0x20 ADD PUSH1 0x40 MLOAD SWAP1 DUP2 ADD PUSH1 0x40 MSTORE DUP1 SWAP3 SWAP2 SWAP1 DUP2 DUP2 MSTORE PUSH1 0x20 ADD DUP3 DUP1 SLOAD PUSH2 0x3EE SWAP1 PUSH2 0x1052 JUMP JUMPDEST DUP1 ISZERO PUSH2 0x439 JUMPI DUP1 PUSH1 0x1F LT PUSH2 0x410 JUMPI PUSH2 0x100 DUP1 DUP4 SLOAD DIV MUL DUP4 MSTORE SWAP2 PUSH1 0x20 ADD SWAP2 PUSH2 0x439 JUMP JUMPDEST DUP3 ADD SWAP2 SWAP1 PUSH0 MSTORE PUSH1 0x20 PUSH0 KECCAK256 SWAP1 JUMPDEST DUP2 SLOAD DUP2 MSTORE SWAP1 PUSH1 0x1 ADD SWAP1 PUSH1 0x20 ADD DUP1 DUP4 GT PUSH2 0x41C JUMPI DUP3 SWAP1 SUB PUSH1 0x1F AND DUP3 ADD SWAP2 JUMPDEST POP POP POP POP POP SWAP1 POP DUP5 JUMP JUMPDEST PUSH1 0x3 PUSH0 SWAP1 SLOAD SWAP1 PUSH2 0x100 EXP SWAP1 DIV PUSH20 0xFFFFFFFFFFFFFFFFFFFFFFFFFFFFFFFFFFFFFFFF AND DUP2 JUMP JUMPDEST PUSH0 PUSH1 0x4 PUSH0 DUP5 DUP2 MSTORE PUSH1 0x20 ADD SWAP1 DUP2 MSTORE PUSH1 0x20 ADD PUSH0 KECCAK256 SWAP1 POP DUP1 PUSH0 ADD PUSH0 SWAP1 SLOAD SWAP1 PUSH2 0x100 EXP SWAP1 DIV PUSH20 0xFFFFFFFFFFFFFFFFFFFFFFFFFFFFFFFFFFFFFFFF AND PUSH20 0xFFFFFFFFFFFFFFFFFFFFFFFFFFFFFFFFFFFFFFFF AND CALLER PUSH20 0xFFFFFFFFFFFFFFFFFFFFFFFFFFFFFFFFFFFFFFFF AND EQ PUSH2 0x50C JUMPI PUSH1 0x40 MLOAD PUSH32 0x8C379A000000000000000000000000000000000000000000000000000000000 DUP2 MSTORE PUSH1 0x4 ADD PUSH2 0x503 SWAP1 PUSH2 0x136B JUMP JUMPDEST PUSH1 0x40 MLOAD DUP1 SWAP2 SUB SWAP1 REVERT JUMPDEST DUP1 PUSH1 0x2 ADD PUSH0 SWAP1 SLOAD SWAP1 PUSH2 0x100 EXP SWAP1 DIV PUSH1 0xFF AND PUSH2 0x55C JUMPI PUSH1 0x40 MLOAD PUSH32 0x8C379A000000000000000000000000000000000000000000000000000000000 DUP2 MSTORE PUSH1 0x4 ADD PUSH2 0x553 SWAP1 PUSH2 0x13F9 JUMP JUMPDEST PUSH1 0x40 MLOAD DUP1 SWAP2 SUB SWAP1 REVERT JUMPDEST PUSH0 DUP3 GT PUSH2 0x59E JUMPI PUSH1 0x40 MLOAD PUSH32 0x8C379A000000000000000000000000000000000000000000000000000000000 DUP2 MSTORE PUSH1 0x4 ADD PUSH2 0x595 SWAP1 PUSH2 0xF93 JUMP JUMPDEST PUSH1 0x40 MLOAD DUP1 SWAP2 SUB SWAP1 REVERT JUMPDEST DUP2 DUP2 PUSH1 0x1 ADD DUP2 SWAP1 SSTORE POP DUP3 PUSH32 0x945C1C4E99AA89F648FBFE3DF471B916F719E16D960FCEC0737D4D56BD696838 DUP4 PUSH1 0x40 MLOAD PUSH2 0x5D7 SWAP2 SWAP1 PUSH2 0xB66 JUMP JUMPDEST PUSH1 0x40 MLOAD DUP1 SWAP2 SUB SWAP1 LOG2 POP POP POP JUMP JUMPDEST PUSH1 0x2 SLOAD DUP2 JUMP JUMPDEST PUSH0 DUP1 SLOAD SWAP1 PUSH2 0x100 EXP SWAP1 DIV PUSH20 0xFFFFFFFFFFFFFFFFFFFFFFFFFFFFFFFFFFFFFFFF AND DUP2 JUMP JUMPDEST DUP1 PUSH1 0x4 PUSH0 DUP3 DUP2 MSTORE PUSH1 0x20 ADD SWAP1 DUP2 MSTORE PUSH1 0x20 ADD PUSH0 KECCAK256 PUSH0 ADD PUSH0 SWAP1 SLOAD SWAP1 PUSH2 0x100 EXP SWAP1 DIV PUSH20 0xFFFFFFFFFFFFFFFFFFFFFFFFFFFFFFFFFFFFFFFF AND PUSH20 0xFFFFFFFFFFFFFFFFFFFFFFFFFFFFFFFFFFFFFFFF AND CALLER PUSH20 0xFFFFFFFFFFFFFFFFFFFFFFFFFFFFFFFFFFFFFFFF AND EQ DUP1 PUSH2 0x6C4 JUMPI POP PUSH0 DUP1 SLOAD SWAP1 PUSH2 0x100 EXP SWAP1 DIV PUSH20 0xFFFFFFFFFFFFFFFFFFFFFFFFFFFFFFFFFFFFFFFF AND PUSH20 0xFFFFFFFFFFFFFFFFFFFFFFFFFFFFFFFFFFFFFFFF AND CALLER PUSH20 0xFFFFFFFFFFFFFFFFFFFFFFFFFFFFFFFFFFFFFFFF AND EQ JUMPDEST PUSH2 0x703 JUMPI PUSH1 0x40 MLOAD PUSH32 0x8C379A000000000000000000000000000000000000000000000000000000000 DUP2 MSTORE PUSH1 0x4 ADD PUSH2 0x6FA SWAP1 PUSH2 0x1487 JUMP JUMPDEST PUSH1 0x40 MLOAD DUP1 SWAP2 SUB SWAP1 REVERT JUMPDEST PUSH0 PUSH1 0x4 PUSH0 DUP5 DUP2 MSTORE PUSH1 0x20 ADD SWAP1 DUP2 MSTORE PUSH1 0x20 ADD PUSH0 KECCAK256 SWAP1 POP DUP1 PUSH1 0x2 ADD PUSH0 SWAP1 SLOAD SWAP1 PUSH2 0x100 EXP SWAP1 DIV PUSH1 0xFF AND PUSH2 0x767 JUMPI PUSH1 0x40 MLOAD PUSH32 0x8C379A000000000000000000000000000000000000000000000000000000000 DUP2 MSTORE PUSH1 0x4 ADD PUSH2 0x75E SWAP1 PUSH2 0x14EF JUMP JUMPDEST PUSH1 0x40 MLOAD DUP1 SWAP2 SUB SWAP1 REVERT JUMPDEST PUSH0 DUP2 PUSH1 0x2 ADD PUSH0 PUSH2 0x100 EXP DUP2 SLOAD DUP2 PUSH1 0xFF MUL NOT AND SWAP1 DUP4 ISZERO ISZERO MUL OR SWAP1 SSTORE POP DUP3 PUSH32 0xB0E83D43E83A64DCAFDC683932CC419DF21DB0FB53F8229925356E7E1F4BF59D CALLER PUSH1 0x40 MLOAD PUSH2 0x7B2 SWAP2 SWAP1 PUSH2 0xF30 JUMP JUMPDEST PUSH1 0x40 MLOAD DUP1 SWAP2 SUB SWAP1 LOG2 POP POP POP JUMP JUMPDEST PUSH1 0x1 PUSH0 SWAP1 SLOAD SWAP1 PUSH2 0x100 EXP SWAP1 DIV PUSH20 0xFFFFFFFFFFFFFFFFFFFFFFFFFFFFFFFFFFFFFFFF AND DUP2 JUMP JUMPDEST PUSH0 PUSH1 0x4 PUSH0 DUP4 DUP2 MSTORE PUSH1 0x20 ADD SWAP1 DUP2 MSTORE PUSH1 0x20 ADD PUSH0 KECCAK256 SWAP1 POP DUP1 PUSH1 0x2 ADD PUSH0 SWAP1 SLOAD SWAP1 PUSH2 0x100 EXP SWAP1 DIV PUSH1 0xFF AND PUSH2 0x848 JUMPI PUSH1 0x40 MLOAD PUSH32 0x8C379A000000000000000000000000000000000000000000000000000000000 DUP2 MSTORE PUSH1 0x4 ADD PUSH2 0x83F SWAP1 PUSH2 0x13F9 JUMP JUMPDEST PUSH1 0x40 MLOAD DUP1 SWAP2 SUB SWAP1 REVERT JUMPDEST DUP1 PUSH0 ADD PUSH0 SWAP1 SLOAD SWAP1 PUSH2 0x100 EXP SWAP1 DIV PUSH20 0xFFFFFFFFFFFFFFFFFFFFFFFFFFFFFFFFFFFFFFFF AND PUSH20 0xFFFFFFFFFFFFFFFFFFFFFFFFFFFFFFFFFFFFFFFF AND CALLER PUSH20 0xFFFFFFFFFFFFFFFFFFFFFFFFFFFFFFFFFFFFFFFF AND SUB PUSH2 0x8D8 JUMPI PUSH1 0x40 MLOAD PUSH32 0x8C379A000000000000000000000000000000000000000000000000000000000 DUP2 MSTORE PUSH1 0x4 ADD PUSH2 0x8CF SWAP1 PUSH2 0x1557 JUMP JUMPDEST PUSH1 0x40 MLOAD DUP1 SWAP2 SUB SWAP1 REVERT JUMPDEST PUSH0 PUSH2 0x3E8 PUSH1 0x2 SLOAD DUP4 PUSH1 0x1 ADD SLOAD PUSH2 0x8EE SWAP2 SWAP1 PUSH2 0x1575 JUMP JUMPDEST PUSH2 0x8F8 SWAP2 SWAP1 PUSH2 0x15E3 JUMP JUMPDEST SWAP1 POP PUSH0 DUP2 DUP4 PUSH1 0x1 ADD SLOAD PUSH2 0x90B SWAP2 SWAP1 PUSH2 0x1613 JUMP JUMPDEST SWAP1 POP PUSH1 0x3 PUSH0 SWAP1 SLOAD SWAP1 PUSH2 0x100 EXP SWAP1 DIV PUSH20 0xFFFFFFFFFFFFFFFFFFFFFFFFFFFFFFFFFFFFFFFF AND PUSH20 0xFFFFFFFFFFFFFFFFFFFFFFFFFFFFFFFFFFFFFFFF AND PUSH4 0x23B872DD CALLER PUSH1 0x1 PUSH0 SWAP1 SLOAD SWAP1 PUSH2 0x100 EXP SWAP1 DIV PUSH20 0xFFFFFFFFFFFFFFFFFFFFFFFFFFFFFFFFFFFFFFFF AND DUP6 PUSH1 0x40 MLOAD DUP5 PUSH4 0xFFFFFFFF AND PUSH1 0xE0 SHL DUP2 MSTORE PUSH1 0x4 ADD PUSH2 0x98C SWAP4 SWAP3 SWAP2 SWAP1 PUSH2 0x1646 JUMP JUMPDEST PUSH1 0x20 PUSH1 0x40 MLOAD DUP1 DUP4 SUB DUP2 PUSH0 DUP8 GAS CALL ISZERO DUP1 ISZERO PUSH2 0x9A8 JUMPI RETURNDATASIZE PUSH0 DUP1 RETURNDATACOPY RETURNDATASIZE PUSH0 REVERT JUMPDEST POP POP POP POP PUSH1 0x40 MLOAD RETURNDATASIZE PUSH1 0x1F NOT PUSH1 0x1F DUP3 ADD AND DUP3 ADD DUP1 PUSH1 0x40 MSTORE POP DUP2 ADD SWAP1 PUSH2 0x9CC SWAP2 SWAP1 PUSH2 0x16A5 JUMP JUMPDEST PUSH2 0xA0B JUMPI PUSH1 0x40 MLOAD PUSH32 0x8C379A000000000000000000000000000000000000000000000000000000000 DUP2 MSTORE PUSH1 0x4 ADD PUSH2 0xA02 SWAP1 PUSH2 0x171A JUMP JUMPDEST PUSH1 0x40 MLOAD DUP1 SWAP2 SUB SWAP1 REVERT JUMPDEST PUSH1 0x3 PUSH0 SWAP1 SLOAD SWAP1 PUSH2 0x100 EXP SWAP1 DIV PUSH20 0xFFFFFFFFFFFFFFFFFFFFFFFFFFFFFFFFFFFFFFFF AND PUSH20 0xFFFFFFFFFFFFFFFFFFFFFFFFFFFFFFFFFFFFFFFF AND PUSH4 0x23B872DD CALLER DUP6 PUSH0 ADD PUSH0 SWAP1 SLOAD SWAP1 PUSH2 0x100 EXP SWAP1 DIV PUSH20 0xFFFFFFFFFFFFFFFFFFFFFFFFFFFFFFFFFFFFFFFF AND DUP5 PUSH1 0x40 MLOAD DUP5 PUSH4 0xFFFFFFFF AND PUSH1 0xE0 SHL DUP2 MSTORE PUSH1 0x4 ADD PUSH2 0xA8B SWAP4 SWAP3 SWAP2 SWAP1 PUSH2 0x1646 JUMP JUMPDEST PUSH1 0x20 PUSH1 0x40 MLOAD DUP1 DUP4 SUB DUP2 PUSH0 DUP8 GAS CALL ISZERO DUP1 ISZERO PUSH2 0xAA7 JUMPI RETURNDATASIZE PUSH0 DUP1 RETURNDATACOPY RETURNDATASIZE PUSH0 REVERT JUMPDEST POP POP POP POP PUSH1 0x40 MLOAD RETURNDATASIZE PUSH1 0x1F NOT PUSH1 0x1F DUP3 ADD AND DUP3 ADD DUP1 PUSH1 0x40 MSTORE POP DUP2 ADD SWAP1 PUSH2 0xACB SWAP2 SWAP1 PUSH2 0x16A5 JUMP JUMPDEST PUSH2 0xB0A JUMPI PUSH1 0x40 MLOAD PUSH32 0x8C379A000000000000000000000000000000000000000000000000000000000 DUP2 MSTORE PUSH1 0x4 ADD PUSH2 0xB01 SWAP1 PUSH2 0x1782 JUMP JUMPDEST PUSH1 0x40 MLOAD DUP1 SWAP2 SUB SWAP1 REVERT JUMPDEST DUP4 PUSH32 0xE53CFC2FCAA7BEB2B2B6FE1A55C9BDFBE04DBAFC568D0819627FD852EA2863ED CALLER DUP6 PUSH1 0x1 ADD SLOAD PUSH1 0x40 MLOAD PUSH2 0xB40 SWAP3 SWAP2 SWAP1 PUSH2 0x17A0 JUMP JUMPDEST PUSH1 0x40 MLOAD DUP1 SWAP2 SUB SWAP1 LOG2 POP POP POP POP JUMP JUMPDEST PUSH0 DUP2 SWAP1 POP SWAP2 SWAP1 POP JUMP JUMPDEST PUSH2 0xB60 DUP2 PUSH2 0xB4E JUMP JUMPDEST DUP3 MSTORE POP POP JUMP JUMPDEST PUSH0 PUSH1 0x20 DUP3 ADD SWAP1 POP PUSH2 0xB79 PUSH0 DUP4 ADD DUP5 PUSH2 0xB57 JUMP JUMPDEST SWAP3 SWAP2 POP POP JUMP JUMPDEST PUSH0 PUSH1 0x40 MLOAD SWAP1 POP SWAP1 JUMP JUMPDEST PUSH0 DUP1 REVERT JUMPDEST PUSH0 DUP1 REVERT JUMPDEST PUSH2 0xB99 DUP2 PUSH2 0xB4E JUMP JUMPDEST DUP2 EQ PUSH2 0xBA3 JUMPI PUSH0 DUP1 REVERT JUMPDEST POP JUMP JUMPDEST PUSH0 DUP2 CALLDATALOAD SWAP1 POP PUSH2 0xBB4 DUP2 PUSH2 0xB90 JUMP JUMPDEST SWAP3 SWAP2 POP POP JUMP JUMPDEST PUSH0 DUP1 REVERT JUMPDEST PUSH0 DUP1 REVERT JUMPDEST PUSH0 PUSH1 0x1F NOT PUSH1 0x1F DUP4 ADD AND SWAP1 POP SWAP2 SWAP1 POP JUMP JUMPDEST PUSH32 0x4E487B7100000000000000000000000000000000000000000000000000000000 PUSH0 MSTORE PUSH1 0x41 PUSH1 0x4 MSTORE PUSH1 0x24 PUSH0 REVERT JUMPDEST PUSH2 0xC08 DUP3 PUSH2 0xBC2 JUMP JUMPDEST DUP2 ADD DUP2 DUP2 LT PUSH8 0xFFFFFFFFFFFFFFFF DUP3 GT OR ISZERO PUSH2 0xC27 JUMPI PUSH2 0xC26 PUSH2 0xBD2 JUMP JUMPDEST JUMPDEST DUP1 PUSH1 0x40 MSTORE POP POP POP JUMP JUMPDEST PUSH0 PUSH2 0xC39 PUSH2 0xB7F JUMP JUMPDEST SWAP1 POP PUSH2 0xC45 DUP3 DUP3 PUSH2 0xBFF JUMP JUMPDEST SWAP2 SWAP1 POP JUMP JUMPDEST PUSH0 PUSH8 0xFFFFFFFFFFFFFFFF DUP3 GT ISZERO PUSH2 0xC64 JUMPI PUSH2 0xC63 PUSH2 0xBD2 JUMP JUMPDEST JUMPDEST PUSH2 0xC6D DUP3 PUSH2 0xBC2 JUMP JUMPDEST SWAP1 POP PUSH1 0x20 DUP2 ADD SWAP1 POP SWAP2 SWAP1 POP JUMP JUMPDEST DUP3 DUP2 DUP4 CALLDATACOPY PUSH0 DUP4 DUP4 ADD MSTORE POP POP POP JUMP JUMPDEST PUSH0 PUSH2 0xC9A PUSH2 0xC95 DUP5 PUSH2 0xC4A JUMP JUMPDEST PUSH2 0xC30 JUMP JUMPDEST SWAP1 POP DUP3 DUP2 MSTORE PUSH1 0x20 DUP2 ADD DUP5 DUP5 DUP5 ADD GT ISZERO PUSH2 0xCB6 JUMPI PUSH2 0xCB5 PUSH2 0xBBE JUMP JUMPDEST JUMPDEST PUSH2 0xCC1 DUP5 DUP3 DUP6 PUSH2 0xC7A JUMP JUMPDEST POP SWAP4 SWAP3 POP POP POP JUMP JUMPDEST PUSH0 DUP3 PUSH1 0x1F DUP4 ADD SLT PUSH2 0xCDD JUMPI PUSH2 0xCDC PUSH2 0xBBA JUMP JUMPDEST JUMPDEST DUP2 CALLDATALOAD PUSH2 0xCED DUP5 DUP3 PUSH1 0x20 DUP7 ADD PUSH2 0xC88 JUMP JUMPDEST SWAP2 POP POP SWAP3 SWAP2 POP POP JUMP JUMPDEST PUSH0 DUP1 PUSH1 0x40 DUP4 DUP6 SUB SLT ISZERO PUSH2 0xD0C JUMPI PUSH2 0xD0B PUSH2 0xB88 JUMP JUMPDEST JUMPDEST PUSH0 PUSH2 0xD19 DUP6 DUP3 DUP7 ADD PUSH2 0xBA6 JUMP JUMPDEST SWAP3 POP POP PUSH1 0x20 DUP4 ADD CALLDATALOAD PUSH8 0xFFFFFFFFFFFFFFFF DUP2 GT ISZERO PUSH2 0xD3A JUMPI PUSH2 0xD39 PUSH2 0xB8C JUMP JUMPDEST JUMPDEST PUSH2 0xD46 DUP6 DUP3 DUP7 ADD PUSH2 0xCC9 JUMP JUMPDEST SWAP2 POP POP SWAP3 POP SWAP3 SWAP1 POP JUMP JUMPDEST PUSH0 PUSH1 0x20 DUP3 DUP5 SUB SLT ISZERO PUSH2 0xD65 JUMPI PUSH2 0xD64 PUSH2 0xB88 JUMP JUMPDEST JUMPDEST PUSH0 PUSH2 0xD72 DUP5 DUP3 DUP6 ADD PUSH2 0xBA6 JUMP JUMPDEST SWAP2 POP POP SWAP3 SWAP2 POP POP JUMP JUMPDEST PUSH0 PUSH20 0xFFFFFFFFFFFFFFFFFFFFFFFFFFFFFFFFFFFFFFFF DUP3 AND SWAP1 POP SWAP2 SWAP1 POP JUMP JUMPDEST PUSH0 PUSH2 0xDA4 DUP3 PUSH2 0xD7B JUMP JUMPDEST SWAP1 POP SWAP2 SWAP1 POP JUMP JUMPDEST PUSH2 0xDB4 DUP2 PUSH2 0xD9A JUMP JUMPDEST DUP3 MSTORE POP POP JUMP JUMPDEST PUSH0 DUP2 ISZERO ISZERO SWAP1 POP SWAP2 SWAP1 POP JUMP JUMPDEST PUSH2 0xDCE DUP2 PUSH2 0xDBA JUMP JUMPDEST DUP3 MSTORE POP POP JUMP JUMPDEST PUSH0 DUP2 MLOAD SWAP1 POP SWAP2 SWAP1 POP JUMP JUMPDEST PUSH0 DUP3 DUP3 MSTORE PUSH1 0x20 DUP3 ADD SWAP1 POP SWAP3 SWAP2 POP POP JUMP JUMPDEST DUP3 DUP2 DUP4 MCOPY PUSH0 DUP4 DUP4 ADD MSTORE POP POP POP JUMP JUMPDEST PUSH0 PUSH2 0xE06 DUP3 PUSH2 0xDD4 JUMP JUMPDEST PUSH2 0xE10 DUP2 DUP6 PUSH2 0xDDE JUMP JUMPDEST SWAP4 POP PUSH2 0xE20 DUP2 DUP6 PUSH1 0x20 DUP7 ADD PUSH2 0xDEE JUMP JUMPDEST PUSH2 0xE29 DUP2 PUSH2 0xBC2 JUMP JUMPDEST DUP5 ADD SWAP2 POP POP SWAP3 SWAP2 POP POP JUMP JUMPDEST PUSH0 PUSH1 0x80 DUP3 ADD SWAP1 POP PUSH2 0xE47 PUSH0 DUP4 ADD DUP8 PUSH2 0xDAB JUMP JUMPDEST PUSH2 0xE54 PUSH1 0x20 DUP4 ADD DUP7 PUSH2 0xB57 JUMP JUMPDEST PUSH2 0xE61 PUSH1 0x40 DUP4 ADD DUP6 PUSH2 0xDC5 JUMP JUMPDEST DUP2 DUP2 SUB PUSH1 0x60 DUP4 ADD MSTORE PUSH2 0xE73 DUP2 DUP5 PUSH2 0xDFC JUMP JUMPDEST SWAP1 POP SWAP6 SWAP5 POP POP POP POP POP JUMP JUMPDEST PUSH0 DUP2 SWAP1 POP SWAP2 SWAP1 POP JUMP JUMPDEST PUSH0 PUSH2 0xEA1 PUSH2 0xE9C PUSH2 0xE97 DUP5 PUSH2 0xD7B JUMP JUMPDEST PUSH2 0xE7E JUMP JUMPDEST PUSH2 0xD7B JUMP JUMPDEST SWAP1 POP SWAP2 SWAP1 POP JUMP JUMPDEST PUSH0 PUSH2 0xEB2 DUP3 PUSH2 0xE87 JUMP JUMPDEST SWAP1 POP SWAP2 SWAP1 POP JUMP JUMPDEST PUSH0 PUSH2 0xEC3 DUP3 PUSH2 0xEA8 JUMP JUMPDEST SWAP1 POP SWAP2 SWAP1 POP JUMP JUMPDEST PUSH2 0xED3 DUP2 PUSH2 0xEB9 JUMP JUMPDEST DUP3 MSTORE POP POP JUMP JUMPDEST PUSH0 PUSH1 0x20 DUP3 ADD SWAP1 POP PUSH2 0xEEC PUSH0 DUP4 ADD DUP5 PUSH2 0xECA JUMP JUMPDEST SWAP3 SWAP2 POP POP JUMP JUMPDEST PUSH0 DUP1 PUSH1 0x40 DUP4 DUP6 SUB SLT ISZERO PUSH2 0xF08 JUMPI PUSH2 0xF07 PUSH2 0xB88 JUMP JUMPDEST JUMPDEST PUSH0 PUSH2 0xF15 DUP6 DUP3 DUP7 ADD PUSH2 0xBA6 JUMP JUMPDEST SWAP3 POP POP PUSH1 0x20 PUSH2 0xF26 DUP6 DUP3 DUP7 ADD PUSH2 0xBA6 JUMP JUMPDEST SWAP2 POP POP SWAP3 POP SWAP3 SWAP1 POP JUMP JUMPDEST PUSH0 PUSH1 0x20 DUP3 ADD SWAP1 POP PUSH2 0xF43 PUSH0 DUP4 ADD DUP5 PUSH2 0xDAB JUMP JUMPDEST SWAP3 SWAP2 POP POP JUMP JUMPDEST PUSH32 0x5072696365206D7573742062652067726561746572207468616E203000000000 PUSH0 DUP3 ADD MSTORE POP JUMP JUMPDEST PUSH0 PUSH2 0xF7D PUSH1 0x1C DUP4 PUSH2 0xDDE JUMP JUMPDEST SWAP2 POP PUSH2 0xF88 DUP3 PUSH2 0xF49 JUMP JUMPDEST PUSH1 0x20 DUP3 ADD SWAP1 POP SWAP2 SWAP1 POP JUMP JUMPDEST PUSH0 PUSH1 0x20 DUP3 ADD SWAP1 POP DUP2 DUP2 SUB PUSH0 DUP4 ADD MSTORE PUSH2 0xFAA DUP2 PUSH2 0xF71 JUMP JUMPDEST SWAP1 POP SWAP2 SWAP1 POP JUMP JUMPDEST PUSH32 0x4E487B7100000000000000000000000000000000000000000000000000000000 PUSH0 MSTORE PUSH1 0x11 PUSH1 0x4 MSTORE PUSH1 0x24 PUSH0 REVERT JUMPDEST PUSH0 PUSH2 0xFE8 DUP3 PUSH2 0xB4E JUMP JUMPDEST SWAP2 POP PUSH32 0xFFFFFFFFFFFFFFFFFFFFFFFFFFFFFFFFFFFFFFFFFFFFFFFFFFFFFFFFFFFFFFFF DUP3 SUB PUSH2 0x101A JUMPI PUSH2 0x1019 PUSH2 0xFB1 JUMP JUMPDEST JUMPDEST PUSH1 0x1 DUP3 ADD SWAP1 POP SWAP2 SWAP1 POP JUMP JUMPDEST PUSH32 0x4E487B7100000000000000000000000000000000000000000000000000000000 PUSH0 MSTORE PUSH1 0x22 PUSH1 0x4 MSTORE PUSH1 0x24 PUSH0 REVERT JUMPDEST PUSH0 PUSH1 0x2 DUP3 DIV SWAP1 POP PUSH1 0x1 DUP3 AND DUP1 PUSH2 0x1069 JUMPI PUSH1 0x7F DUP3 AND SWAP2 POP JUMPDEST PUSH1 0x20 DUP3 LT DUP2 SUB PUSH2 0x107C JUMPI PUSH2 0x107B PUSH2 0x1025 JUMP JUMPDEST JUMPDEST POP SWAP2 SWAP1 POP JUMP JUMPDEST PUSH0 DUP2 SWAP1 POP DUP2 PUSH0 MSTORE PUSH1 0x20 PUSH0 KECCAK256 SWAP1 POP SWAP2 SWAP1 POP JUMP JUMPDEST PUSH0 PUSH1 0x20 PUSH1 0x1F DUP4 ADD DIV SWAP1 POP SWAP2 SWAP1 POP JUMP JUMPDEST PUSH0 DUP3 DUP3 SHL SWAP1 POP SWAP3 SWAP2 POP POP JUMP JUMPDEST PUSH0 PUSH1 0x8 DUP4 MUL PUSH2 0x10DE PUSH32 0xFFFFFFFFFFFFFFFFFFFFFFFFFFFFFFFFFFFFFFFFFFFFFFFFFFFFFFFFFFFFFFFF DUP3 PUSH2 0x10A3 JUMP JUMPDEST PUSH2 0x10E8 DUP7 DUP4 PUSH2 0x10A3 JUMP JUMPDEST SWAP6 POP DUP1 NOT DUP5 AND SWAP4 POP DUP1 DUP7 AND DUP5 OR SWAP3 POP POP POP SWAP4 SWAP3 POP POP POP JUMP JUMPDEST PUSH0 PUSH2 0x111A PUSH2 0x1115 PUSH2 0x1110 DUP5 PUSH2 0xB4E JUMP JUMPDEST PUSH2 0xE7E JUMP JUMPDEST PUSH2 0xB4E JUMP JUMPDEST SWAP1 POP SWAP2 SWAP1 POP JUMP JUMPDEST PUSH0 DUP2 SWAP1 POP SWAP2 SWAP1 POP JUMP JUMPDEST PUSH2 0x1133 DUP4 PUSH2 0x1100 JUMP JUMPDEST PUSH2 0x1147 PUSH2 0x113F DUP3 PUSH2 0x1121 JUMP JUMPDEST DUP5 DUP5 SLOAD PUSH2 0x10AF JUMP JUMPDEST DUP3 SSTORE POP POP POP POP JUMP JUMPDEST PUSH0 SWAP1 JUMP JUMPDEST PUSH2 0x115B PUSH2 0x114F JUMP JUMPDEST PUSH2 0x1166 DUP2 DUP5 DUP5 PUSH2 0x112A JUMP JUMPDEST POP POP POP JUMP JUMPDEST JUMPDEST DUP2 DUP2 LT ISZERO PUSH2 0x1189 JUMPI PUSH2 0x117E PUSH0 DUP3 PUSH2 0x1153 JUMP JUMPDEST PUSH1 0x1 DUP2 ADD SWAP1 POP PUSH2 0x116C JUMP JUMPDEST POP POP JUMP JUMPDEST PUSH1 0x1F DUP3 GT ISZERO PUSH2 0x11CE JUMPI PUSH2 0x119F DUP2 PUSH2 0x1082 JUMP JUMPDEST PUSH2 0x11A8 DUP5 PUSH2 0x1094 JUMP JUMPDEST DUP2 ADD PUSH1 0x20 DUP6 LT ISZERO PUSH2 0x11B7 JUMPI DUP2 SWAP1 POP JUMPDEST PUSH2 0x11CB PUSH2 0x11C3 DUP6 PUSH2 0x1094 JUMP JUMPDEST DUP4 ADD DUP3 PUSH2 0x116B JUMP JUMPDEST POP POP JUMPDEST POP POP POP JUMP JUMPDEST PUSH0 DUP3 DUP3 SHR SWAP1 POP SWAP3 SWAP2 POP POP JUMP JUMPDEST PUSH0 PUSH2 0x11EE PUSH0 NOT DUP5 PUSH1 0x8 MUL PUSH2 0x11D3 JUMP JUMPDEST NOT DUP1 DUP4 AND SWAP2 POP POP SWAP3 SWAP2 POP POP JUMP JUMPDEST PUSH0 PUSH2 0x1206 DUP4 DUP4 PUSH2 0x11DF JUMP JUMPDEST SWAP2 POP DUP3 PUSH1 0x2 MUL DUP3 OR SWAP1 POP SWAP3 SWAP2 POP POP JUMP JUMPDEST PUSH2 0x121F DUP3 PUSH2 0xDD4 JUMP JUMPDEST PUSH8 0xFFFFFFFFFFFFFFFF DUP2 GT ISZERO PUSH2 0x1238 JUMPI PUSH2 0x1237 PUSH2 0xBD2 JUMP JUMPDEST JUMPDEST PUSH2 0x1242 DUP3 SLOAD PUSH2 0x1052 JUMP JUMPDEST PUSH2 0x124D DUP3 DUP3 DUP6 PUSH2 0x118D JUMP JUMPDEST PUSH0 PUSH1 0x20 SWAP1 POP PUSH1 0x1F DUP4 GT PUSH1 0x1 DUP2 EQ PUSH2 0x127E JUMPI PUSH0 DUP5 ISZERO PUSH2 0x126C JUMPI DUP3 DUP8 ADD MLOAD SWAP1 POP JUMPDEST PUSH2 0x1276 DUP6 DUP3 PUSH2 0x11FB JUMP JUMPDEST DUP7 SSTORE POP PUSH2 0x12DD JUMP JUMPDEST PUSH1 0x1F NOT DUP5 AND PUSH2 0x128C DUP7 PUSH2 0x1082 JUMP JUMPDEST PUSH0 JUMPDEST DUP3 DUP2 LT ISZERO PUSH2 0x12B3 JUMPI DUP5 DUP10 ADD MLOAD DUP3 SSTORE PUSH1 0x1 DUP3 ADD SWAP2 POP PUSH1 0x20 DUP6 ADD SWAP5 POP PUSH1 0x20 DUP2 ADD SWAP1 POP PUSH2 0x128E JUMP JUMPDEST DUP7 DUP4 LT ISZERO PUSH2 0x12D0 JUMPI DUP5 DUP10 ADD MLOAD PUSH2 0x12CC PUSH1 0x1F DUP10 AND DUP3 PUSH2 0x11DF JUMP JUMPDEST DUP4 SSTORE POP JUMPDEST PUSH1 0x1 PUSH1 0x2 DUP9 MUL ADD DUP9 SSTORE POP POP POP JUMPDEST POP POP POP POP POP POP JUMP JUMPDEST PUSH0 PUSH1 0x60 DUP3 ADD SWAP1 POP PUSH2 0x12F8 PUSH0 DUP4 ADD DUP7 PUSH2 0xDAB JUMP JUMPDEST PUSH2 0x1305 PUSH1 0x20 DUP4 ADD DUP6 PUSH2 0xB57 JUMP JUMPDEST DUP2 DUP2 SUB PUSH1 0x40 DUP4 ADD MSTORE PUSH2 0x1317 DUP2 DUP5 PUSH2 0xDFC JUMP JUMPDEST SWAP1 POP SWAP5 SWAP4 POP POP POP POP JUMP JUMPDEST PUSH32 0x4F6E6C792073656C6C65722063616E2075706461746520707269636500000000 PUSH0 DUP3 ADD MSTORE POP JUMP JUMPDEST PUSH0 PUSH2 0x1355 PUSH1 0x1C DUP4 PUSH2 0xDDE JUMP JUMPDEST SWAP2 POP PUSH2 0x1360 DUP3 PUSH2 0x1321 JUMP JUMPDEST PUSH1 0x20 DUP3 ADD SWAP1 POP SWAP2 SWAP1 POP JUMP JUMPDEST PUSH0 PUSH1 0x20 DUP3 ADD SWAP1 POP DUP2 DUP2 SUB PUSH0 DUP4 ADD MSTORE PUSH2 0x1382 DUP2 PUSH2 0x1349 JUMP JUMPDEST SWAP1 POP SWAP2 SWAP1 POP JUMP JUMPDEST PUSH32 0x4167656E74206E6F74206C6973746564206F7220686173206265656E2064656C PUSH0 DUP3 ADD MSTORE PUSH32 0x6973746564000000000000000000000000000000000000000000000000000000 PUSH1 0x20 DUP3 ADD MSTORE POP JUMP JUMPDEST PUSH0 PUSH2 0x13E3 PUSH1 0x25 DUP4 PUSH2 0xDDE JUMP JUMPDEST SWAP2 POP PUSH2 0x13EE DUP3 PUSH2 0x1389 JUMP JUMPDEST PUSH1 0x40 DUP3 ADD SWAP1 POP SWAP2 SWAP1 POP JUMP JUMPDEST PUSH0 PUSH1 0x20 DUP3 ADD SWAP1 POP DUP2 DUP2 SUB PUSH0 DUP4 ADD MSTORE PUSH2 0x1410 DUP2 PUSH2 0x13D7 JUMP JUMPDEST SWAP1 POP SWAP2 SWAP1 POP JUMP JUMPDEST PUSH32 0x4F6E6C792073656C6C6572206F72206F776E65722063616E2063616C6C207468 PUSH0 DUP3 ADD MSTORE PUSH32 0x69732066756E6374696F6E000000000000000000000000000000000000000000 PUSH1 0x20 DUP3 ADD MSTORE POP JUMP JUMPDEST PUSH0 PUSH2 0x1471 PUSH1 0x2B DUP4 PUSH2 0xDDE JUMP JUMPDEST SWAP2 POP PUSH2 0x147C DUP3 PUSH2 0x1417 JUMP JUMPDEST PUSH1 0x40 DUP3 ADD SWAP1 POP SWAP2 SWAP1 POP JUMP JUMPDEST PUSH0 PUSH1 0x20 DUP3 ADD SWAP1 POP DUP2 DUP2 SUB PUSH0 DUP4 ADD MSTORE PUSH2 0x149E DUP2 PUSH2 0x1465 JUMP JUMPDEST SWAP1 POP SWAP2 SWAP1 POP JUMP JUMPDEST PUSH32 0x4167656E7420616C72656164792064656C697374656400000000000000000000 PUSH0 DUP3 ADD MSTORE POP JUMP JUMPDEST PUSH0 PUSH2 0x14D9 PUSH1 0x16 DUP4 PUSH2 0xDDE JUMP JUMPDEST SWAP2 POP PUSH2 0x14E4 DUP3 PUSH2 0x14A5 JUMP JUMPDEST PUSH1 0x20 DUP3 ADD SWAP1 POP SWAP2 SWAP1 POP JUMP JUMPDEST PUSH0 PUSH1 0x20 DUP3 ADD SWAP1 POP DUP2 DUP2 SUB PUSH0 DUP4 ADD MSTORE PUSH2 0x1506 DUP2 PUSH2 0x14CD JUMP JUMPDEST SWAP1 POP SWAP2 SWAP1 POP JUMP JUMPDEST PUSH32 0x43616E6E6F742062757920796F7572206F776E206167656E7400000000000000 PUSH0 DUP3 ADD MSTORE POP JUMP JUMPDEST PUSH0 PUSH2 0x1541 PUSH1 0x19 DUP4 PUSH2 0xDDE JUMP JUMPDEST SWAP2 POP PUSH2 0x154C DUP3 PUSH2 0x150D JUMP JUMPDEST PUSH1 0x20 DUP3 ADD SWAP1 POP SWAP2 SWAP1 POP JUMP JUMPDEST PUSH0 PUSH1 0x20 DUP3 ADD SWAP1 POP DUP2 DUP2 SUB PUSH0 DUP4 ADD MSTORE PUSH2 0x156E DUP2 PUSH2 0x1535 JUMP JUMPDEST SWAP1 POP SWAP2 SWAP1 POP JUMP JUMPDEST PUSH0 PUSH2 0x157F DUP3 PUSH2 0xB4E JUMP JUMPDEST SWAP2 POP PUSH2 0x158A DUP4 PUSH2 0xB4E JUMP JUMPDEST SWAP3 POP DUP3 DUP3 MUL PUSH2 0x1598 DUP2 PUSH2 0xB4E JUMP JUMPDEST SWAP2 POP DUP3 DUP3 DIV DUP5 EQ DUP4 ISZERO OR PUSH2 0x15AF JUMPI PUSH2 0x15AE PUSH2 0xFB1 JUMP JUMPDEST JUMPDEST POP SWAP3 SWAP2 POP POP JUMP JUMPDEST PUSH32 0x4E487B7100000000000000000000000000000000000000000000000000000000 PUSH0 MSTORE PUSH1 0x12 PUSH1 0x4 MSTORE PUSH1 0x24 PUSH0 REVERT JUMPDEST PUSH0 PUSH2 0x15ED DUP3 PUSH2 0xB4E JUMP JUMPDEST SWAP2 POP PUSH2 0x15F8 DUP4 PUSH2 0xB4E JUMP JUMPDEST SWAP3 POP DUP3 PUSH2 0x1608 JUMPI PUSH2 0x1607 PUSH2 0x15B6 JUMP JUMPDEST JUMPDEST DUP3 DUP3 DIV SWAP1 POP SWAP3 SWAP2 POP POP JUMP JUMPDEST PUSH0 PUSH2 0x161D DUP3 PUSH2 0xB4E JUMP JUMPDEST SWAP2 POP PUSH2 0x1628 DUP4 PUSH2 0xB4E JUMP JUMPDEST SWAP3 POP DUP3 DUP3 SUB SWAP1 POP DUP2 DUP2 GT ISZERO PUSH2 0x1640 JUMPI PUSH2 0x163F PUSH2 0xFB1 JUMP JUMPDEST JUMPDEST SWAP3 SWAP2 POP POP JUMP JUMPDEST PUSH0 PUSH1 0x60 DUP3 ADD SWAP1 POP PUSH2 0x1659 PUSH0 DUP4 ADD DUP7 PUSH2 0xDAB JUMP JUMPDEST PUSH2 0x1666 PUSH1 0x20 DUP4 ADD DUP6 PUSH2 0xDAB JUMP JUMPDEST PUSH2 0x1673 PUSH1 0x40 DUP4 ADD DUP5 PUSH2 0xB57 JUMP JUMPDEST SWAP5 SWAP4 POP POP POP POP JUMP JUMPDEST PUSH2 0x1684 DUP2 PUSH2 0xDBA JUMP JUMPDEST DUP2 EQ PUSH2 0x168E JUMPI PUSH0 DUP1 REVERT JUMPDEST POP JUMP JUMPDEST PUSH0 DUP2 MLOAD SWAP1 POP PUSH2 0x169F DUP2 PUSH2 0x167B JUMP JUMPDEST SWAP3 SWAP2 POP POP JUMP JUMPDEST PUSH0 PUSH1 0x20 DUP3 DUP5 SUB SLT ISZERO PUSH2 0x16BA JUMPI PUSH2 0x16B9 PUSH2 0xB88 JUMP JUMPDEST JUMPDEST PUSH0 PUSH2 0x16C7 DUP5 DUP3 DUP6 ADD PUSH2 0x1691 JUMP JUMPDEST SWAP2 POP POP SWAP3 SWAP2 POP POP JUMP JUMPDEST PUSH32 0x506C6174666F726D20666565207472616E73666572206661696C656400000000 PUSH0 DUP3 ADD MSTORE POP JUMP JUMPDEST PUSH0 PUSH2 0x1704 PUSH1 0x1C DUP4 PUSH2 0xDDE JUMP JUMPDEST SWAP2 POP PUSH2 0x170F DUP3 PUSH2 0x16D0 JUMP JUMPDEST PUSH1 0x20 DUP3 ADD SWAP1 POP SWAP2 SWAP1 POP JUMP JUMPDEST PUSH0 PUSH1 0x20 DUP3 ADD SWAP1 POP DUP2 DUP2 SUB PUSH0 DUP4 ADD MSTORE PUSH2 0x1731 DUP2 PUSH2 0x16F8 JUMP JUMPDEST SWAP1 POP SWAP2 SWAP1 POP JUMP JUMPDEST PUSH32 0x53656C6C6572207472616E73666572206661696C656400000000000000000000 PUSH0 DUP3 ADD MSTORE POP JUMP JUMPDEST PUSH0 PUSH2 0x176C PUSH1 0x16 DUP4 PUSH2 0xDDE JUMP JUMPDEST SWAP2 POP PUSH2 0x1777 DUP3 PUSH2 0x1738 JUMP JUMPDEST PUSH1 0x20 DUP3 ADD SWAP1 POP SWAP2 SWAP1 POP JUMP JUMPDEST PUSH0 PUSH1 0x20 DUP3 ADD SWAP1 POP DUP2 DUP2 SUB PUSH0 DUP4 ADD MSTORE PUSH2 0x1799 DUP2 PUSH2 0x1760 JUMP JUMPDEST SWAP1 POP SWAP2 SWAP1 POP JUMP JUMPDEST PUSH0 PUSH1 0x40 DUP3 ADD SWAP1 POP PUSH2 0x17B3 PUSH0 DUP4 ADD DUP6 PUSH2 0xDAB JUMP JUMPDEST PUSH2 0x17C0 PUSH1 0x20 DUP4 ADD DUP5 PUSH2 0xB57 JUMP JUMPDEST SWAP4 SWAP3 POP POP POP JUMP INVALID LOG2 PUSH5 0x6970667358 0x22 SLT KECCAK256 0xE6 SWAP12 SWAP1 0xF9 PUSH13 0xA9571E8F450B5FA7F1BF26DF7D 0xAF 0xB5 0x29 BALANCE CODESIZE BLOBBASEFEE COINBASE NOT CODECOPY 0xD7 INVALID DUP12 PUSH0 MLOAD PUSH5 0x736F6C6343 STOP ADDMOD BYTE STOP CALLER "
		},
		"gasEstimates": {
			"creation": {
				"codeDepositCost": "1228200",
				"executionCost": "infinite",
				"totalCost": "infinite"
			},
			"external": {
				"agents(uint256)": "infinite",
				"buyAgent(uint256)": "infinite",
				"delistAgent(uint256)": "33001",
				"mktToken()": "infinite",
				"nextAgentId()": "2426",
				"owner()": "2527",
				"platformFeePercent()": "2425",
				"platformWallet()": "2574",
				"publishAgent(uint256,string)": "infinite",
				"updatePrice(uint256,uint256)": "infinite"
			}
		},
		"methodIdentifiers": {
			"agents(uint256)": "513856c8",
			"buyAgent(uint256)": "fa3ded90",
			"delistAgent(uint256)": "b6f45f11",
			"mktToken()": "6b4a8ae0",
			"nextAgentId()": "30efc498",
			"owner()": "8da5cb5b",
			"platformFeePercent()": "8c639a85",
			"platformWallet()": "fa2af9da",
			"publishAgent(uint256,string)": "3687fc05",
			"updatePrice(uint256,uint256)": "82367b2d"
		}
	},
	"abi": [
		{
			"inputs": [
				{
					"internalType": "address",
					"name": "_mktToken",
					"type": "address"
				},
				{
					"internalType": "address",
					"name": "_platformWallet",
					"type": "address"
				}
			],
			"stateMutability": "nonpayable",
			"type": "constructor"
		},
		{
			"anonymous": false,
			"inputs": [
				{
					"indexed": true,
					"internalType": "uint256",
					"name": "agentId",
					"type": "uint256"
				},
				{
					"indexed": false,
					"internalType": "address",
					"name": "delistedBy",
					"type": "address"
				}
			],
			"name": "AgentDelisted",
			"type": "event"
		},
		{
			"anonymous": false,
			"inputs": [
				{
					"indexed": true,
					"internalType": "uint256",
					"name": "agentId",
					"type": "uint256"
				},
				{
					"indexed": false,
					"internalType": "address",
					"name": "seller",
					"type": "address"
				},
				{
					"indexed": false,
					"internalType": "uint256",
					"name": "price",
					"type": "uint256"
				},
				{
					"indexed": false,
					"internalType": "string",
					"name": "metadata",
					"type": "string"
				}
			],
			"name": "AgentListed",
			"type": "event"
		},
		{
			"anonymous": false,
			"inputs": [
				{
					"indexed": true,
					"internalType": "uint256",
					"name": "agentId",
					"type": "uint256"
				},
				{
					"indexed": false,
					"internalType": "address",
					"name": "buyer",
					"type": "address"
				},
				{
					"indexed": false,
					"internalType": "uint256",
					"name": "price",
					"type": "uint256"
				}
			],
			"name": "AgentPurchased",
			"type": "event"
		},
		{
			"anonymous": false,
			"inputs": [
				{
					"indexed": true,
					"internalType": "uint256",
					"name": "agentId",
					"type": "uint256"
				},
				{
					"indexed": false,
					"internalType": "uint256",
					"name": "newPrice",
					"type": "uint256"
				}
			],
			"name": "PriceUpdated",
			"type": "event"
		},
		{
			"inputs": [
				{
					"internalType": "uint256",
					"name": "",
					"type": "uint256"
				}
			],
			"name": "agents",
			"outputs": [
				{
					"internalType": "address",
					"name": "seller",
					"type": "address"
				},
				{
					"internalType": "uint256",
					"name": "price",
					"type": "uint256"
				},
				{
					"internalType": "bool",
					"name": "isListed",
					"type": "bool"
				},
				{
					"internalType": "string",
					"name": "metadata",
					"type": "string"
				}
			],
			"stateMutability": "view",
			"type": "function"
		},
		{
			"inputs": [
				{
					"internalType": "uint256",
					"name": "agentId",
					"type": "uint256"
				}
			],
			"name": "buyAgent",
			"outputs": [],
			"stateMutability": "nonpayable",
			"type": "function"
		},
		{
			"inputs": [
				{
					"internalType": "uint256",
					"name": "agentId",
					"type": "uint256"
				}
			],
			"name": "delistAgent",
			"outputs": [],
			"stateMutability": "nonpayable",
			"type": "function"
		},
		{
			"inputs": [],
			"name": "mktToken",
			"outputs": [
				{
					"internalType": "contract IERC20",
					"name": "",
					"type": "address"
				}
			],
			"stateMutability": "view",
			"type": "function"
		},
		{
			"inputs": [],
			"name": "nextAgentId",
			"outputs": [
				{
					"internalType": "uint256",
					"name": "",
					"type": "uint256"
				}
			],
			"stateMutability": "view",
			"type": "function"
		},
		{
			"inputs": [],
			"name": "owner",
			"outputs": [
				{
					"internalType": "address",
					"name": "",
					"type": "address"
				}
			],
			"stateMutability": "view",
			"type": "function"
		},
		{
			"inputs": [],
			"name": "platformFeePercent",
			"outputs": [
				{
					"internalType": "uint256",
					"name": "",
					"type": "uint256"
				}
			],
			"stateMutability": "view",
			"type": "function"
		},
		{
			"inputs": [],
			"name": "platformWallet",
			"outputs": [
				{
					"internalType": "address",
					"name": "",
					"type": "address"
				}
			],
			"stateMutability": "view",
			"type": "function"
		},
		{
			"inputs": [
				{
					"internalType": "uint256",
					"name": "price",
					"type": "uint256"
				},
				{
					"internalType": "string",
					"name": "metadata",
					"type": "string"
				}
			],
			"name": "publishAgent",
			"outputs": [
				{
					"internalType": "uint256",
					"name": "",
					"type": "uint256"
				}
			],
			"stateMutability": "nonpayable",
			"type": "function"
		},
		{
			"inputs": [
				{
					"internalType": "uint256",
					"name": "agentId",
					"type": "uint256"
				},
				{
					"internalType": "uint256",
					"name": "newPrice",
					"type": "uint256"
				}
			],
			"name": "updatePrice",
			"outputs": [],
			"stateMutability": "nonpayable",
			"type": "function"
		}
	]
}